{
  "contractName": "Elections",
  "abi": [
    {
      "inputs": [],
      "stateMutability": "nonpayable",
      "type": "constructor"
    },
    {
      "anonymous": false,
      "inputs": [
        {
          "indexed": false,
          "internalType": "address",
          "name": "voter",
          "type": "address"
        }
      ],
      "name": "voteDone",
      "type": "event"
    },
    {
      "anonymous": false,
      "inputs": [
        {
          "indexed": false,
          "internalType": "uint256",
          "name": "totalVotesCount",
          "type": "uint256"
        }
      ],
      "name": "voteEnded",
      "type": "event"
    },
    {
      "anonymous": false,
      "inputs": [],
      "name": "voteStarted",
      "type": "event"
    },
    {
      "anonymous": false,
      "inputs": [
        {
          "indexed": false,
          "internalType": "address",
          "name": "voter",
          "type": "address"
        }
      ],
      "name": "voterAdded",
      "type": "event"
    },
    {
      "inputs": [],
      "name": "ballotOfficialAddress",
      "outputs": [
        {
          "internalType": "address",
          "name": "",
          "type": "address"
        }
      ],
      "stateMutability": "view",
      "type": "function",
      "constant": true
    },
    {
      "inputs": [],
      "name": "ballotOfficialName",
      "outputs": [
        {
          "internalType": "string",
          "name": "",
          "type": "string"
        }
      ],
      "stateMutability": "view",
      "type": "function",
      "constant": true
    },
    {
      "inputs": [],
      "name": "candidateCount",
      "outputs": [
        {
          "internalType": "uint256",
          "name": "",
          "type": "uint256"
        }
      ],
      "stateMutability": "view",
      "type": "function",
      "constant": true
    },
    {
      "inputs": [
        {
          "internalType": "uint256",
          "name": "",
          "type": "uint256"
        }
      ],
      "name": "candidates",
      "outputs": [
        {
          "internalType": "uint256",
          "name": "candidateCount",
          "type": "uint256"
        },
        {
          "internalType": "string",
          "name": "firstName",
          "type": "string"
        },
        {
          "internalType": "string",
          "name": "lastName",
          "type": "string"
        },
        {
          "internalType": "uint256",
          "name": "voteCount",
          "type": "uint256"
        },
        {
          "internalType": "string",
          "name": "politicalView",
          "type": "string"
        }
      ],
      "stateMutability": "view",
      "type": "function",
      "constant": true
    },
    {
      "inputs": [],
      "name": "state",
      "outputs": [
        {
          "internalType": "enum Elections.State",
          "name": "",
          "type": "uint8"
        }
      ],
      "stateMutability": "view",
      "type": "function",
      "constant": true
    },
    {
      "inputs": [],
      "name": "totalVoter",
      "outputs": [
        {
          "internalType": "uint256",
          "name": "",
          "type": "uint256"
        }
      ],
      "stateMutability": "view",
      "type": "function",
      "constant": true
    },
    {
      "inputs": [],
      "name": "totalVotesCount",
      "outputs": [
        {
          "internalType": "uint256",
          "name": "",
          "type": "uint256"
        }
      ],
      "stateMutability": "view",
      "type": "function",
      "constant": true
    },
    {
      "inputs": [
        {
          "internalType": "address",
          "name": "",
          "type": "address"
        }
      ],
      "name": "voterRegister",
      "outputs": [
        {
          "internalType": "uint256",
          "name": "voterNumber",
          "type": "uint256"
        },
        {
          "internalType": "bool",
          "name": "voted",
          "type": "bool"
        }
      ],
      "stateMutability": "view",
      "type": "function",
      "constant": true
    },
    {
      "inputs": [
        {
          "internalType": "string",
          "name": "_firstName",
          "type": "string"
        },
        {
          "internalType": "string",
          "name": "_lastName",
          "type": "string"
        },
        {
          "internalType": "string",
          "name": "_politicalView",
          "type": "string"
        }
      ],
      "name": "createCandidate",
      "outputs": [],
      "stateMutability": "nonpayable",
      "type": "function"
    },
    {
      "inputs": [
        {
          "internalType": "uint256",
          "name": "_candidateCount",
          "type": "uint256"
        }
      ],
      "name": "getCandidateByCount",
      "outputs": [
        {
          "components": [
            {
              "internalType": "uint256",
              "name": "candidateCount",
              "type": "uint256"
            },
            {
              "internalType": "string",
              "name": "firstName",
              "type": "string"
            },
            {
              "internalType": "string",
              "name": "lastName",
              "type": "string"
            },
            {
              "internalType": "uint256",
              "name": "voteCount",
              "type": "uint256"
            },
            {
              "internalType": "string",
              "name": "politicalView",
              "type": "string"
            }
          ],
          "internalType": "struct Elections.Candidate",
          "name": "",
          "type": "tuple"
        }
      ],
      "stateMutability": "view",
      "type": "function",
      "constant": true
    },
    {
      "inputs": [
        {
          "internalType": "uint256",
          "name": "_candidateCount",
          "type": "uint256"
        }
      ],
      "name": "getCandidateVoteCount",
      "outputs": [
        {
          "internalType": "uint256",
          "name": "",
          "type": "uint256"
        }
      ],
      "stateMutability": "view",
      "type": "function",
      "constant": true
    },
    {
      "inputs": [
        {
          "internalType": "address",
          "name": "_voterAddress",
          "type": "address"
        }
      ],
      "name": "getVoterStructByAddress",
      "outputs": [
        {
          "components": [
            {
              "internalType": "uint256",
              "name": "voterNumber",
              "type": "uint256"
            },
            {
              "internalType": "bool",
              "name": "voted",
              "type": "bool"
            }
          ],
          "internalType": "struct Elections.voter",
          "name": "",
          "type": "tuple"
        }
      ],
      "stateMutability": "view",
      "type": "function",
      "constant": true
    },
    {
      "inputs": [
        {
          "internalType": "address",
          "name": "_voterAddress",
          "type": "address"
        }
      ],
      "name": "getVoterVotedByAddress",
      "outputs": [
        {
          "internalType": "bool",
          "name": "",
          "type": "bool"
        }
      ],
      "stateMutability": "view",
      "type": "function",
      "constant": true
    },
    {
      "inputs": [
        {
          "internalType": "address",
          "name": "_voterAddress",
          "type": "address"
        }
      ],
      "name": "getVoterNumberByAddress",
      "outputs": [
        {
          "internalType": "uint256",
          "name": "",
          "type": "uint256"
        }
      ],
      "stateMutability": "view",
      "type": "function",
      "constant": true
    },
    {
      "inputs": [],
      "name": "getVoters",
      "outputs": [
        {
          "internalType": "uint256",
          "name": "supplyCount",
          "type": "uint256"
        }
      ],
      "stateMutability": "view",
      "type": "function",
      "constant": true
    },
    {
      "inputs": [
        {
          "internalType": "uint256",
          "name": "_id",
          "type": "uint256"
        }
      ],
      "name": "getOwnerOf",
      "outputs": [
        {
          "internalType": "address",
          "name": "ownerAddress",
          "type": "address"
        }
      ],
      "stateMutability": "view",
      "type": "function",
      "constant": true
    },
    {
      "inputs": [
        {
          "internalType": "address",
          "name": "_voterAddress",
          "type": "address"
        }
      ],
      "name": "addVoter",
      "outputs": [],
      "stateMutability": "nonpayable",
      "type": "function"
    },
    {
      "inputs": [],
      "name": "startVote",
      "outputs": [],
      "stateMutability": "nonpayable",
      "type": "function"
    },
    {
      "inputs": [
        {
          "internalType": "uint256",
          "name": "_candidateid",
          "type": "uint256"
        }
      ],
      "name": "voteNow",
      "outputs": [
        {
          "internalType": "bool",
          "name": "voted",
          "type": "bool"
        }
      ],
      "stateMutability": "nonpayable",
      "type": "function"
    },
    {
      "inputs": [],
      "name": "endVote",
      "outputs": [],
      "stateMutability": "nonpayable",
      "type": "function"
    }
  ],
  "bytecode": "0x6080604052600060015560006002553480156200001b57600080fd5b5033600360006101000a81548173ffffffffffffffffffffffffffffffffffffffff021916908373ffffffffffffffffffffffffffffffffffffffff1602179055506040518060400160405280601581526020017f49737261656c20456c656374696f6e732032303232000000000000000000000081525060049080519060200190620000aa9291906200014a565b506000600860006101000a81548160ff02191690836002811115620000d457620000d362000208565b5b0217905550604051620000e790620001db565b604051809103906000f08015801562000104573d6000803e3d6000fd5b506000806101000a81548173ffffffffffffffffffffffffffffffffffffffff021916908373ffffffffffffffffffffffffffffffffffffffff1602179055506200029c565b828054620001589062000266565b90600052602060002090601f0160209004810192826200017c5760008555620001c8565b82601f106200019757805160ff1916838001178555620001c8565b82800160010185558215620001c8579182015b82811115620001c7578251825591602001919060010190620001aa565b5b509050620001d79190620001e9565b5090565b612fc88062001e7d83390190565b5b8082111562000204576000816000905550600101620001ea565b5090565b7f4e487b7100000000000000000000000000000000000000000000000000000000600052602160045260246000fd5b7f4e487b7100000000000000000000000000000000000000000000000000000000600052602260045260246000fd5b600060028204905060018216806200027f57607f821691505b6020821081141562000296576200029562000237565b5b50919050565b611bd180620002ac6000396000f3fe608060405234801561001057600080fd5b506004361061012c5760003560e01c8063a9a981a3116100ad578063c19d93fb11610071578063c19d93fb14610370578063cdd722531461038e578063de975d18146103ac578063f396d674146103ca578063f4ab9adf146103e85761012c565b8063a9a981a3146102b7578063ac092c6b146102d5578063af15408714610305578063b315c59714610336578063b9223946146103665761012c565b80636332abc9116100f45780636332abc9146101eb5780637a93105f146102095780638363871014610239578063909497471461026957806393032b85146102875761012c565b80630b95bea2146101315780631410c933146101615780631d823d32146101915780633477ee2e146101ad5780634c0a6af0146101e1575b600080fd5b61014b60048036038101906101469190611412565b610404565b60405161015891906114a2565b60405180910390f35b61017b60048036038101906101769190611412565b610482565b60405161018891906114cc565b60405180910390f35b6101ab60048036038101906101a6919061162d565b6104ce565b005b6101c760048036038101906101c29190611700565b61057a565b6040516101d89594939291906117b5565b60405180910390f35b6101e9610748565b005b6101f361083d565b60405161020091906114cc565b60405180910390f35b610223600480360381019061021e9190611412565b610843565b604051610230919061182c565b60405180910390f35b610253600480360381019061024e9190611700565b61089c565b6040516102609190611856565b60405180910390f35b610271610940565b60405161027e9190611856565b60405180910390f35b6102a1600480360381019061029c9190611700565b610966565b6040516102ae919061182c565b60405180910390f35b6102bf610b4e565b6040516102cc91906114cc565b60405180910390f35b6102ef60048036038101906102ea9190611700565b610b54565b6040516102fc919061193f565b60405180910390f35b61031f600480360381019061031a9190611412565b610d4b565b60405161032d929190611961565b60405180910390f35b610350600480360381019061034b9190611700565b610d7c565b60405161035d91906114cc565b60405180910390f35b61036e610d9c565b005b610378610e9e565b6040516103859190611a01565b60405180910390f35b610396610eb1565b6040516103a391906114cc565b60405180910390f35b6103b4610f48565b6040516103c19190611a1c565b60405180910390f35b6103d2610fd6565b6040516103df91906114cc565b60405180910390f35b61040260048036038101906103fd9190611412565b610fdc565b005b61040c6112b2565b600760008373ffffffffffffffffffffffffffffffffffffffff1673ffffffffffffffffffffffffffffffffffffffff168152602001908152602001600020604051806040016040529081600082015481526020016001820160009054906101000a900460ff1615151515815250509050919050565b6000600760008373ffffffffffffffffffffffffffffffffffffffff1673ffffffffffffffffffffffffffffffffffffffff168152602001908152602001600020600001549050919050565b60008060028111156104e3576104e261198a565b5b600860009054906101000a900460ff1660028111156105055761050461198a565b5b1461050f57600080fd5b600360009054906101000a900473ffffffffffffffffffffffffffffffffffffffff1673ffffffffffffffffffffffffffffffffffffffff163373ffffffffffffffffffffffffffffffffffffffff161461056957600080fd5b6105748484846111e8565b50505050565b60066020528060005260406000206000915090508060000154908060010180546105a390611a6d565b80601f01602080910402602001604051908101604052809291908181526020018280546105cf90611a6d565b801561061c5780601f106105f15761010080835404028352916020019161061c565b820191906000526020600020905b8154815290600101906020018083116105ff57829003601f168201915b50505050509080600201805461063190611a6d565b80601f016020809104026020016040519081016040528092919081815260200182805461065d90611a6d565b80156106aa5780601f1061067f576101008083540402835291602001916106aa565b820191906000526020600020905b81548152906001019060200180831161068d57829003601f168201915b5050505050908060030154908060040180546106c590611a6d565b80601f01602080910402602001604051908101604052809291908181526020018280546106f190611a6d565b801561073e5780601f106107135761010080835404028352916020019161073e565b820191906000526020600020905b81548152906001019060200180831161072157829003601f168201915b5050505050905085565b600080600281111561075d5761075c61198a565b5b600860009054906101000a900460ff16600281111561077f5761077e61198a565b5b1461078957600080fd5b600360009054906101000a900473ffffffffffffffffffffffffffffffffffffffff1673ffffffffffffffffffffffffffffffffffffffff163373ffffffffffffffffffffffffffffffffffffffff16146107e357600080fd5b6001600860006101000a81548160ff021916908360028111156108095761080861198a565b5b02179055507fd0dc01800a369fef30d3fced5275b8b916549867622e79efca5245c479fda4ea60405160405180910390a150565b60015481565b6000600760008373ffffffffffffffffffffffffffffffffffffffff1673ffffffffffffffffffffffffffffffffffffffff16815260200190815260200160002060010160009054906101000a900460ff169050919050565b60008060009054906101000a900473ffffffffffffffffffffffffffffffffffffffff1673ffffffffffffffffffffffffffffffffffffffff16636352211e836040518263ffffffff1660e01b81526004016108f891906114cc565b602060405180830381865afa158015610915573d6000803e3d6000fd5b505050506040513d601f19601f820116820180604052508101906109399190611ab4565b9050919050565b600360009054906101000a900473ffffffffffffffffffffffffffffffffffffffff1681565b6000600180600281111561097d5761097c61198a565b5b600860009054906101000a900460ff16600281111561099f5761099e61198a565b5b146109a957600080fd5b600080841180156109bc57506005548411155b6109c557600080fd5b6000600760003373ffffffffffffffffffffffffffffffffffffffff1673ffffffffffffffffffffffffffffffffffffffff16815260200190815260200160002060000154118015610a645750600760003373ffffffffffffffffffffffffffffffffffffffff1673ffffffffffffffffffffffffffffffffffffffff16815260200190815260200160002060010160009054906101000a900460ff16155b15610b0d576001600760003373ffffffffffffffffffffffffffffffffffffffff1673ffffffffffffffffffffffffffffffffffffffff16815260200190815260200160002060010160006101000a81548160ff021916908315150217905550600660008581526020019081526020016000206003016000815480929190610aeb90611b10565b919050555060026000815480929190610b0390611b10565b9190505550600190505b7f55c65cf9526efdf6c2252fe9757889dbd93e10172cad0f2edb1df619c88dbf7d33604051610b3c9190611856565b60405180910390a18092505050919050565b60055481565b610b5c6112ce565b600660008381526020019081526020016000206040518060a001604052908160008201548152602001600182018054610b9490611a6d565b80601f0160208091040260200160405190810160405280929190818152602001828054610bc090611a6d565b8015610c0d5780601f10610be257610100808354040283529160200191610c0d565b820191906000526020600020905b815481529060010190602001808311610bf057829003601f168201915b50505050508152602001600282018054610c2690611a6d565b80601f0160208091040260200160405190810160405280929190818152602001828054610c5290611a6d565b8015610c9f5780601f10610c7457610100808354040283529160200191610c9f565b820191906000526020600020905b815481529060010190602001808311610c8257829003601f168201915b5050505050815260200160038201548152602001600482018054610cc290611a6d565b80601f0160208091040260200160405190810160405280929190818152602001828054610cee90611a6d565b8015610d3b5780601f10610d1057610100808354040283529160200191610d3b565b820191906000526020600020905b815481529060010190602001808311610d1e57829003601f168201915b5050505050815250509050919050565b60076020528060005260406000206000915090508060000154908060010160009054906101000a900460ff16905082565b600060066000838152602001908152602001600020600301549050919050565b6001806002811115610db157610db061198a565b5b600860009054906101000a900460ff166002811115610dd357610dd261198a565b5b14610ddd57600080fd5b600360009054906101000a900473ffffffffffffffffffffffffffffffffffffffff1673ffffffffffffffffffffffffffffffffffffffff163373ffffffffffffffffffffffffffffffffffffffff1614610e3757600080fd5b6002600860006101000a81548160ff02191690836002811115610e5d57610e5c61198a565b5b02179055507fb43a401dcdbe02a8afa41feb6c651425997908d1a4b79cf505188ba1dd3fd872600254604051610e9391906114cc565b60405180910390a150565b600860009054906101000a900460ff1681565b60008060009054906101000a900473ffffffffffffffffffffffffffffffffffffffff1673ffffffffffffffffffffffffffffffffffffffff166318160ddd6040518163ffffffff1660e01b8152600401602060405180830381865afa158015610f1f573d6000803e3d6000fd5b505050506040513d601f19601f82011682018060405250810190610f439190611b6e565b905090565b60048054610f5590611a6d565b80601f0160208091040260200160405190810160405280929190818152602001828054610f8190611a6d565b8015610fce5780601f10610fa357610100808354040283529160200191610fce565b820191906000526020600020905b815481529060010190602001808311610fb157829003601f168201915b505050505081565b60025481565b6000806002811115610ff157610ff061198a565b5b600860009054906101000a900460ff1660028111156110135761101261198a565b5b1461101d57600080fd5b600360009054906101000a900473ffffffffffffffffffffffffffffffffffffffff1673ffffffffffffffffffffffffffffffffffffffff163373ffffffffffffffffffffffffffffffffffffffff161461107757600080fd5b60008054906101000a900473ffffffffffffffffffffffffffffffffffffffff1673ffffffffffffffffffffffffffffffffffffffff16636a627842836040518263ffffffff1660e01b81526004016110d09190611856565b600060405180830381600087803b1580156110ea57600080fd5b505af11580156110fe573d6000803e3d6000fd5b5050505061110a6112b2565b6001600081548092919061111d90611b10565b9190505550600081602001901515908115158152505060015481600001818152505080600760008573ffffffffffffffffffffffffffffffffffffffff1673ffffffffffffffffffffffffffffffffffffffff1681526020019081526020016000206000820151816000015560208201518160010160006101000a81548160ff0219169083151502179055509050507fb9e5f9042e6c6eb94817f660cfa81afea9585e59d72bfc3348a2305cbd33e133836040516111db9190611856565b60405180910390a1505050565b6040518060a001604052806005548152602001848152602001838152602001600081526020018281525060066000600554815260200190815260200160002060008201518160000155602082015181600101908051906020019061124d9291906112fd565b50604082015181600201908051906020019061126a9291906112fd565b506060820151816003015560808201518160040190805190602001906112919291906112fd565b50905050600560008154809291906112a890611b10565b9190505550505050565b6040518060400160405280600081526020016000151581525090565b6040518060a0016040528060008152602001606081526020016060815260200160008152602001606081525090565b82805461130990611a6d565b90600052602060002090601f01602090048101928261132b5760008555611372565b82601f1061134457805160ff1916838001178555611372565b82800160010185558215611372579182015b82811115611371578251825591602001919060010190611356565b5b50905061137f9190611383565b5090565b5b8082111561139c576000816000905550600101611384565b5090565b6000604051905090565b600080fd5b600080fd5b600073ffffffffffffffffffffffffffffffffffffffff82169050919050565b60006113df826113b4565b9050919050565b6113ef816113d4565b81146113fa57600080fd5b50565b60008135905061140c816113e6565b92915050565b600060208284031215611428576114276113aa565b5b6000611436848285016113fd565b91505092915050565b6000819050919050565b6114528161143f565b82525050565b60008115159050919050565b61146d81611458565b82525050565b6040820160008201516114896000850182611449565b50602082015161149c6020850182611464565b50505050565b60006040820190506114b76000830184611473565b92915050565b6114c68161143f565b82525050565b60006020820190506114e160008301846114bd565b92915050565b600080fd5b600080fd5b6000601f19601f8301169050919050565b7f4e487b7100000000000000000000000000000000000000000000000000000000600052604160045260246000fd5b61153a826114f1565b810181811067ffffffffffffffff8211171561155957611558611502565b5b80604052505050565b600061156c6113a0565b90506115788282611531565b919050565b600067ffffffffffffffff82111561159857611597611502565b5b6115a1826114f1565b9050602081019050919050565b82818337600083830152505050565b60006115d06115cb8461157d565b611562565b9050828152602081018484840111156115ec576115eb6114ec565b5b6115f78482856115ae565b509392505050565b600082601f830112611614576116136114e7565b5b81356116248482602086016115bd565b91505092915050565b600080600060608486031215611646576116456113aa565b5b600084013567ffffffffffffffff811115611664576116636113af565b5b611670868287016115ff565b935050602084013567ffffffffffffffff811115611691576116906113af565b5b61169d868287016115ff565b925050604084013567ffffffffffffffff8111156116be576116bd6113af565b5b6116ca868287016115ff565b9150509250925092565b6116dd8161143f565b81146116e857600080fd5b50565b6000813590506116fa816116d4565b92915050565b600060208284031215611716576117156113aa565b5b6000611724848285016116eb565b91505092915050565b600081519050919050565b600082825260208201905092915050565b60005b8381101561176757808201518184015260208101905061174c565b83811115611776576000848401525b50505050565b60006117878261172d565b6117918185611738565b93506117a1818560208601611749565b6117aa816114f1565b840191505092915050565b600060a0820190506117ca60008301886114bd565b81810360208301526117dc818761177c565b905081810360408301526117f0818661177c565b90506117ff60608301856114bd565b8181036080830152611811818461177c565b90509695505050505050565b61182681611458565b82525050565b6000602082019050611841600083018461181d565b92915050565b611850816113d4565b82525050565b600060208201905061186b6000830184611847565b92915050565b600082825260208201905092915050565b600061188d8261172d565b6118978185611871565b93506118a7818560208601611749565b6118b0816114f1565b840191505092915050565b600060a0830160008301516118d36000860182611449565b50602083015184820360208601526118eb8282611882565b915050604083015184820360408601526119058282611882565b915050606083015161191a6060860182611449565b50608083015184820360808601526119328282611882565b9150508091505092915050565b6000602082019050818103600083015261195981846118bb565b905092915050565b600060408201905061197660008301856114bd565b611983602083018461181d565b9392505050565b7f4e487b7100000000000000000000000000000000000000000000000000000000600052602160045260246000fd5b600381106119ca576119c961198a565b5b50565b60008190506119db826119b9565b919050565b60006119eb826119cd565b9050919050565b6119fb816119e0565b82525050565b6000602082019050611a1660008301846119f2565b92915050565b60006020820190508181036000830152611a36818461177c565b905092915050565b7f4e487b7100000000000000000000000000000000000000000000000000000000600052602260045260246000fd5b60006002820490506001821680611a8557607f821691505b60208210811415611a9957611a98611a3e565b5b50919050565b600081519050611aae816113e6565b92915050565b600060208284031215611aca57611ac96113aa565b5b6000611ad884828501611a9f565b91505092915050565b7f4e487b7100000000000000000000000000000000000000000000000000000000600052601160045260246000fd5b6000611b1b8261143f565b91507fffffffffffffffffffffffffffffffffffffffffffffffffffffffffffffffff821415611b4e57611b4d611ae1565b5b600182019050919050565b600081519050611b68816116d4565b92915050565b600060208284031215611b8457611b836113aa565b5b6000611b9284828501611b59565b9150509291505056fea2646970667358221220169891c3c84fdfa4ac075c3603748e2c58b1836ceeeba483cfd63993e1ec629964736f6c634300080a003360806040523480156200001157600080fd5b506040518060400160405280600681526020017f566f7465727300000000000000000000000000000000000000000000000000008152506040518060400160405280600481526020017f564f544500000000000000000000000000000000000000000000000000000000815250816000908051906020019062000096929190620000b8565b508060019080519060200190620000af929190620000b8565b505050620001cd565b828054620000c69062000197565b90600052602060002090601f016020900481019282620000ea576000855562000136565b82601f106200010557805160ff191683800117855562000136565b8280016001018555821562000136579182015b828111156200013557825182559160200191906001019062000118565b5b50905062000145919062000149565b5090565b5b80821115620001645760008160009055506001016200014a565b5090565b7f4e487b7100000000000000000000000000000000000000000000000000000000600052602260045260246000fd5b60006002820490506001821680620001b057607f821691505b60208210811415620001c757620001c662000168565b5b50919050565b612deb80620001dd6000396000f3fe608060405234801561001057600080fd5b50600436106101165760003560e01c80636352211e116100a2578063a22cb46511610071578063a22cb46514610305578063b88d4fde14610321578063c87b56dd1461033d578063da58c7d91461036d578063e985e9c51461039d57610116565b80636352211e1461026b5780636a6278421461029b57806370a08231146102b757806395d89b41146102e757610116565b806318160ddd116100e957806318160ddd146101b557806323b872dd146101d35780632f745c59146101ef57806342842e0e1461021f5780634f6ccce71461023b57610116565b806301ffc9a71461011b57806306fdde031461014b578063081812fc14610169578063095ea7b314610199575b600080fd5b61013560048036038101906101309190611df7565b6103cd565b6040516101429190611e3f565b60405180910390f35b6101536103df565b6040516101609190611ef3565b60405180910390f35b610183600480360381019061017e9190611f4b565b610471565b6040516101909190611fb9565b60405180910390f35b6101b360048036038101906101ae9190612000565b6104b7565b005b6101bd6105cf565b6040516101ca919061204f565b60405180910390f35b6101ed60048036038101906101e8919061206a565b6105dc565b005b61020960048036038101906102049190612000565b61063c565b604051610216919061204f565b60405180910390f35b6102396004803603810190610234919061206a565b6106e1565b005b61025560048036038101906102509190611f4b565b610701565b604051610262919061204f565b60405180910390f35b61028560048036038101906102809190611f4b565b610772565b6040516102929190611fb9565b60405180910390f35b6102b560048036038101906102b091906120bd565b610824565b005b6102d160048036038101906102cc91906120bd565b61095a565b6040516102de919061204f565b60405180910390f35b6102ef610a12565b6040516102fc9190611ef3565b60405180910390f35b61031f600480360381019061031a9190612116565b610aa4565b005b61033b6004803603810190610336919061228b565b610aba565b005b61035760048036038101906103529190611f4b565b610b1c565b6040516103649190611ef3565b60405180910390f35b61038760048036038101906103829190611f4b565b610b84565b6040516103949190611fb9565b60405180910390f35b6103b760048036038101906103b2919061230e565b610bc3565b6040516103c49190611e3f565b60405180910390f35b60006103d882610c57565b9050919050565b6060600080546103ee9061237d565b80601f016020809104026020016040519081016040528092919081815260200182805461041a9061237d565b80156104675780601f1061043c57610100808354040283529160200191610467565b820191906000526020600020905b81548152906001019060200180831161044a57829003601f168201915b5050505050905090565b600061047c82610cd1565b6004600083815260200190815260200160002060009054906101000a900473ffffffffffffffffffffffffffffffffffffffff169050919050565b60006104c282610772565b90508073ffffffffffffffffffffffffffffffffffffffff168373ffffffffffffffffffffffffffffffffffffffff161415610533576040517f08c379a000000000000000000000000000000000000000000000000000000000815260040161052a90612421565b60405180910390fd5b8073ffffffffffffffffffffffffffffffffffffffff16610552610d1c565b73ffffffffffffffffffffffffffffffffffffffff16148061058157506105808161057b610d1c565b610bc3565b5b6105c0576040517f08c379a00000000000000000000000000000000000000000000000000000000081526004016105b7906124b3565b60405180910390fd5b6105ca8383610d24565b505050565b6000600880549050905090565b6105ed6105e7610d1c565b82610ddd565b61062c576040517f08c379a000000000000000000000000000000000000000000000000000000000815260040161062390612545565b60405180910390fd5b610637838383610e72565b505050565b60006106478361095a565b8210610688576040517f08c379a000000000000000000000000000000000000000000000000000000000815260040161067f906125d7565b60405180910390fd5b600660008473ffffffffffffffffffffffffffffffffffffffff1673ffffffffffffffffffffffffffffffffffffffff168152602001908152602001600020600083815260200190815260200160002054905092915050565b6106fc83838360405180602001604052806000815250610aba565b505050565b600061070b6105cf565b821061074c576040517f08c379a000000000000000000000000000000000000000000000000000000000815260040161074390612669565b60405180910390fd5b600882815481106107605761075f612689565b5b90600052602060002001549050919050565b6000806002600084815260200190815260200160002060009054906101000a900473ffffffffffffffffffffffffffffffffffffffff169050600073ffffffffffffffffffffffffffffffffffffffff168173ffffffffffffffffffffffffffffffffffffffff16141561081b576040517f08c379a000000000000000000000000000000000000000000000000000000000815260040161081290612704565b60405180910390fd5b80915050919050565b600b60008273ffffffffffffffffffffffffffffffffffffffff1673ffffffffffffffffffffffffffffffffffffffff16815260200190815260200160002060009054906101000a900460ff161561087b57600080fd5b600a819080600181540180825580915050600190039060005260206000200160009091909190916101000a81548173ffffffffffffffffffffffffffffffffffffffff021916908373ffffffffffffffffffffffffffffffffffffffff1602179055506001600b60008373ffffffffffffffffffffffffffffffffffffffff1673ffffffffffffffffffffffffffffffffffffffff16815260200190815260200160002060006101000a81548160ff02191690831515021790555060006001600a8054905061094a9190612753565b905061095682826110d9565b5050565b60008073ffffffffffffffffffffffffffffffffffffffff168273ffffffffffffffffffffffffffffffffffffffff1614156109cb576040517f08c379a00000000000000000000000000000000000000000000000000000000081526004016109c2906127f9565b60405180910390fd5b600360008373ffffffffffffffffffffffffffffffffffffffff1673ffffffffffffffffffffffffffffffffffffffff168152602001908152602001600020549050919050565b606060018054610a219061237d565b80601f0160208091040260200160405190810160405280929190818152602001828054610a4d9061237d565b8015610a9a5780601f10610a6f57610100808354040283529160200191610a9a565b820191906000526020600020905b815481529060010190602001808311610a7d57829003601f168201915b5050505050905090565b610ab6610aaf610d1c565b83836112b3565b5050565b610acb610ac5610d1c565b83610ddd565b610b0a576040517f08c379a0000000000000000000000000000000000000000000000000000000008152600401610b0190612545565b60405180910390fd5b610b1684848484611420565b50505050565b6060610b2782610cd1565b6000610b3161147c565b90506000815111610b515760405180602001604052806000815250610b7c565b80610b5b84611493565b604051602001610b6c929190612855565b6040516020818303038152906040525b915050919050565b600a8181548110610b9457600080fd5b906000526020600020016000915054906101000a900473ffffffffffffffffffffffffffffffffffffffff1681565b6000600560008473ffffffffffffffffffffffffffffffffffffffff1673ffffffffffffffffffffffffffffffffffffffff16815260200190815260200160002060008373ffffffffffffffffffffffffffffffffffffffff1673ffffffffffffffffffffffffffffffffffffffff16815260200190815260200160002060009054906101000a900460ff16905092915050565b60007f780e9d63000000000000000000000000000000000000000000000000000000007bffffffffffffffffffffffffffffffffffffffffffffffffffffffff1916827bffffffffffffffffffffffffffffffffffffffffffffffffffffffff19161480610cca5750610cc9826115f4565b5b9050919050565b610cda816116d6565b610d19576040517f08c379a0000000000000000000000000000000000000000000000000000000008152600401610d1090612704565b60405180910390fd5b50565b600033905090565b816004600083815260200190815260200160002060006101000a81548173ffffffffffffffffffffffffffffffffffffffff021916908373ffffffffffffffffffffffffffffffffffffffff160217905550808273ffffffffffffffffffffffffffffffffffffffff16610d9783610772565b73ffffffffffffffffffffffffffffffffffffffff167f8c5be1e5ebec7d5bd14f71427d1e84f3dd0314c0f7b2291e5b200ac8c7c3b92560405160405180910390a45050565b600080610de983610772565b90508073ffffffffffffffffffffffffffffffffffffffff168473ffffffffffffffffffffffffffffffffffffffff161480610e2b5750610e2a8185610bc3565b5b80610e6957508373ffffffffffffffffffffffffffffffffffffffff16610e5184610471565b73ffffffffffffffffffffffffffffffffffffffff16145b91505092915050565b8273ffffffffffffffffffffffffffffffffffffffff16610e9282610772565b73ffffffffffffffffffffffffffffffffffffffff1614610ee8576040517f08c379a0000000000000000000000000000000000000000000000000000000008152600401610edf906128eb565b60405180910390fd5b600073ffffffffffffffffffffffffffffffffffffffff168273ffffffffffffffffffffffffffffffffffffffff161415610f58576040517f08c379a0000000000000000000000000000000000000000000000000000000008152600401610f4f9061297d565b60405180910390fd5b610f63838383611742565b610f6e600082610d24565b6001600360008573ffffffffffffffffffffffffffffffffffffffff1673ffffffffffffffffffffffffffffffffffffffff1681526020019081526020016000206000828254610fbe9190612753565b925050819055506001600360008473ffffffffffffffffffffffffffffffffffffffff1673ffffffffffffffffffffffffffffffffffffffff1681526020019081526020016000206000828254611015919061299d565b92505081905550816002600083815260200190815260200160002060006101000a81548173ffffffffffffffffffffffffffffffffffffffff021916908373ffffffffffffffffffffffffffffffffffffffff160217905550808273ffffffffffffffffffffffffffffffffffffffff168473ffffffffffffffffffffffffffffffffffffffff167fddf252ad1be2c89b69c2b068fc378daa952ba7f163c4a11628f55a4df523b3ef60405160405180910390a46110d4838383611752565b505050565b600073ffffffffffffffffffffffffffffffffffffffff168273ffffffffffffffffffffffffffffffffffffffff161415611149576040517f08c379a000000000000000000000000000000000000000000000000000000000815260040161114090612a3f565b60405180910390fd5b611152816116d6565b15611192576040517f08c379a000000000000000000000000000000000000000000000000000000000815260040161118990612aab565b60405180910390fd5b61119e60008383611742565b6001600360008473ffffffffffffffffffffffffffffffffffffffff1673ffffffffffffffffffffffffffffffffffffffff16815260200190815260200160002060008282546111ee919061299d565b92505081905550816002600083815260200190815260200160002060006101000a81548173ffffffffffffffffffffffffffffffffffffffff021916908373ffffffffffffffffffffffffffffffffffffffff160217905550808273ffffffffffffffffffffffffffffffffffffffff16600073ffffffffffffffffffffffffffffffffffffffff167fddf252ad1be2c89b69c2b068fc378daa952ba7f163c4a11628f55a4df523b3ef60405160405180910390a46112af60008383611752565b5050565b8173ffffffffffffffffffffffffffffffffffffffff168373ffffffffffffffffffffffffffffffffffffffff161415611322576040517f08c379a000000000000000000000000000000000000000000000000000000000815260040161131990612b17565b60405180910390fd5b80600560008573ffffffffffffffffffffffffffffffffffffffff1673ffffffffffffffffffffffffffffffffffffffff16815260200190815260200160002060008473ffffffffffffffffffffffffffffffffffffffff1673ffffffffffffffffffffffffffffffffffffffff16815260200190815260200160002060006101000a81548160ff0219169083151502179055508173ffffffffffffffffffffffffffffffffffffffff168373ffffffffffffffffffffffffffffffffffffffff167f17307eab39ab6107e8899845ad3d59bd9653f200f220920489ca2b5937696c31836040516114139190611e3f565b60405180910390a3505050565b61142b848484610e72565b61143784848484611757565b611476576040517f08c379a000000000000000000000000000000000000000000000000000000000815260040161146d90612ba9565b60405180910390fd5b50505050565b606060405180602001604052806000815250905090565b606060008214156114db576040518060400160405280600181526020017f300000000000000000000000000000000000000000000000000000000000000081525090506115ef565b600082905060005b6000821461150d5780806114f690612bc9565b915050600a826115069190612c41565b91506114e3565b60008167ffffffffffffffff81111561152957611528612160565b5b6040519080825280601f01601f19166020018201604052801561155b5781602001600182028036833780820191505090505b5090505b600085146115e8576001826115749190612753565b9150600a856115839190612c72565b603061158f919061299d565b60f81b8183815181106115a5576115a4612689565b5b60200101907effffffffffffffffffffffffffffffffffffffffffffffffffffffffffffff1916908160001a905350600a856115e19190612c41565b945061155f565b8093505050505b919050565b60007f80ac58cd000000000000000000000000000000000000000000000000000000007bffffffffffffffffffffffffffffffffffffffffffffffffffffffff1916827bffffffffffffffffffffffffffffffffffffffffffffffffffffffff191614806116bf57507f5b5e139f000000000000000000000000000000000000000000000000000000007bffffffffffffffffffffffffffffffffffffffffffffffffffffffff1916827bffffffffffffffffffffffffffffffffffffffffffffffffffffffff1916145b806116cf57506116ce826118df565b5b9050919050565b60008073ffffffffffffffffffffffffffffffffffffffff166002600084815260200190815260200160002060009054906101000a900473ffffffffffffffffffffffffffffffffffffffff1673ffffffffffffffffffffffffffffffffffffffff1614159050919050565b61174d838383611949565b505050565b505050565b60006117788473ffffffffffffffffffffffffffffffffffffffff16611a5d565b156118d2578373ffffffffffffffffffffffffffffffffffffffff1663150b7a026117a1610d1c565b8786866040518563ffffffff1660e01b81526004016117c39493929190612cf8565b6020604051808303816000875af19250505080156117ff57506040513d601f19601f820116820180604052508101906117fc9190612d59565b60015b611882573d806000811461182f576040519150601f19603f3d011682016040523d82523d6000602084013e611834565b606091505b5060008151141561187a576040517f08c379a000000000000000000000000000000000000000000000000000000000815260040161187190612ba9565b60405180910390fd5b805181602001fd5b63150b7a0260e01b7bffffffffffffffffffffffffffffffffffffffffffffffffffffffff1916817bffffffffffffffffffffffffffffffffffffffffffffffffffffffff1916149150506118d7565b600190505b949350505050565b60007f01ffc9a7000000000000000000000000000000000000000000000000000000007bffffffffffffffffffffffffffffffffffffffffffffffffffffffff1916827bffffffffffffffffffffffffffffffffffffffffffffffffffffffff1916149050919050565b611954838383611a80565b600073ffffffffffffffffffffffffffffffffffffffff168373ffffffffffffffffffffffffffffffffffffffff1614156119975761199281611a85565b6119d6565b8173ffffffffffffffffffffffffffffffffffffffff168373ffffffffffffffffffffffffffffffffffffffff16146119d5576119d48382611ace565b5b5b600073ffffffffffffffffffffffffffffffffffffffff168273ffffffffffffffffffffffffffffffffffffffff161415611a1957611a1481611c3b565b611a58565b8273ffffffffffffffffffffffffffffffffffffffff168273ffffffffffffffffffffffffffffffffffffffff1614611a5757611a568282611d0c565b5b5b505050565b6000808273ffffffffffffffffffffffffffffffffffffffff163b119050919050565b505050565b6008805490506009600083815260200190815260200160002081905550600881908060018154018082558091505060019003906000526020600020016000909190919091505550565b60006001611adb8461095a565b611ae59190612753565b9050600060076000848152602001908152602001600020549050818114611bca576000600660008673ffffffffffffffffffffffffffffffffffffffff1673ffffffffffffffffffffffffffffffffffffffff168152602001908152602001600020600084815260200190815260200160002054905080600660008773ffffffffffffffffffffffffffffffffffffffff1673ffffffffffffffffffffffffffffffffffffffff168152602001908152602001600020600084815260200190815260200160002081905550816007600083815260200190815260200160002081905550505b6007600084815260200190815260200160002060009055600660008573ffffffffffffffffffffffffffffffffffffffff1673ffffffffffffffffffffffffffffffffffffffff16815260200190815260200160002060008381526020019081526020016000206000905550505050565b60006001600880549050611c4f9190612753565b9050600060096000848152602001908152602001600020549050600060088381548110611c7f57611c7e612689565b5b906000526020600020015490508060088381548110611ca157611ca0612689565b5b906000526020600020018190555081600960008381526020019081526020016000208190555060096000858152602001908152602001600020600090556008805480611cf057611cef612d86565b5b6001900381819060005260206000200160009055905550505050565b6000611d178361095a565b905081600660008573ffffffffffffffffffffffffffffffffffffffff1673ffffffffffffffffffffffffffffffffffffffff168152602001908152602001600020600083815260200190815260200160002081905550806007600084815260200190815260200160002081905550505050565b6000604051905090565b600080fd5b600080fd5b60007fffffffff0000000000000000000000000000000000000000000000000000000082169050919050565b611dd481611d9f565b8114611ddf57600080fd5b50565b600081359050611df181611dcb565b92915050565b600060208284031215611e0d57611e0c611d95565b5b6000611e1b84828501611de2565b91505092915050565b60008115159050919050565b611e3981611e24565b82525050565b6000602082019050611e546000830184611e30565b92915050565b600081519050919050565b600082825260208201905092915050565b60005b83811015611e94578082015181840152602081019050611e79565b83811115611ea3576000848401525b50505050565b6000601f19601f8301169050919050565b6000611ec582611e5a565b611ecf8185611e65565b9350611edf818560208601611e76565b611ee881611ea9565b840191505092915050565b60006020820190508181036000830152611f0d8184611eba565b905092915050565b6000819050919050565b611f2881611f15565b8114611f3357600080fd5b50565b600081359050611f4581611f1f565b92915050565b600060208284031215611f6157611f60611d95565b5b6000611f6f84828501611f36565b91505092915050565b600073ffffffffffffffffffffffffffffffffffffffff82169050919050565b6000611fa382611f78565b9050919050565b611fb381611f98565b82525050565b6000602082019050611fce6000830184611faa565b92915050565b611fdd81611f98565b8114611fe857600080fd5b50565b600081359050611ffa81611fd4565b92915050565b6000806040838503121561201757612016611d95565b5b600061202585828601611feb565b925050602061203685828601611f36565b9150509250929050565b61204981611f15565b82525050565b60006020820190506120646000830184612040565b92915050565b60008060006060848603121561208357612082611d95565b5b600061209186828701611feb565b93505060206120a286828701611feb565b92505060406120b386828701611f36565b9150509250925092565b6000602082840312156120d3576120d2611d95565b5b60006120e184828501611feb565b91505092915050565b6120f381611e24565b81146120fe57600080fd5b50565b600081359050612110816120ea565b92915050565b6000806040838503121561212d5761212c611d95565b5b600061213b85828601611feb565b925050602061214c85828601612101565b9150509250929050565b600080fd5b600080fd5b7f4e487b7100000000000000000000000000000000000000000000000000000000600052604160045260246000fd5b61219882611ea9565b810181811067ffffffffffffffff821117156121b7576121b6612160565b5b80604052505050565b60006121ca611d8b565b90506121d6828261218f565b919050565b600067ffffffffffffffff8211156121f6576121f5612160565b5b6121ff82611ea9565b9050602081019050919050565b82818337600083830152505050565b600061222e612229846121db565b6121c0565b90508281526020810184848401111561224a5761224961215b565b5b61225584828561220c565b509392505050565b600082601f83011261227257612271612156565b5b813561228284826020860161221b565b91505092915050565b600080600080608085870312156122a5576122a4611d95565b5b60006122b387828801611feb565b94505060206122c487828801611feb565b93505060406122d587828801611f36565b925050606085013567ffffffffffffffff8111156122f6576122f5611d9a565b5b6123028782880161225d565b91505092959194509250565b6000806040838503121561232557612324611d95565b5b600061233385828601611feb565b925050602061234485828601611feb565b9150509250929050565b7f4e487b7100000000000000000000000000000000000000000000000000000000600052602260045260246000fd5b6000600282049050600182168061239557607f821691505b602082108114156123a9576123a861234e565b5b50919050565b7f4552433732313a20617070726f76616c20746f2063757272656e74206f776e6560008201527f7200000000000000000000000000000000000000000000000000000000000000602082015250565b600061240b602183611e65565b9150612416826123af565b604082019050919050565b6000602082019050818103600083015261243a816123fe565b9050919050565b7f4552433732313a20617070726f76652063616c6c6572206973206e6f7420746f60008201527f6b656e206f776e6572206e6f7220617070726f76656420666f7220616c6c0000602082015250565b600061249d603e83611e65565b91506124a882612441565b604082019050919050565b600060208201905081810360008301526124cc81612490565b9050919050565b7f4552433732313a2063616c6c6572206973206e6f7420746f6b656e206f776e6560008201527f72206e6f7220617070726f766564000000000000000000000000000000000000602082015250565b600061252f602e83611e65565b915061253a826124d3565b604082019050919050565b6000602082019050818103600083015261255e81612522565b9050919050565b7f455243373231456e756d657261626c653a206f776e657220696e646578206f7560008201527f74206f6620626f756e6473000000000000000000000000000000000000000000602082015250565b60006125c1602b83611e65565b91506125cc82612565565b604082019050919050565b600060208201905081810360008301526125f0816125b4565b9050919050565b7f455243373231456e756d657261626c653a20676c6f62616c20696e646578206f60008201527f7574206f6620626f756e64730000000000000000000000000000000000000000602082015250565b6000612653602c83611e65565b915061265e826125f7565b604082019050919050565b6000602082019050818103600083015261268281612646565b9050919050565b7f4e487b7100000000000000000000000000000000000000000000000000000000600052603260045260246000fd5b7f4552433732313a20696e76616c696420746f6b656e2049440000000000000000600082015250565b60006126ee601883611e65565b91506126f9826126b8565b602082019050919050565b6000602082019050818103600083015261271d816126e1565b9050919050565b7f4e487b7100000000000000000000000000000000000000000000000000000000600052601160045260246000fd5b600061275e82611f15565b915061276983611f15565b92508282101561277c5761277b612724565b5b828203905092915050565b7f4552433732313a2061646472657373207a65726f206973206e6f74206120766160008201527f6c6964206f776e65720000000000000000000000000000000000000000000000602082015250565b60006127e3602983611e65565b91506127ee82612787565b604082019050919050565b60006020820190508181036000830152612812816127d6565b9050919050565b600081905092915050565b600061282f82611e5a565b6128398185612819565b9350612849818560208601611e76565b80840191505092915050565b60006128618285612824565b915061286d8284612824565b91508190509392505050565b7f4552433732313a207472616e736665722066726f6d20696e636f72726563742060008201527f6f776e6572000000000000000000000000000000000000000000000000000000602082015250565b60006128d5602583611e65565b91506128e082612879565b604082019050919050565b60006020820190508181036000830152612904816128c8565b9050919050565b7f4552433732313a207472616e7366657220746f20746865207a65726f2061646460008201527f7265737300000000000000000000000000000000000000000000000000000000602082015250565b6000612967602483611e65565b91506129728261290b565b604082019050919050565b600060208201905081810360008301526129968161295a565b9050919050565b60006129a882611f15565b91506129b383611f15565b9250827fffffffffffffffffffffffffffffffffffffffffffffffffffffffffffffffff038211156129e8576129e7612724565b5b828201905092915050565b7f4552433732313a206d696e7420746f20746865207a65726f2061646472657373600082015250565b6000612a29602083611e65565b9150612a34826129f3565b602082019050919050565b60006020820190508181036000830152612a5881612a1c565b9050919050565b7f4552433732313a20746f6b656e20616c7265616479206d696e74656400000000600082015250565b6000612a95601c83611e65565b9150612aa082612a5f565b602082019050919050565b60006020820190508181036000830152612ac481612a88565b9050919050565b7f4552433732313a20617070726f766520746f2063616c6c657200000000000000600082015250565b6000612b01601983611e65565b9150612b0c82612acb565b602082019050919050565b60006020820190508181036000830152612b3081612af4565b9050919050565b7f4552433732313a207472616e7366657220746f206e6f6e20455243373231526560008201527f63656976657220696d706c656d656e7465720000000000000000000000000000602082015250565b6000612b93603283611e65565b9150612b9e82612b37565b604082019050919050565b60006020820190508181036000830152612bc281612b86565b9050919050565b6000612bd482611f15565b91507fffffffffffffffffffffffffffffffffffffffffffffffffffffffffffffffff821415612c0757612c06612724565b5b600182019050919050565b7f4e487b7100000000000000000000000000000000000000000000000000000000600052601260045260246000fd5b6000612c4c82611f15565b9150612c5783611f15565b925082612c6757612c66612c12565b5b828204905092915050565b6000612c7d82611f15565b9150612c8883611f15565b925082612c9857612c97612c12565b5b828206905092915050565b600081519050919050565b600082825260208201905092915050565b6000612cca82612ca3565b612cd48185612cae565b9350612ce4818560208601611e76565b612ced81611ea9565b840191505092915050565b6000608082019050612d0d6000830187611faa565b612d1a6020830186611faa565b612d276040830185612040565b8181036060830152612d398184612cbf565b905095945050505050565b600081519050612d5381611dcb565b92915050565b600060208284031215612d6f57612d6e611d95565b5b6000612d7d84828501612d44565b91505092915050565b7f4e487b7100000000000000000000000000000000000000000000000000000000600052603160045260246000fdfea26469706673582212203832fca8ef95e67b3fe2971fa3c26bf1e484c411b1e0f339d075b3bd94cfe79464736f6c634300080a0033",
  "immutableReferences": {},
  "source": "pragma solidity ^0.8.7;\r\n\r\nimport \"./Voters.sol\";\r\n\r\ncontract Elections {\r\n    //This will be stored eventually in a public mapping, so one can verify if one voted or not, but not know who is that one.\r\n\r\n    Voters private _votersContract;\r\n\r\n    struct voter {\r\n        uint256 voterNumber;\r\n        bool voted;\r\n    }\r\n\r\n    struct Candidate {\r\n        uint256 candidateCount;\r\n        string firstName;\r\n        string lastName;\r\n        uint256 voteCount;\r\n        string politicalView;\r\n    }\r\n\r\n    uint256 public totalVoter = 0; //Number of Voters added to the system\r\n    uint256 public totalVotesCount = 0; //Number of voters that actually came to vote\r\n    address public ballotOfficialAddress;\r\n    string public ballotOfficialName;\r\n    uint256 public candidateCount;\r\n    mapping(uint256 => Candidate) public candidates;\r\n    mapping(address => voter) public voterRegister; //Public mapping of voters, with their wallet address only.\r\n    enum State {\r\n        Created,\r\n        Voting,\r\n        Ended\r\n    }\r\n    State public state;\r\n\r\n    //creates a new ballot/elections contract\r\n    constructor() public {\r\n        ballotOfficialAddress = msg.sender; //Sets the wallet address of the contract's creator as \"admin\".\r\n        ballotOfficialName = \"Israel Elections 2022\"; //ballotOfficialName - '' for example\r\n        state = State.Created;\r\n        _votersContract = new Voters();\r\n    }\r\n\r\n    modifier condition(bool _condition) {\r\n        require(_condition);\r\n        _;\r\n    }\r\n\r\n    modifier onlyOfficial() {\r\n        require(msg.sender == ballotOfficialAddress);\r\n        _;\r\n    }\r\n\r\n    modifier inState(State _state) {\r\n        require(state == _state);\r\n        _;\r\n    }\r\n\r\n    event voterAdded(address voter);\r\n    event voteStarted();\r\n    event voteEnded(uint256 totalVotesCount);\r\n    event voteDone(address voter);\r\n\r\n    //Creates a candidate for the elections. Call addCandidate to add it to the mapping.\r\n    //(id, firstName, lastName, politicalView)\r\n    function createCandidate(\r\n        string memory _firstName,\r\n        string memory _lastName,\r\n        string memory _politicalView\r\n    ) public inState(State.Created) onlyOfficial {\r\n        addCandidate(_firstName, _lastName, _politicalView);\r\n    }\r\n\r\n    //Adds a candidate to the elections.\r\n    //(CandidateCount, id, firstName, lastName, voteCount, politicalView)\r\n    function addCandidate(\r\n        string memory _firstName,\r\n        string memory _lastName,\r\n        string memory _politicalView\r\n    ) private {\r\n        candidates[candidateCount] = Candidate(\r\n            candidateCount,\r\n            _firstName,\r\n            _lastName,\r\n            0,\r\n            _politicalView\r\n        );\r\n        candidateCount++;\r\n    }\r\n\r\n    //Returns candidate struct by its candidateCount value\r\n    //(CandidateCount, id, firstName, lastName, voteCount, politicalView)\r\n    function getCandidateByCount(uint256 _candidateCount)\r\n        public\r\n        view\r\n        returns (Candidate memory)\r\n    {\r\n        return candidates[_candidateCount];\r\n    }\r\n\r\n    //Returns uint candidate vote count by its candidateCount value.\r\n    function getCandidateVoteCount(uint256 _candidateCount)\r\n        public\r\n        view\r\n        returns (uint256)\r\n    {\r\n        return candidates[_candidateCount].voteCount;\r\n    }\r\n\r\n    //Returns voter struct by voter address\r\n    function getVoterStructByAddress(address _voterAddress)\r\n        public\r\n        view\r\n        returns (voter memory)\r\n    {\r\n        return voterRegister[_voterAddress];\r\n    }\r\n\r\n    //Returns bool if a voter voted or not by voter address\r\n    function getVoterVotedByAddress(address _voterAddress)\r\n        public\r\n        view\r\n        returns (bool)\r\n    {\r\n        return voterRegister[_voterAddress].voted;\r\n    }\r\n\r\n    //Returns uint voter number by voter address\r\n    function getVoterNumberByAddress(address _voterAddress)\r\n        public\r\n        view\r\n        returns (uint256)\r\n    {\r\n        return voterRegister[_voterAddress].voterNumber;\r\n    }\r\n\r\n    function getVoters() public view returns (uint256 supplyCount) {\r\n        return _votersContract.totalSupply();\r\n    }\r\n\r\n    function getOwnerOf(uint256 _id)\r\n        public\r\n        view\r\n        returns (address ownerAddress)\r\n    {\r\n        return _votersContract.ownerOf(_id);\r\n    }\r\n\r\n    //add voter\r\n    function addVoter(\r\n        address _voterAddress /*, string memory _voterName*/\r\n    ) public inState(State.Created) onlyOfficial {\r\n        _votersContract.mint(_voterAddress);\r\n        voter memory v;\r\n        totalVoter++;\r\n        v.voted = false;\r\n        v.voterNumber = totalVoter;\r\n        voterRegister[_voterAddress] = v;\r\n        emit voterAdded(_voterAddress);\r\n    }\r\n\r\n    //declare voting starts now\r\n    function startVote() public inState(State.Created) onlyOfficial {\r\n        state = State.Voting;\r\n        emit voteStarted();\r\n    }\r\n\r\n    //voters vote by indicating their choice (true/false)\r\n    function voteNow(uint256 _candidateid)\r\n        public\r\n        inState(State.Voting)\r\n        returns (bool voted)\r\n    {\r\n        bool found = false;\r\n        require(_candidateid > 0 && _candidateid <= candidateCount);\r\n        if (\r\n            voterRegister[msg.sender].voterNumber > 0 &&\r\n            !voterRegister[msg.sender].voted\r\n        ) {\r\n            voterRegister[msg.sender].voted = true;\r\n            candidates[_candidateid].voteCount++;\r\n            totalVotesCount++; //Number of total voters in the elections\r\n            found = true;\r\n        }\r\n        emit voteDone(msg.sender);\r\n        return found;\r\n    }\r\n\r\n    //end votes\r\n    function endVote() public inState(State.Voting) onlyOfficial {\r\n        state = State.Ended;\r\n        emit voteEnded(totalVotesCount);\r\n    }\r\n}\r\n",
  "sourcePath": "C:\\Users\\Alex\\Desktop\\election\\contracts\\Ballot.sol",
  "compiler": {
    "name": "solc",
    "version": "0.8.10+commit.fc410830.Emscripten.clang"
  },
  "schemaVersion": "3.4.4",
  "updatedAt": "2022-07-29T12:04:11.786Z",
  "networkType": "ethereum",
  "devdoc": {
    "kind": "dev",
    "methods": {},
    "version": 1
  },
  "userdoc": {
    "kind": "user",
    "methods": {},
    "version": 1
  }
}