{
  "contractName": "Elections",
  "abi": [
    {
      "inputs": [],
      "stateMutability": "nonpayable",
      "type": "constructor"
    },
    {
      "anonymous": false,
      "inputs": [
        {
          "indexed": false,
          "internalType": "address",
          "name": "voter",
          "type": "address"
        }
      ],
      "name": "voteDone",
      "type": "event"
    },
    {
      "anonymous": false,
      "inputs": [
        {
          "indexed": false,
          "internalType": "uint256",
          "name": "totalVotesCount",
          "type": "uint256"
        }
      ],
      "name": "voteEnded",
      "type": "event"
    },
    {
      "anonymous": false,
      "inputs": [],
      "name": "voteStarted",
      "type": "event"
    },
    {
      "anonymous": false,
      "inputs": [
        {
          "indexed": false,
          "internalType": "address",
          "name": "voter",
          "type": "address"
        }
      ],
      "name": "voterAdded",
      "type": "event"
    },
    {
      "inputs": [],
      "name": "ballotOfficialAddress",
      "outputs": [
        {
          "internalType": "address",
          "name": "",
          "type": "address"
        }
      ],
      "stateMutability": "view",
      "type": "function",
      "constant": true
    },
    {
      "inputs": [],
      "name": "ballotOfficialName",
      "outputs": [
        {
          "internalType": "string",
          "name": "",
          "type": "string"
        }
      ],
      "stateMutability": "view",
      "type": "function",
      "constant": true
    },
    {
      "inputs": [],
      "name": "candidateCount",
      "outputs": [
        {
          "internalType": "uint256",
          "name": "",
          "type": "uint256"
        }
      ],
      "stateMutability": "view",
      "type": "function",
      "constant": true
    },
    {
      "inputs": [
        {
          "internalType": "uint256",
          "name": "",
          "type": "uint256"
        }
      ],
      "name": "candidates",
      "outputs": [
        {
          "internalType": "uint256",
          "name": "candidateCount",
          "type": "uint256"
        },
        {
          "internalType": "string",
          "name": "firstName",
          "type": "string"
        },
        {
          "internalType": "string",
          "name": "lastName",
          "type": "string"
        },
        {
          "internalType": "uint256",
          "name": "voteCount",
          "type": "uint256"
        },
        {
          "internalType": "string",
          "name": "politicalView",
          "type": "string"
        }
      ],
      "stateMutability": "view",
      "type": "function",
      "constant": true
    },
    {
      "inputs": [],
      "name": "totalVoter",
      "outputs": [
        {
          "internalType": "uint256",
          "name": "",
          "type": "uint256"
        }
      ],
      "stateMutability": "view",
      "type": "function",
      "constant": true
    },
    {
      "inputs": [],
      "name": "totalVotesCount",
      "outputs": [
        {
          "internalType": "uint256",
          "name": "",
          "type": "uint256"
        }
      ],
      "stateMutability": "view",
      "type": "function",
      "constant": true
    },
    {
      "inputs": [
        {
          "internalType": "address",
          "name": "",
          "type": "address"
        }
      ],
      "name": "voterRegister",
      "outputs": [
        {
          "internalType": "uint256",
          "name": "voterNumber",
          "type": "uint256"
        },
        {
          "internalType": "bool",
          "name": "exists",
          "type": "bool"
        },
        {
          "internalType": "bool",
          "name": "voted",
          "type": "bool"
        }
      ],
      "stateMutability": "view",
      "type": "function",
      "constant": true
    },
    {
      "inputs": [],
      "name": "votingDateTime",
      "outputs": [
        {
          "internalType": "uint256",
          "name": "startDateTicks",
          "type": "uint256"
        },
        {
          "internalType": "uint256",
          "name": "endDateTicks",
          "type": "uint256"
        }
      ],
      "stateMutability": "view",
      "type": "function",
      "constant": true
    },
    {
      "inputs": [],
      "name": "getIsAllVotersCounted",
      "outputs": [
        {
          "internalType": "bool",
          "name": "allVoted",
          "type": "bool"
        }
      ],
      "stateMutability": "view",
      "type": "function",
      "constant": true
    },
    {
      "inputs": [
        {
          "internalType": "address",
          "name": "_address",
          "type": "address"
        }
      ],
      "name": "getBalanceOf",
      "outputs": [
        {
          "internalType": "uint256",
          "name": "balance",
          "type": "uint256"
        }
      ],
      "stateMutability": "view",
      "type": "function",
      "constant": true
    },
    {
      "inputs": [
        {
          "internalType": "uint256",
          "name": "_startDateTicks",
          "type": "uint256"
        },
        {
          "internalType": "uint256",
          "name": "_endDateTicks",
          "type": "uint256"
        }
      ],
      "name": "setVotingDate",
      "outputs": [],
      "stateMutability": "nonpayable",
      "type": "function"
    },
    {
      "inputs": [],
      "name": "getVotingDate",
      "outputs": [
        {
          "components": [
            {
              "internalType": "uint256",
              "name": "startDateTicks",
              "type": "uint256"
            },
            {
              "internalType": "uint256",
              "name": "endDateTicks",
              "type": "uint256"
            }
          ],
          "internalType": "struct Elections.VotingDateTime",
          "name": "",
          "type": "tuple"
        }
      ],
      "stateMutability": "view",
      "type": "function",
      "constant": true
    },
    {
      "inputs": [
        {
          "internalType": "string",
          "name": "_firstName",
          "type": "string"
        },
        {
          "internalType": "string",
          "name": "_lastName",
          "type": "string"
        },
        {
          "internalType": "string",
          "name": "_politicalView",
          "type": "string"
        }
      ],
      "name": "createCandidate",
      "outputs": [],
      "stateMutability": "nonpayable",
      "type": "function"
    },
    {
      "inputs": [
        {
          "internalType": "uint256",
          "name": "_candidateCount",
          "type": "uint256"
        }
      ],
      "name": "getCandidateByCount",
      "outputs": [
        {
          "components": [
            {
              "internalType": "uint256",
              "name": "candidateCount",
              "type": "uint256"
            },
            {
              "internalType": "string",
              "name": "firstName",
              "type": "string"
            },
            {
              "internalType": "string",
              "name": "lastName",
              "type": "string"
            },
            {
              "internalType": "uint256",
              "name": "voteCount",
              "type": "uint256"
            },
            {
              "internalType": "string",
              "name": "politicalView",
              "type": "string"
            }
          ],
          "internalType": "struct Elections.Candidate",
          "name": "",
          "type": "tuple"
        }
      ],
      "stateMutability": "view",
      "type": "function",
      "constant": true
    },
    {
      "inputs": [
        {
          "internalType": "uint256",
          "name": "_candidateCount",
          "type": "uint256"
        }
      ],
      "name": "getCandidateVoteCount",
      "outputs": [
        {
          "internalType": "uint256",
          "name": "",
          "type": "uint256"
        }
      ],
      "stateMutability": "view",
      "type": "function",
      "constant": true
    },
    {
      "inputs": [
        {
          "internalType": "address",
          "name": "_voterAddress",
          "type": "address"
        }
      ],
      "name": "getVoterStructByAddress",
      "outputs": [
        {
          "components": [
            {
              "internalType": "uint256",
              "name": "voterNumber",
              "type": "uint256"
            },
            {
              "internalType": "bool",
              "name": "exists",
              "type": "bool"
            },
            {
              "internalType": "bool",
              "name": "voted",
              "type": "bool"
            }
          ],
          "internalType": "struct Elections.voter",
          "name": "",
          "type": "tuple"
        }
      ],
      "stateMutability": "view",
      "type": "function",
      "constant": true
    },
    {
      "inputs": [
        {
          "internalType": "address",
          "name": "_voterAddress",
          "type": "address"
        }
      ],
      "name": "getVoterVotedByAddress",
      "outputs": [
        {
          "internalType": "bool",
          "name": "",
          "type": "bool"
        }
      ],
      "stateMutability": "view",
      "type": "function",
      "constant": true
    },
    {
      "inputs": [
        {
          "internalType": "address",
          "name": "_voterAddress",
          "type": "address"
        }
      ],
      "name": "getVoterNumberByAddress",
      "outputs": [
        {
          "internalType": "uint256",
          "name": "",
          "type": "uint256"
        }
      ],
      "stateMutability": "view",
      "type": "function",
      "constant": true
    },
    {
      "inputs": [],
      "name": "getVoters",
      "outputs": [
        {
          "internalType": "uint256",
          "name": "supplyCount",
          "type": "uint256"
        }
      ],
      "stateMutability": "view",
      "type": "function",
      "constant": true
    },
    {
      "inputs": [
        {
          "internalType": "uint256",
          "name": "_id",
          "type": "uint256"
        }
      ],
      "name": "getOwnerOf",
      "outputs": [
        {
          "internalType": "address",
          "name": "ownerAddress",
          "type": "address"
        }
      ],
      "stateMutability": "view",
      "type": "function",
      "constant": true
    },
    {
      "inputs": [
        {
          "internalType": "address",
          "name": "_voterAddress",
          "type": "address"
        }
      ],
      "name": "addVoter",
      "outputs": [],
      "stateMutability": "nonpayable",
      "type": "function"
    },
    {
      "inputs": [
        {
          "internalType": "uint256",
          "name": "_candidateid",
          "type": "uint256"
        },
        {
          "internalType": "uint256",
          "name": "_curentTicksTime",
          "type": "uint256"
        }
      ],
      "name": "voteNow",
      "outputs": [
        {
          "internalType": "bool",
          "name": "voted",
          "type": "bool"
        }
      ],
      "stateMutability": "nonpayable",
      "type": "function"
    }
  ],
  "bytecode": "0x6080604052600060045560006005553480156200001b57600080fd5b5033600660006101000a81548173ffffffffffffffffffffffffffffffffffffffff021916908373ffffffffffffffffffffffffffffffffffffffff1602179055506040518060400160405280601581526020017f49737261656c20456c656374696f6e732032303232000000000000000000000081525060079080519060200190620000aa92919062000188565b50604051620000b99062000219565b604051809103906000f080158015620000d6573d6000803e3d6000fd5b506000806101000a81548173ffffffffffffffffffffffffffffffffffffffff021916908373ffffffffffffffffffffffffffffffffffffffff160217905550604051620001249062000227565b604051809103906000f08015801562000141573d6000803e3d6000fd5b50600160006101000a81548173ffffffffffffffffffffffffffffffffffffffff021916908373ffffffffffffffffffffffffffffffffffffffff160217905550620002b9565b828054620001969062000283565b90600052602060002090601f016020900481019282620001ba576000855562000206565b82601f10620001d557805160ff191683800117855562000206565b8280016001018555821562000206579182015b8281111562000205578251825591602001919060010190620001e8565b5b50905062000215919062000235565b5090565b612fc88062001f5483390190565b611eea8062004f1c83390190565b5b808211156200025057600081600090555060010162000236565b5090565b7f4e487b7100000000000000000000000000000000000000000000000000000000600052602260045260246000fd5b600060028204905060018216806200029c57607f821691505b60208210811415620002b357620002b262000254565b5b50919050565b611c8b80620002c96000396000f3fe608060405234801561001057600080fd5b50600436106101425760003560e01c806390949747116100b8578063b315c5971161007c578063b315c597146103cc578063cdd72253146103fc578063dd91cf3f1461041a578063de975d1814610438578063f396d67414610456578063f4ab9adf1461047457610142565b806390949747146102fe5780639b96eece1461031c578063a9a981a31461034c578063ac092c6b1461036a578063af1540871461039a57610142565b8063443175941161010a57806344317594146102275780636332abc9146102435780636fe7be4014610261578063769e93a31461027f5780637a93105f1461029e57806383638710146102ce57610142565b80630b95bea2146101475780631410c93314610177578063150a9884146101a75780631d823d32146101d75780633477ee2e146101f3575b600080fd5b610161600480360381019061015c919061141c565b610490565b60405161016e91906114bf565b60405180910390f35b610191600480360381019061018c919061141c565b610529565b60405161019e91906114e9565b60405180910390f35b6101c160048036038101906101bc9190611530565b610575565b6040516101ce919061157f565b60405180910390f35b6101f160048036038101906101ec91906116e0565b61076c565b005b61020d60048036038101906102089190611787565b6107d6565b60405161021e95949392919061183c565b60405180910390f35b610241600480360381019061023c9190611530565b6109a4565b005b61024b610a30565b60405161025891906114e9565b60405180910390f35b610269610a36565b604051610276919061157f565b60405180910390f35b610287610a44565b6040516102959291906118a4565b60405180910390f35b6102b860048036038101906102b3919061141c565b610a56565b6040516102c5919061157f565b60405180910390f35b6102e860048036038101906102e39190611787565b610aaf565b6040516102f591906118dc565b60405180910390f35b610306610b53565b60405161031391906118dc565b60405180910390f35b6103366004803603810190610331919061141c565b610b79565b60405161034391906114e9565b60405180910390f35b610354610c1e565b60405161036191906114e9565b60405180910390f35b610384600480360381019061037f9190611787565b610c24565b60405161039191906119c5565b60405180910390f35b6103b460048036038101906103af919061141c565b610e1b565b6040516103c3939291906119e7565b60405180910390f35b6103e660048036038101906103e19190611787565b610e5f565b6040516103f391906114e9565b60405180910390f35b610404610e7f565b60405161041191906114e9565b60405180910390f35b610422610f16565b60405161042f9190611a4d565b60405180910390f35b610440610f44565b60405161044d9190611a68565b60405180910390f35b61045e610fd2565b60405161046b91906114e9565b60405180910390f35b61048e6004803603810190610489919061141c565b610fd8565b005b610498611299565b600a60008373ffffffffffffffffffffffffffffffffffffffff1673ffffffffffffffffffffffffffffffffffffffff168152602001908152602001600020604051806060016040529081600082015481526020016001820160009054906101000a900460ff161515151581526020016001820160019054906101000a900460ff1615151515815250509050919050565b6000600a60008373ffffffffffffffffffffffffffffffffffffffff1673ffffffffffffffffffffffffffffffffffffffff168152602001908152602001600020600001549050919050565b600081600260000154811015801561059257506002600101548111155b61059b57600080fd5b6000600a60003373ffffffffffffffffffffffffffffffffffffffff1673ffffffffffffffffffffffffffffffffffffffff16815260200190815260200160002060010160019054906101000a900460ff16156105f757600080fd5b6001600a60003373ffffffffffffffffffffffffffffffffffffffff1673ffffffffffffffffffffffffffffffffffffffff16815260200190815260200160002060010160016101000a81548160ff02191690831515021790555060096000868152602001908152602001600020600301600081548092919061067990611ab9565b91905055506005600081548092919061069190611ab9565b919050555060019050600160009054906101000a900473ffffffffffffffffffffffffffffffffffffffff1673ffffffffffffffffffffffffffffffffffffffff1663bec3fa173360646040518363ffffffff1660e01b81526004016106f8929190611b47565b600060405180830381600087803b15801561071257600080fd5b505af1158015610726573d6000803e3d6000fd5b505050507f55c65cf9526efdf6c2252fe9757889dbd93e10172cad0f2edb1df619c88dbf7d3360405161075991906118dc565b60405180910390a1809250505092915050565b600660009054906101000a900473ffffffffffffffffffffffffffffffffffffffff1673ffffffffffffffffffffffffffffffffffffffff163373ffffffffffffffffffffffffffffffffffffffff16146107c657600080fd5b6107d18383836111cf565b505050565b60096020528060005260406000206000915090508060000154908060010180546107ff90611b9f565b80601f016020809104026020016040519081016040528092919081815260200182805461082b90611b9f565b80156108785780601f1061084d57610100808354040283529160200191610878565b820191906000526020600020905b81548152906001019060200180831161085b57829003601f168201915b50505050509080600201805461088d90611b9f565b80601f01602080910402602001604051908101604052809291908181526020018280546108b990611b9f565b80156109065780601f106108db57610100808354040283529160200191610906565b820191906000526020600020905b8154815290600101906020018083116108e957829003601f168201915b50505050509080600301549080600401805461092190611b9f565b80601f016020809104026020016040519081016040528092919081815260200182805461094d90611b9f565b801561099a5780601f1061096f5761010080835404028352916020019161099a565b820191906000526020600020905b81548152906001019060200180831161097d57829003601f168201915b5050505050905085565b600660009054906101000a900473ffffffffffffffffffffffffffffffffffffffff1673ffffffffffffffffffffffffffffffffffffffff163373ffffffffffffffffffffffffffffffffffffffff16146109fe57600080fd5b604051806040016040528083815260200182815250600260008201518160000155602082015181600101559050505050565b60045481565b600060045460055414905090565b60028060000154908060010154905082565b6000600a60008373ffffffffffffffffffffffffffffffffffffffff1673ffffffffffffffffffffffffffffffffffffffff16815260200190815260200160002060010160019054906101000a900460ff169050919050565b60008060009054906101000a900473ffffffffffffffffffffffffffffffffffffffff1673ffffffffffffffffffffffffffffffffffffffff16636352211e836040518263ffffffff1660e01b8152600401610b0b91906114e9565b602060405180830381865afa158015610b28573d6000803e3d6000fd5b505050506040513d601f19601f82011682018060405250810190610b4c9190611be6565b9050919050565b600660009054906101000a900473ffffffffffffffffffffffffffffffffffffffff1681565b6000600160009054906101000a900473ffffffffffffffffffffffffffffffffffffffff1673ffffffffffffffffffffffffffffffffffffffff166370a08231836040518263ffffffff1660e01b8152600401610bd691906118dc565b602060405180830381865afa158015610bf3573d6000803e3d6000fd5b505050506040513d601f19601f82011682018060405250810190610c179190611c28565b9050919050565b60085481565b610c2c6112be565b600960008381526020019081526020016000206040518060a001604052908160008201548152602001600182018054610c6490611b9f565b80601f0160208091040260200160405190810160405280929190818152602001828054610c9090611b9f565b8015610cdd5780601f10610cb257610100808354040283529160200191610cdd565b820191906000526020600020905b815481529060010190602001808311610cc057829003601f168201915b50505050508152602001600282018054610cf690611b9f565b80601f0160208091040260200160405190810160405280929190818152602001828054610d2290611b9f565b8015610d6f5780601f10610d4457610100808354040283529160200191610d6f565b820191906000526020600020905b815481529060010190602001808311610d5257829003601f168201915b5050505050815260200160038201548152602001600482018054610d9290611b9f565b80601f0160208091040260200160405190810160405280929190818152602001828054610dbe90611b9f565b8015610e0b5780601f10610de057610100808354040283529160200191610e0b565b820191906000526020600020905b815481529060010190602001808311610dee57829003601f168201915b5050505050815250509050919050565b600a6020528060005260406000206000915090508060000154908060010160009054906101000a900460ff16908060010160019054906101000a900460ff16905083565b600060096000838152602001908152602001600020600301549050919050565b60008060009054906101000a900473ffffffffffffffffffffffffffffffffffffffff1673ffffffffffffffffffffffffffffffffffffffff166318160ddd6040518163ffffffff1660e01b8152600401602060405180830381865afa158015610eed573d6000803e3d6000fd5b505050506040513d601f19601f82011682018060405250810190610f119190611c28565b905090565b610f1e6112ed565b600260405180604001604052908160008201548152602001600182015481525050905090565b60078054610f5190611b9f565b80601f0160208091040260200160405190810160405280929190818152602001828054610f7d90611b9f565b8015610fca5780601f10610f9f57610100808354040283529160200191610fca565b820191906000526020600020905b815481529060010190602001808311610fad57829003601f168201915b505050505081565b60055481565b600660009054906101000a900473ffffffffffffffffffffffffffffffffffffffff1673ffffffffffffffffffffffffffffffffffffffff163373ffffffffffffffffffffffffffffffffffffffff161461103257600080fd5b60008054906101000a900473ffffffffffffffffffffffffffffffffffffffff1673ffffffffffffffffffffffffffffffffffffffff16636a627842826040518263ffffffff1660e01b815260040161108b91906118dc565b600060405180830381600087803b1580156110a557600080fd5b505af11580156110b9573d6000803e3d6000fd5b505050506110c5611299565b60018160200190151590811515815250506000816040019015159081151581525050600460008154809291906110fa90611ab9565b9190505581600001818152505080600a60008473ffffffffffffffffffffffffffffffffffffffff1673ffffffffffffffffffffffffffffffffffffffff1681526020019081526020016000206000820151816000015560208201518160010160006101000a81548160ff02191690831515021790555060408201518160010160016101000a81548160ff0219169083151502179055509050507fb9e5f9042e6c6eb94817f660cfa81afea9585e59d72bfc3348a2305cbd33e133826040516111c391906118dc565b60405180910390a15050565b6040518060a0016040528060085481526020018481526020018381526020016000815260200182815250600960006008548152602001908152602001600020600082015181600001556020820151816001019080519060200190611234929190611307565b506040820151816002019080519060200190611251929190611307565b50606082015181600301556080820151816004019080519060200190611278929190611307565b509050506008600081548092919061128f90611ab9565b9190505550505050565b6040518060600160405280600081526020016000151581526020016000151581525090565b6040518060a0016040528060008152602001606081526020016060815260200160008152602001606081525090565b604051806040016040528060008152602001600081525090565b82805461131390611b9f565b90600052602060002090601f016020900481019282611335576000855561137c565b82601f1061134e57805160ff191683800117855561137c565b8280016001018555821561137c579182015b8281111561137b578251825591602001919060010190611360565b5b509050611389919061138d565b5090565b5b808211156113a657600081600090555060010161138e565b5090565b6000604051905090565b600080fd5b600080fd5b600073ffffffffffffffffffffffffffffffffffffffff82169050919050565b60006113e9826113be565b9050919050565b6113f9816113de565b811461140457600080fd5b50565b600081359050611416816113f0565b92915050565b600060208284031215611432576114316113b4565b5b600061144084828501611407565b91505092915050565b6000819050919050565b61145c81611449565b82525050565b60008115159050919050565b61147781611462565b82525050565b6060820160008201516114936000850182611453565b5060208201516114a6602085018261146e565b5060408201516114b9604085018261146e565b50505050565b60006060820190506114d4600083018461147d565b92915050565b6114e381611449565b82525050565b60006020820190506114fe60008301846114da565b92915050565b61150d81611449565b811461151857600080fd5b50565b60008135905061152a81611504565b92915050565b60008060408385031215611547576115466113b4565b5b60006115558582860161151b565b92505060206115668582860161151b565b9150509250929050565b61157981611462565b82525050565b60006020820190506115946000830184611570565b92915050565b600080fd5b600080fd5b6000601f19601f8301169050919050565b7f4e487b7100000000000000000000000000000000000000000000000000000000600052604160045260246000fd5b6115ed826115a4565b810181811067ffffffffffffffff8211171561160c5761160b6115b5565b5b80604052505050565b600061161f6113aa565b905061162b82826115e4565b919050565b600067ffffffffffffffff82111561164b5761164a6115b5565b5b611654826115a4565b9050602081019050919050565b82818337600083830152505050565b600061168361167e84611630565b611615565b90508281526020810184848401111561169f5761169e61159f565b5b6116aa848285611661565b509392505050565b600082601f8301126116c7576116c661159a565b5b81356116d7848260208601611670565b91505092915050565b6000806000606084860312156116f9576116f86113b4565b5b600084013567ffffffffffffffff811115611717576117166113b9565b5b611723868287016116b2565b935050602084013567ffffffffffffffff811115611744576117436113b9565b5b611750868287016116b2565b925050604084013567ffffffffffffffff811115611771576117706113b9565b5b61177d868287016116b2565b9150509250925092565b60006020828403121561179d5761179c6113b4565b5b60006117ab8482850161151b565b91505092915050565b600081519050919050565b600082825260208201905092915050565b60005b838110156117ee5780820151818401526020810190506117d3565b838111156117fd576000848401525b50505050565b600061180e826117b4565b61181881856117bf565b93506118288185602086016117d0565b611831816115a4565b840191505092915050565b600060a08201905061185160008301886114da565b81810360208301526118638187611803565b905081810360408301526118778186611803565b905061188660608301856114da565b81810360808301526118988184611803565b90509695505050505050565b60006040820190506118b960008301856114da565b6118c660208301846114da565b9392505050565b6118d6816113de565b82525050565b60006020820190506118f160008301846118cd565b92915050565b600082825260208201905092915050565b6000611913826117b4565b61191d81856118f7565b935061192d8185602086016117d0565b611936816115a4565b840191505092915050565b600060a0830160008301516119596000860182611453565b50602083015184820360208601526119718282611908565b9150506040830151848203604086015261198b8282611908565b91505060608301516119a06060860182611453565b50608083015184820360808601526119b88282611908565b9150508091505092915050565b600060208201905081810360008301526119df8184611941565b905092915050565b60006060820190506119fc60008301866114da565b611a096020830185611570565b611a166040830184611570565b949350505050565b604082016000820151611a346000850182611453565b506020820151611a476020850182611453565b50505050565b6000604082019050611a626000830184611a1e565b92915050565b60006020820190508181036000830152611a828184611803565b905092915050565b7f4e487b7100000000000000000000000000000000000000000000000000000000600052601160045260246000fd5b6000611ac482611449565b91507fffffffffffffffffffffffffffffffffffffffffffffffffffffffffffffffff821415611af757611af6611a8a565b5b600182019050919050565b6000819050919050565b6000819050919050565b6000611b31611b2c611b2784611b02565b611b0c565b611449565b9050919050565b611b4181611b16565b82525050565b6000604082019050611b5c60008301856118cd565b611b696020830184611b38565b9392505050565b7f4e487b7100000000000000000000000000000000000000000000000000000000600052602260045260246000fd5b60006002820490506001821680611bb757607f821691505b60208210811415611bcb57611bca611b70565b5b50919050565b600081519050611be0816113f0565b92915050565b600060208284031215611bfc57611bfb6113b4565b5b6000611c0a84828501611bd1565b91505092915050565b600081519050611c2281611504565b92915050565b600060208284031215611c3e57611c3d6113b4565b5b6000611c4c84828501611c13565b9150509291505056fea2646970667358221220892e9cda13c63819b0593b13b231361cbffaba7fa590c8688b99f8783a0d763364736f6c634300080a003360806040523480156200001157600080fd5b506040518060400160405280600681526020017f566f7465727300000000000000000000000000000000000000000000000000008152506040518060400160405280600481526020017f564f544500000000000000000000000000000000000000000000000000000000815250816000908051906020019062000096929190620000b8565b508060019080519060200190620000af929190620000b8565b505050620001cd565b828054620000c69062000197565b90600052602060002090601f016020900481019282620000ea576000855562000136565b82601f106200010557805160ff191683800117855562000136565b8280016001018555821562000136579182015b828111156200013557825182559160200191906001019062000118565b5b50905062000145919062000149565b5090565b5b80821115620001645760008160009055506001016200014a565b5090565b7f4e487b7100000000000000000000000000000000000000000000000000000000600052602260045260246000fd5b60006002820490506001821680620001b057607f821691505b60208210811415620001c757620001c662000168565b5b50919050565b612deb80620001dd6000396000f3fe608060405234801561001057600080fd5b50600436106101165760003560e01c80636352211e116100a2578063a22cb46511610071578063a22cb46514610305578063b88d4fde14610321578063c87b56dd1461033d578063da58c7d91461036d578063e985e9c51461039d57610116565b80636352211e1461026b5780636a6278421461029b57806370a08231146102b757806395d89b41146102e757610116565b806318160ddd116100e957806318160ddd146101b557806323b872dd146101d35780632f745c59146101ef57806342842e0e1461021f5780634f6ccce71461023b57610116565b806301ffc9a71461011b57806306fdde031461014b578063081812fc14610169578063095ea7b314610199575b600080fd5b61013560048036038101906101309190611df7565b6103cd565b6040516101429190611e3f565b60405180910390f35b6101536103df565b6040516101609190611ef3565b60405180910390f35b610183600480360381019061017e9190611f4b565b610471565b6040516101909190611fb9565b60405180910390f35b6101b360048036038101906101ae9190612000565b6104b7565b005b6101bd6105cf565b6040516101ca919061204f565b60405180910390f35b6101ed60048036038101906101e8919061206a565b6105dc565b005b61020960048036038101906102049190612000565b61063c565b604051610216919061204f565b60405180910390f35b6102396004803603810190610234919061206a565b6106e1565b005b61025560048036038101906102509190611f4b565b610701565b604051610262919061204f565b60405180910390f35b61028560048036038101906102809190611f4b565b610772565b6040516102929190611fb9565b60405180910390f35b6102b560048036038101906102b091906120bd565b610824565b005b6102d160048036038101906102cc91906120bd565b61095a565b6040516102de919061204f565b60405180910390f35b6102ef610a12565b6040516102fc9190611ef3565b60405180910390f35b61031f600480360381019061031a9190612116565b610aa4565b005b61033b6004803603810190610336919061228b565b610aba565b005b61035760048036038101906103529190611f4b565b610b1c565b6040516103649190611ef3565b60405180910390f35b61038760048036038101906103829190611f4b565b610b84565b6040516103949190611fb9565b60405180910390f35b6103b760048036038101906103b2919061230e565b610bc3565b6040516103c49190611e3f565b60405180910390f35b60006103d882610c57565b9050919050565b6060600080546103ee9061237d565b80601f016020809104026020016040519081016040528092919081815260200182805461041a9061237d565b80156104675780601f1061043c57610100808354040283529160200191610467565b820191906000526020600020905b81548152906001019060200180831161044a57829003601f168201915b5050505050905090565b600061047c82610cd1565b6004600083815260200190815260200160002060009054906101000a900473ffffffffffffffffffffffffffffffffffffffff169050919050565b60006104c282610772565b90508073ffffffffffffffffffffffffffffffffffffffff168373ffffffffffffffffffffffffffffffffffffffff161415610533576040517f08c379a000000000000000000000000000000000000000000000000000000000815260040161052a90612421565b60405180910390fd5b8073ffffffffffffffffffffffffffffffffffffffff16610552610d1c565b73ffffffffffffffffffffffffffffffffffffffff16148061058157506105808161057b610d1c565b610bc3565b5b6105c0576040517f08c379a00000000000000000000000000000000000000000000000000000000081526004016105b7906124b3565b60405180910390fd5b6105ca8383610d24565b505050565b6000600880549050905090565b6105ed6105e7610d1c565b82610ddd565b61062c576040517f08c379a000000000000000000000000000000000000000000000000000000000815260040161062390612545565b60405180910390fd5b610637838383610e72565b505050565b60006106478361095a565b8210610688576040517f08c379a000000000000000000000000000000000000000000000000000000000815260040161067f906125d7565b60405180910390fd5b600660008473ffffffffffffffffffffffffffffffffffffffff1673ffffffffffffffffffffffffffffffffffffffff168152602001908152602001600020600083815260200190815260200160002054905092915050565b6106fc83838360405180602001604052806000815250610aba565b505050565b600061070b6105cf565b821061074c576040517f08c379a000000000000000000000000000000000000000000000000000000000815260040161074390612669565b60405180910390fd5b600882815481106107605761075f612689565b5b90600052602060002001549050919050565b6000806002600084815260200190815260200160002060009054906101000a900473ffffffffffffffffffffffffffffffffffffffff169050600073ffffffffffffffffffffffffffffffffffffffff168173ffffffffffffffffffffffffffffffffffffffff16141561081b576040517f08c379a000000000000000000000000000000000000000000000000000000000815260040161081290612704565b60405180910390fd5b80915050919050565b600b60008273ffffffffffffffffffffffffffffffffffffffff1673ffffffffffffffffffffffffffffffffffffffff16815260200190815260200160002060009054906101000a900460ff161561087b57600080fd5b600a819080600181540180825580915050600190039060005260206000200160009091909190916101000a81548173ffffffffffffffffffffffffffffffffffffffff021916908373ffffffffffffffffffffffffffffffffffffffff1602179055506001600b60008373ffffffffffffffffffffffffffffffffffffffff1673ffffffffffffffffffffffffffffffffffffffff16815260200190815260200160002060006101000a81548160ff02191690831515021790555060006001600a8054905061094a9190612753565b905061095682826110d9565b5050565b60008073ffffffffffffffffffffffffffffffffffffffff168273ffffffffffffffffffffffffffffffffffffffff1614156109cb576040517f08c379a00000000000000000000000000000000000000000000000000000000081526004016109c2906127f9565b60405180910390fd5b600360008373ffffffffffffffffffffffffffffffffffffffff1673ffffffffffffffffffffffffffffffffffffffff168152602001908152602001600020549050919050565b606060018054610a219061237d565b80601f0160208091040260200160405190810160405280929190818152602001828054610a4d9061237d565b8015610a9a5780601f10610a6f57610100808354040283529160200191610a9a565b820191906000526020600020905b815481529060010190602001808311610a7d57829003601f168201915b5050505050905090565b610ab6610aaf610d1c565b83836112b3565b5050565b610acb610ac5610d1c565b83610ddd565b610b0a576040517f08c379a0000000000000000000000000000000000000000000000000000000008152600401610b0190612545565b60405180910390fd5b610b1684848484611420565b50505050565b6060610b2782610cd1565b6000610b3161147c565b90506000815111610b515760405180602001604052806000815250610b7c565b80610b5b84611493565b604051602001610b6c929190612855565b6040516020818303038152906040525b915050919050565b600a8181548110610b9457600080fd5b906000526020600020016000915054906101000a900473ffffffffffffffffffffffffffffffffffffffff1681565b6000600560008473ffffffffffffffffffffffffffffffffffffffff1673ffffffffffffffffffffffffffffffffffffffff16815260200190815260200160002060008373ffffffffffffffffffffffffffffffffffffffff1673ffffffffffffffffffffffffffffffffffffffff16815260200190815260200160002060009054906101000a900460ff16905092915050565b60007f780e9d63000000000000000000000000000000000000000000000000000000007bffffffffffffffffffffffffffffffffffffffffffffffffffffffff1916827bffffffffffffffffffffffffffffffffffffffffffffffffffffffff19161480610cca5750610cc9826115f4565b5b9050919050565b610cda816116d6565b610d19576040517f08c379a0000000000000000000000000000000000000000000000000000000008152600401610d1090612704565b60405180910390fd5b50565b600033905090565b816004600083815260200190815260200160002060006101000a81548173ffffffffffffffffffffffffffffffffffffffff021916908373ffffffffffffffffffffffffffffffffffffffff160217905550808273ffffffffffffffffffffffffffffffffffffffff16610d9783610772565b73ffffffffffffffffffffffffffffffffffffffff167f8c5be1e5ebec7d5bd14f71427d1e84f3dd0314c0f7b2291e5b200ac8c7c3b92560405160405180910390a45050565b600080610de983610772565b90508073ffffffffffffffffffffffffffffffffffffffff168473ffffffffffffffffffffffffffffffffffffffff161480610e2b5750610e2a8185610bc3565b5b80610e6957508373ffffffffffffffffffffffffffffffffffffffff16610e5184610471565b73ffffffffffffffffffffffffffffffffffffffff16145b91505092915050565b8273ffffffffffffffffffffffffffffffffffffffff16610e9282610772565b73ffffffffffffffffffffffffffffffffffffffff1614610ee8576040517f08c379a0000000000000000000000000000000000000000000000000000000008152600401610edf906128eb565b60405180910390fd5b600073ffffffffffffffffffffffffffffffffffffffff168273ffffffffffffffffffffffffffffffffffffffff161415610f58576040517f08c379a0000000000000000000000000000000000000000000000000000000008152600401610f4f9061297d565b60405180910390fd5b610f63838383611742565b610f6e600082610d24565b6001600360008573ffffffffffffffffffffffffffffffffffffffff1673ffffffffffffffffffffffffffffffffffffffff1681526020019081526020016000206000828254610fbe9190612753565b925050819055506001600360008473ffffffffffffffffffffffffffffffffffffffff1673ffffffffffffffffffffffffffffffffffffffff1681526020019081526020016000206000828254611015919061299d565b92505081905550816002600083815260200190815260200160002060006101000a81548173ffffffffffffffffffffffffffffffffffffffff021916908373ffffffffffffffffffffffffffffffffffffffff160217905550808273ffffffffffffffffffffffffffffffffffffffff168473ffffffffffffffffffffffffffffffffffffffff167fddf252ad1be2c89b69c2b068fc378daa952ba7f163c4a11628f55a4df523b3ef60405160405180910390a46110d4838383611752565b505050565b600073ffffffffffffffffffffffffffffffffffffffff168273ffffffffffffffffffffffffffffffffffffffff161415611149576040517f08c379a000000000000000000000000000000000000000000000000000000000815260040161114090612a3f565b60405180910390fd5b611152816116d6565b15611192576040517f08c379a000000000000000000000000000000000000000000000000000000000815260040161118990612aab565b60405180910390fd5b61119e60008383611742565b6001600360008473ffffffffffffffffffffffffffffffffffffffff1673ffffffffffffffffffffffffffffffffffffffff16815260200190815260200160002060008282546111ee919061299d565b92505081905550816002600083815260200190815260200160002060006101000a81548173ffffffffffffffffffffffffffffffffffffffff021916908373ffffffffffffffffffffffffffffffffffffffff160217905550808273ffffffffffffffffffffffffffffffffffffffff16600073ffffffffffffffffffffffffffffffffffffffff167fddf252ad1be2c89b69c2b068fc378daa952ba7f163c4a11628f55a4df523b3ef60405160405180910390a46112af60008383611752565b5050565b8173ffffffffffffffffffffffffffffffffffffffff168373ffffffffffffffffffffffffffffffffffffffff161415611322576040517f08c379a000000000000000000000000000000000000000000000000000000000815260040161131990612b17565b60405180910390fd5b80600560008573ffffffffffffffffffffffffffffffffffffffff1673ffffffffffffffffffffffffffffffffffffffff16815260200190815260200160002060008473ffffffffffffffffffffffffffffffffffffffff1673ffffffffffffffffffffffffffffffffffffffff16815260200190815260200160002060006101000a81548160ff0219169083151502179055508173ffffffffffffffffffffffffffffffffffffffff168373ffffffffffffffffffffffffffffffffffffffff167f17307eab39ab6107e8899845ad3d59bd9653f200f220920489ca2b5937696c31836040516114139190611e3f565b60405180910390a3505050565b61142b848484610e72565b61143784848484611757565b611476576040517f08c379a000000000000000000000000000000000000000000000000000000000815260040161146d90612ba9565b60405180910390fd5b50505050565b606060405180602001604052806000815250905090565b606060008214156114db576040518060400160405280600181526020017f300000000000000000000000000000000000000000000000000000000000000081525090506115ef565b600082905060005b6000821461150d5780806114f690612bc9565b915050600a826115069190612c41565b91506114e3565b60008167ffffffffffffffff81111561152957611528612160565b5b6040519080825280601f01601f19166020018201604052801561155b5781602001600182028036833780820191505090505b5090505b600085146115e8576001826115749190612753565b9150600a856115839190612c72565b603061158f919061299d565b60f81b8183815181106115a5576115a4612689565b5b60200101907effffffffffffffffffffffffffffffffffffffffffffffffffffffffffffff1916908160001a905350600a856115e19190612c41565b945061155f565b8093505050505b919050565b60007f80ac58cd000000000000000000000000000000000000000000000000000000007bffffffffffffffffffffffffffffffffffffffffffffffffffffffff1916827bffffffffffffffffffffffffffffffffffffffffffffffffffffffff191614806116bf57507f5b5e139f000000000000000000000000000000000000000000000000000000007bffffffffffffffffffffffffffffffffffffffffffffffffffffffff1916827bffffffffffffffffffffffffffffffffffffffffffffffffffffffff1916145b806116cf57506116ce826118df565b5b9050919050565b60008073ffffffffffffffffffffffffffffffffffffffff166002600084815260200190815260200160002060009054906101000a900473ffffffffffffffffffffffffffffffffffffffff1673ffffffffffffffffffffffffffffffffffffffff1614159050919050565b61174d838383611949565b505050565b505050565b60006117788473ffffffffffffffffffffffffffffffffffffffff16611a5d565b156118d2578373ffffffffffffffffffffffffffffffffffffffff1663150b7a026117a1610d1c565b8786866040518563ffffffff1660e01b81526004016117c39493929190612cf8565b6020604051808303816000875af19250505080156117ff57506040513d601f19601f820116820180604052508101906117fc9190612d59565b60015b611882573d806000811461182f576040519150601f19603f3d011682016040523d82523d6000602084013e611834565b606091505b5060008151141561187a576040517f08c379a000000000000000000000000000000000000000000000000000000000815260040161187190612ba9565b60405180910390fd5b805181602001fd5b63150b7a0260e01b7bffffffffffffffffffffffffffffffffffffffffffffffffffffffff1916817bffffffffffffffffffffffffffffffffffffffffffffffffffffffff1916149150506118d7565b600190505b949350505050565b60007f01ffc9a7000000000000000000000000000000000000000000000000000000007bffffffffffffffffffffffffffffffffffffffffffffffffffffffff1916827bffffffffffffffffffffffffffffffffffffffffffffffffffffffff1916149050919050565b611954838383611a80565b600073ffffffffffffffffffffffffffffffffffffffff168373ffffffffffffffffffffffffffffffffffffffff1614156119975761199281611a85565b6119d6565b8173ffffffffffffffffffffffffffffffffffffffff168373ffffffffffffffffffffffffffffffffffffffff16146119d5576119d48382611ace565b5b5b600073ffffffffffffffffffffffffffffffffffffffff168273ffffffffffffffffffffffffffffffffffffffff161415611a1957611a1481611c3b565b611a58565b8273ffffffffffffffffffffffffffffffffffffffff168273ffffffffffffffffffffffffffffffffffffffff1614611a5757611a568282611d0c565b5b5b505050565b6000808273ffffffffffffffffffffffffffffffffffffffff163b119050919050565b505050565b6008805490506009600083815260200190815260200160002081905550600881908060018154018082558091505060019003906000526020600020016000909190919091505550565b60006001611adb8461095a565b611ae59190612753565b9050600060076000848152602001908152602001600020549050818114611bca576000600660008673ffffffffffffffffffffffffffffffffffffffff1673ffffffffffffffffffffffffffffffffffffffff168152602001908152602001600020600084815260200190815260200160002054905080600660008773ffffffffffffffffffffffffffffffffffffffff1673ffffffffffffffffffffffffffffffffffffffff168152602001908152602001600020600084815260200190815260200160002081905550816007600083815260200190815260200160002081905550505b6007600084815260200190815260200160002060009055600660008573ffffffffffffffffffffffffffffffffffffffff1673ffffffffffffffffffffffffffffffffffffffff16815260200190815260200160002060008381526020019081526020016000206000905550505050565b60006001600880549050611c4f9190612753565b9050600060096000848152602001908152602001600020549050600060088381548110611c7f57611c7e612689565b5b906000526020600020015490508060088381548110611ca157611ca0612689565b5b906000526020600020018190555081600960008381526020019081526020016000208190555060096000858152602001908152602001600020600090556008805480611cf057611cef612d86565b5b6001900381819060005260206000200160009055905550505050565b6000611d178361095a565b905081600660008573ffffffffffffffffffffffffffffffffffffffff1673ffffffffffffffffffffffffffffffffffffffff168152602001908152602001600020600083815260200190815260200160002081905550806007600084815260200190815260200160002081905550505050565b6000604051905090565b600080fd5b600080fd5b60007fffffffff0000000000000000000000000000000000000000000000000000000082169050919050565b611dd481611d9f565b8114611ddf57600080fd5b50565b600081359050611df181611dcb565b92915050565b600060208284031215611e0d57611e0c611d95565b5b6000611e1b84828501611de2565b91505092915050565b60008115159050919050565b611e3981611e24565b82525050565b6000602082019050611e546000830184611e30565b92915050565b600081519050919050565b600082825260208201905092915050565b60005b83811015611e94578082015181840152602081019050611e79565b83811115611ea3576000848401525b50505050565b6000601f19601f8301169050919050565b6000611ec582611e5a565b611ecf8185611e65565b9350611edf818560208601611e76565b611ee881611ea9565b840191505092915050565b60006020820190508181036000830152611f0d8184611eba565b905092915050565b6000819050919050565b611f2881611f15565b8114611f3357600080fd5b50565b600081359050611f4581611f1f565b92915050565b600060208284031215611f6157611f60611d95565b5b6000611f6f84828501611f36565b91505092915050565b600073ffffffffffffffffffffffffffffffffffffffff82169050919050565b6000611fa382611f78565b9050919050565b611fb381611f98565b82525050565b6000602082019050611fce6000830184611faa565b92915050565b611fdd81611f98565b8114611fe857600080fd5b50565b600081359050611ffa81611fd4565b92915050565b6000806040838503121561201757612016611d95565b5b600061202585828601611feb565b925050602061203685828601611f36565b9150509250929050565b61204981611f15565b82525050565b60006020820190506120646000830184612040565b92915050565b60008060006060848603121561208357612082611d95565b5b600061209186828701611feb565b93505060206120a286828701611feb565b92505060406120b386828701611f36565b9150509250925092565b6000602082840312156120d3576120d2611d95565b5b60006120e184828501611feb565b91505092915050565b6120f381611e24565b81146120fe57600080fd5b50565b600081359050612110816120ea565b92915050565b6000806040838503121561212d5761212c611d95565b5b600061213b85828601611feb565b925050602061214c85828601612101565b9150509250929050565b600080fd5b600080fd5b7f4e487b7100000000000000000000000000000000000000000000000000000000600052604160045260246000fd5b61219882611ea9565b810181811067ffffffffffffffff821117156121b7576121b6612160565b5b80604052505050565b60006121ca611d8b565b90506121d6828261218f565b919050565b600067ffffffffffffffff8211156121f6576121f5612160565b5b6121ff82611ea9565b9050602081019050919050565b82818337600083830152505050565b600061222e612229846121db565b6121c0565b90508281526020810184848401111561224a5761224961215b565b5b61225584828561220c565b509392505050565b600082601f83011261227257612271612156565b5b813561228284826020860161221b565b91505092915050565b600080600080608085870312156122a5576122a4611d95565b5b60006122b387828801611feb565b94505060206122c487828801611feb565b93505060406122d587828801611f36565b925050606085013567ffffffffffffffff8111156122f6576122f5611d9a565b5b6123028782880161225d565b91505092959194509250565b6000806040838503121561232557612324611d95565b5b600061233385828601611feb565b925050602061234485828601611feb565b9150509250929050565b7f4e487b7100000000000000000000000000000000000000000000000000000000600052602260045260246000fd5b6000600282049050600182168061239557607f821691505b602082108114156123a9576123a861234e565b5b50919050565b7f4552433732313a20617070726f76616c20746f2063757272656e74206f776e6560008201527f7200000000000000000000000000000000000000000000000000000000000000602082015250565b600061240b602183611e65565b9150612416826123af565b604082019050919050565b6000602082019050818103600083015261243a816123fe565b9050919050565b7f4552433732313a20617070726f76652063616c6c6572206973206e6f7420746f60008201527f6b656e206f776e6572206e6f7220617070726f76656420666f7220616c6c0000602082015250565b600061249d603e83611e65565b91506124a882612441565b604082019050919050565b600060208201905081810360008301526124cc81612490565b9050919050565b7f4552433732313a2063616c6c6572206973206e6f7420746f6b656e206f776e6560008201527f72206e6f7220617070726f766564000000000000000000000000000000000000602082015250565b600061252f602e83611e65565b915061253a826124d3565b604082019050919050565b6000602082019050818103600083015261255e81612522565b9050919050565b7f455243373231456e756d657261626c653a206f776e657220696e646578206f7560008201527f74206f6620626f756e6473000000000000000000000000000000000000000000602082015250565b60006125c1602b83611e65565b91506125cc82612565565b604082019050919050565b600060208201905081810360008301526125f0816125b4565b9050919050565b7f455243373231456e756d657261626c653a20676c6f62616c20696e646578206f60008201527f7574206f6620626f756e64730000000000000000000000000000000000000000602082015250565b6000612653602c83611e65565b915061265e826125f7565b604082019050919050565b6000602082019050818103600083015261268281612646565b9050919050565b7f4e487b7100000000000000000000000000000000000000000000000000000000600052603260045260246000fd5b7f4552433732313a20696e76616c696420746f6b656e2049440000000000000000600082015250565b60006126ee601883611e65565b91506126f9826126b8565b602082019050919050565b6000602082019050818103600083015261271d816126e1565b9050919050565b7f4e487b7100000000000000000000000000000000000000000000000000000000600052601160045260246000fd5b600061275e82611f15565b915061276983611f15565b92508282101561277c5761277b612724565b5b828203905092915050565b7f4552433732313a2061646472657373207a65726f206973206e6f74206120766160008201527f6c6964206f776e65720000000000000000000000000000000000000000000000602082015250565b60006127e3602983611e65565b91506127ee82612787565b604082019050919050565b60006020820190508181036000830152612812816127d6565b9050919050565b600081905092915050565b600061282f82611e5a565b6128398185612819565b9350612849818560208601611e76565b80840191505092915050565b60006128618285612824565b915061286d8284612824565b91508190509392505050565b7f4552433732313a207472616e736665722066726f6d20696e636f72726563742060008201527f6f776e6572000000000000000000000000000000000000000000000000000000602082015250565b60006128d5602583611e65565b91506128e082612879565b604082019050919050565b60006020820190508181036000830152612904816128c8565b9050919050565b7f4552433732313a207472616e7366657220746f20746865207a65726f2061646460008201527f7265737300000000000000000000000000000000000000000000000000000000602082015250565b6000612967602483611e65565b91506129728261290b565b604082019050919050565b600060208201905081810360008301526129968161295a565b9050919050565b60006129a882611f15565b91506129b383611f15565b9250827fffffffffffffffffffffffffffffffffffffffffffffffffffffffffffffffff038211156129e8576129e7612724565b5b828201905092915050565b7f4552433732313a206d696e7420746f20746865207a65726f2061646472657373600082015250565b6000612a29602083611e65565b9150612a34826129f3565b602082019050919050565b60006020820190508181036000830152612a5881612a1c565b9050919050565b7f4552433732313a20746f6b656e20616c7265616479206d696e74656400000000600082015250565b6000612a95601c83611e65565b9150612aa082612a5f565b602082019050919050565b60006020820190508181036000830152612ac481612a88565b9050919050565b7f4552433732313a20617070726f766520746f2063616c6c657200000000000000600082015250565b6000612b01601983611e65565b9150612b0c82612acb565b602082019050919050565b60006020820190508181036000830152612b3081612af4565b9050919050565b7f4552433732313a207472616e7366657220746f206e6f6e20455243373231526560008201527f63656976657220696d706c656d656e7465720000000000000000000000000000602082015250565b6000612b93603283611e65565b9150612b9e82612b37565b604082019050919050565b60006020820190508181036000830152612bc281612b86565b9050919050565b6000612bd482611f15565b91507fffffffffffffffffffffffffffffffffffffffffffffffffffffffffffffffff821415612c0757612c06612724565b5b600182019050919050565b7f4e487b7100000000000000000000000000000000000000000000000000000000600052601260045260246000fd5b6000612c4c82611f15565b9150612c5783611f15565b925082612c6757612c66612c12565b5b828204905092915050565b6000612c7d82611f15565b9150612c8883611f15565b925082612c9857612c97612c12565b5b828206905092915050565b600081519050919050565b600082825260208201905092915050565b6000612cca82612ca3565b612cd48185612cae565b9350612ce4818560208601611e76565b612ced81611ea9565b840191505092915050565b6000608082019050612d0d6000830187611faa565b612d1a6020830186611faa565b612d276040830185612040565b8181036060830152612d398184612cbf565b905095945050505050565b600081519050612d5381611dcb565b92915050565b600060208284031215612d6f57612d6e611d95565b5b6000612d7d84828501612d44565b91505092915050565b7f4e487b7100000000000000000000000000000000000000000000000000000000600052603160045260246000fdfea26469706673582212203832fca8ef95e67b3fe2971fa3c26bf1e484c411b1e0f339d075b3bd94cfe79464736f6c634300080a003360806040523480156200001157600080fd5b506040518060400160405280600c81526020017f566f74696e6720546f6b656e00000000000000000000000000000000000000008152506040518060400160405280600381526020017f56544e000000000000000000000000000000000000000000000000000000000081525081600390805190602001906200009692919062000298565b508060049080519060200190620000af92919062000298565b505050620000ce3369021e19e0c9bab24000006200011560201b60201c565b33600560006101000a81548173ffffffffffffffffffffffffffffffffffffffff021916908373ffffffffffffffffffffffffffffffffffffffff160217905550620004f4565b600073ffffffffffffffffffffffffffffffffffffffff168273ffffffffffffffffffffffffffffffffffffffff16141562000188576040517f08c379a00000000000000000000000000000000000000000000000000000000081526004016200017f90620003a9565b60405180910390fd5b6200019c600083836200028e60201b60201c565b8060026000828254620001b0919062000404565b92505081905550806000808473ffffffffffffffffffffffffffffffffffffffff1673ffffffffffffffffffffffffffffffffffffffff168152602001908152602001600020600082825462000207919062000404565b925050819055508173ffffffffffffffffffffffffffffffffffffffff16600073ffffffffffffffffffffffffffffffffffffffff167fddf252ad1be2c89b69c2b068fc378daa952ba7f163c4a11628f55a4df523b3ef836040516200026e919062000472565b60405180910390a36200028a600083836200029360201b60201c565b5050565b505050565b505050565b828054620002a690620004be565b90600052602060002090601f016020900481019282620002ca576000855562000316565b82601f10620002e557805160ff191683800117855562000316565b8280016001018555821562000316579182015b8281111562000315578251825591602001919060010190620002f8565b5b50905062000325919062000329565b5090565b5b80821115620003445760008160009055506001016200032a565b5090565b600082825260208201905092915050565b7f45524332303a206d696e7420746f20746865207a65726f206164647265737300600082015250565b600062000391601f8362000348565b91506200039e8262000359565b602082019050919050565b60006020820190508181036000830152620003c48162000382565b9050919050565b6000819050919050565b7f4e487b7100000000000000000000000000000000000000000000000000000000600052601160045260246000fd5b60006200041182620003cb565b91506200041e83620003cb565b9250827fffffffffffffffffffffffffffffffffffffffffffffffffffffffffffffffff03821115620004565762000455620003d5565b5b828201905092915050565b6200046c81620003cb565b82525050565b600060208201905062000489600083018462000461565b92915050565b7f4e487b7100000000000000000000000000000000000000000000000000000000600052602260045260246000fd5b60006002820490506001821680620004d757607f821691505b60208210811415620004ee57620004ed6200048f565b5b50919050565b6119e680620005046000396000f3fe608060405234801561001057600080fd5b50600436106100f55760003560e01c806342966c6811610097578063a9059cbb11610066578063a9059cbb1461029a578063bec3fa17146102ca578063dd62ed3e146102e6578063f851a44014610316576100f5565b806342966c681461020057806370a082311461021c57806395d89b411461024c578063a457c2d71461026a576100f5565b806323b872dd116100d357806323b872dd14610166578063313ce5671461019657806339509351146101b457806340c10f19146101e4576100f5565b806306fdde03146100fa578063095ea7b31461011857806318160ddd14610148575b600080fd5b610102610334565b60405161010f9190611019565b60405180910390f35b610132600480360381019061012d91906110d4565b6103c6565b60405161013f919061112f565b60405180910390f35b6101506103e9565b60405161015d9190611159565b60405180910390f35b610180600480360381019061017b9190611174565b6103f3565b60405161018d919061112f565b60405180910390f35b61019e610422565b6040516101ab91906111e3565b60405180910390f35b6101ce60048036038101906101c991906110d4565b61042b565b6040516101db919061112f565b60405180910390f35b6101fe60048036038101906101f991906110d4565b610462565b005b61021a600480360381019061021591906111fe565b610500565b005b6102366004803603810190610231919061122b565b61050d565b6040516102439190611159565b60405180910390f35b610254610555565b6040516102619190611019565b60405180910390f35b610284600480360381019061027f91906110d4565b6105e7565b604051610291919061112f565b60405180910390f35b6102b460048036038101906102af91906110d4565b61065e565b6040516102c1919061112f565b60405180910390f35b6102e460048036038101906102df91906110d4565b610681565b005b61030060048036038101906102fb9190611258565b6106b2565b60405161030d9190611159565b60405180910390f35b61031e610739565b60405161032b91906112a7565b60405180910390f35b606060038054610343906112f1565b80601f016020809104026020016040519081016040528092919081815260200182805461036f906112f1565b80156103bc5780601f10610391576101008083540402835291602001916103bc565b820191906000526020600020905b81548152906001019060200180831161039f57829003601f168201915b5050505050905090565b6000806103d161075f565b90506103de818585610767565b600191505092915050565b6000600254905090565b6000806103fe61075f565b905061040b858285610932565b6104168585856109be565b60019150509392505050565b60006012905090565b60008061043661075f565b905061045781858561044885896106b2565b6104529190611352565b610767565b600191505092915050565b600560009054906101000a900473ffffffffffffffffffffffffffffffffffffffff1673ffffffffffffffffffffffffffffffffffffffff163373ffffffffffffffffffffffffffffffffffffffff16146104f2576040517f08c379a00000000000000000000000000000000000000000000000000000000081526004016104e9906113f4565b60405180910390fd5b6104fc8282610c3f565b5050565b61050a3382610d9f565b50565b60008060008373ffffffffffffffffffffffffffffffffffffffff1673ffffffffffffffffffffffffffffffffffffffff168152602001908152602001600020549050919050565b606060048054610564906112f1565b80601f0160208091040260200160405190810160405280929190818152602001828054610590906112f1565b80156105dd5780601f106105b2576101008083540402835291602001916105dd565b820191906000526020600020905b8154815290600101906020018083116105c057829003601f168201915b5050505050905090565b6000806105f261075f565b9050600061060082866106b2565b905083811015610645576040517f08c379a000000000000000000000000000000000000000000000000000000000815260040161063c90611486565b60405180910390fd5b6106528286868403610767565b60019250505092915050565b60008061066961075f565b90506106768185856109be565b600191505092915050565b6106ae600560009054906101000a900473ffffffffffffffffffffffffffffffffffffffff1683836109be565b5050565b6000600160008473ffffffffffffffffffffffffffffffffffffffff1673ffffffffffffffffffffffffffffffffffffffff16815260200190815260200160002060008373ffffffffffffffffffffffffffffffffffffffff1673ffffffffffffffffffffffffffffffffffffffff16815260200190815260200160002054905092915050565b600560009054906101000a900473ffffffffffffffffffffffffffffffffffffffff1681565b600033905090565b600073ffffffffffffffffffffffffffffffffffffffff168373ffffffffffffffffffffffffffffffffffffffff1614156107d7576040517f08c379a00000000000000000000000000000000000000000000000000000000081526004016107ce90611518565b60405180910390fd5b600073ffffffffffffffffffffffffffffffffffffffff168273ffffffffffffffffffffffffffffffffffffffff161415610847576040517f08c379a000000000000000000000000000000000000000000000000000000000815260040161083e906115aa565b60405180910390fd5b80600160008573ffffffffffffffffffffffffffffffffffffffff1673ffffffffffffffffffffffffffffffffffffffff16815260200190815260200160002060008473ffffffffffffffffffffffffffffffffffffffff1673ffffffffffffffffffffffffffffffffffffffff168152602001908152602001600020819055508173ffffffffffffffffffffffffffffffffffffffff168373ffffffffffffffffffffffffffffffffffffffff167f8c5be1e5ebec7d5bd14f71427d1e84f3dd0314c0f7b2291e5b200ac8c7c3b925836040516109259190611159565b60405180910390a3505050565b600061093e84846106b2565b90507fffffffffffffffffffffffffffffffffffffffffffffffffffffffffffffffff81146109b857818110156109aa576040517f08c379a00000000000000000000000000000000000000000000000000000000081526004016109a190611616565b60405180910390fd5b6109b78484848403610767565b5b50505050565b600073ffffffffffffffffffffffffffffffffffffffff168373ffffffffffffffffffffffffffffffffffffffff161415610a2e576040517f08c379a0000000000000000000000000000000000000000000000000000000008152600401610a25906116a8565b60405180910390fd5b600073ffffffffffffffffffffffffffffffffffffffff168273ffffffffffffffffffffffffffffffffffffffff161415610a9e576040517f08c379a0000000000000000000000000000000000000000000000000000000008152600401610a959061173a565b60405180910390fd5b610aa9838383610f76565b60008060008573ffffffffffffffffffffffffffffffffffffffff1673ffffffffffffffffffffffffffffffffffffffff16815260200190815260200160002054905081811015610b2f576040517f08c379a0000000000000000000000000000000000000000000000000000000008152600401610b26906117cc565b60405180910390fd5b8181036000808673ffffffffffffffffffffffffffffffffffffffff1673ffffffffffffffffffffffffffffffffffffffff16815260200190815260200160002081905550816000808573ffffffffffffffffffffffffffffffffffffffff1673ffffffffffffffffffffffffffffffffffffffff1681526020019081526020016000206000828254610bc29190611352565b925050819055508273ffffffffffffffffffffffffffffffffffffffff168473ffffffffffffffffffffffffffffffffffffffff167fddf252ad1be2c89b69c2b068fc378daa952ba7f163c4a11628f55a4df523b3ef84604051610c269190611159565b60405180910390a3610c39848484610f7b565b50505050565b600073ffffffffffffffffffffffffffffffffffffffff168273ffffffffffffffffffffffffffffffffffffffff161415610caf576040517f08c379a0000000000000000000000000000000000000000000000000000000008152600401610ca690611838565b60405180910390fd5b610cbb60008383610f76565b8060026000828254610ccd9190611352565b92505081905550806000808473ffffffffffffffffffffffffffffffffffffffff1673ffffffffffffffffffffffffffffffffffffffff1681526020019081526020016000206000828254610d229190611352565b925050819055508173ffffffffffffffffffffffffffffffffffffffff16600073ffffffffffffffffffffffffffffffffffffffff167fddf252ad1be2c89b69c2b068fc378daa952ba7f163c4a11628f55a4df523b3ef83604051610d879190611159565b60405180910390a3610d9b60008383610f7b565b5050565b600073ffffffffffffffffffffffffffffffffffffffff168273ffffffffffffffffffffffffffffffffffffffff161415610e0f576040517f08c379a0000000000000000000000000000000000000000000000000000000008152600401610e06906118ca565b60405180910390fd5b610e1b82600083610f76565b60008060008473ffffffffffffffffffffffffffffffffffffffff1673ffffffffffffffffffffffffffffffffffffffff16815260200190815260200160002054905081811015610ea1576040517f08c379a0000000000000000000000000000000000000000000000000000000008152600401610e989061195c565b60405180910390fd5b8181036000808573ffffffffffffffffffffffffffffffffffffffff1673ffffffffffffffffffffffffffffffffffffffff168152602001908152602001600020819055508160026000828254610ef8919061197c565b92505081905550600073ffffffffffffffffffffffffffffffffffffffff168373ffffffffffffffffffffffffffffffffffffffff167fddf252ad1be2c89b69c2b068fc378daa952ba7f163c4a11628f55a4df523b3ef84604051610f5d9190611159565b60405180910390a3610f7183600084610f7b565b505050565b505050565b505050565b600081519050919050565b600082825260208201905092915050565b60005b83811015610fba578082015181840152602081019050610f9f565b83811115610fc9576000848401525b50505050565b6000601f19601f8301169050919050565b6000610feb82610f80565b610ff58185610f8b565b9350611005818560208601610f9c565b61100e81610fcf565b840191505092915050565b600060208201905081810360008301526110338184610fe0565b905092915050565b600080fd5b600073ffffffffffffffffffffffffffffffffffffffff82169050919050565b600061106b82611040565b9050919050565b61107b81611060565b811461108657600080fd5b50565b60008135905061109881611072565b92915050565b6000819050919050565b6110b18161109e565b81146110bc57600080fd5b50565b6000813590506110ce816110a8565b92915050565b600080604083850312156110eb576110ea61103b565b5b60006110f985828601611089565b925050602061110a858286016110bf565b9150509250929050565b60008115159050919050565b61112981611114565b82525050565b60006020820190506111446000830184611120565b92915050565b6111538161109e565b82525050565b600060208201905061116e600083018461114a565b92915050565b60008060006060848603121561118d5761118c61103b565b5b600061119b86828701611089565b93505060206111ac86828701611089565b92505060406111bd868287016110bf565b9150509250925092565b600060ff82169050919050565b6111dd816111c7565b82525050565b60006020820190506111f860008301846111d4565b92915050565b6000602082840312156112145761121361103b565b5b6000611222848285016110bf565b91505092915050565b6000602082840312156112415761124061103b565b5b600061124f84828501611089565b91505092915050565b6000806040838503121561126f5761126e61103b565b5b600061127d85828601611089565b925050602061128e85828601611089565b9150509250929050565b6112a181611060565b82525050565b60006020820190506112bc6000830184611298565b92915050565b7f4e487b7100000000000000000000000000000000000000000000000000000000600052602260045260246000fd5b6000600282049050600182168061130957607f821691505b6020821081141561131d5761131c6112c2565b5b50919050565b7f4e487b7100000000000000000000000000000000000000000000000000000000600052601160045260246000fd5b600061135d8261109e565b91506113688361109e565b9250827fffffffffffffffffffffffffffffffffffffffffffffffffffffffffffffffff0382111561139d5761139c611323565b5b828201905092915050565b7f4f6e6c792061646d696e2063616e206d696e7420746f6b656e73000000000000600082015250565b60006113de601a83610f8b565b91506113e9826113a8565b602082019050919050565b6000602082019050818103600083015261140d816113d1565b9050919050565b7f45524332303a2064656372656173656420616c6c6f77616e63652062656c6f7760008201527f207a65726f000000000000000000000000000000000000000000000000000000602082015250565b6000611470602583610f8b565b915061147b82611414565b604082019050919050565b6000602082019050818103600083015261149f81611463565b9050919050565b7f45524332303a20617070726f76652066726f6d20746865207a65726f2061646460008201527f7265737300000000000000000000000000000000000000000000000000000000602082015250565b6000611502602483610f8b565b915061150d826114a6565b604082019050919050565b60006020820190508181036000830152611531816114f5565b9050919050565b7f45524332303a20617070726f766520746f20746865207a65726f20616464726560008201527f7373000000000000000000000000000000000000000000000000000000000000602082015250565b6000611594602283610f8b565b915061159f82611538565b604082019050919050565b600060208201905081810360008301526115c381611587565b9050919050565b7f45524332303a20696e73756666696369656e7420616c6c6f77616e6365000000600082015250565b6000611600601d83610f8b565b915061160b826115ca565b602082019050919050565b6000602082019050818103600083015261162f816115f3565b9050919050565b7f45524332303a207472616e736665722066726f6d20746865207a65726f20616460008201527f6472657373000000000000000000000000000000000000000000000000000000602082015250565b6000611692602583610f8b565b915061169d82611636565b604082019050919050565b600060208201905081810360008301526116c181611685565b9050919050565b7f45524332303a207472616e7366657220746f20746865207a65726f206164647260008201527f6573730000000000000000000000000000000000000000000000000000000000602082015250565b6000611724602383610f8b565b915061172f826116c8565b604082019050919050565b6000602082019050818103600083015261175381611717565b9050919050565b7f45524332303a207472616e7366657220616d6f756e742065786365656473206260008201527f616c616e63650000000000000000000000000000000000000000000000000000602082015250565b60006117b6602683610f8b565b91506117c18261175a565b604082019050919050565b600060208201905081810360008301526117e5816117a9565b9050919050565b7f45524332303a206d696e7420746f20746865207a65726f206164647265737300600082015250565b6000611822601f83610f8b565b915061182d826117ec565b602082019050919050565b6000602082019050818103600083015261185181611815565b9050919050565b7f45524332303a206275726e2066726f6d20746865207a65726f2061646472657360008201527f7300000000000000000000000000000000000000000000000000000000000000602082015250565b60006118b4602183610f8b565b91506118bf82611858565b604082019050919050565b600060208201905081810360008301526118e3816118a7565b9050919050565b7f45524332303a206275726e20616d6f756e7420657863656564732062616c616e60008201527f6365000000000000000000000000000000000000000000000000000000000000602082015250565b6000611946602283610f8b565b9150611951826118ea565b604082019050919050565b6000602082019050818103600083015261197581611939565b9050919050565b60006119878261109e565b91506119928361109e565b9250828210156119a5576119a4611323565b5b82820390509291505056fea2646970667358221220c0f9093c83f5e32fc4430f9d6533302a91e50d8d162004a611b08b1db87f7b4164736f6c634300080a0033",
  "immutableReferences": {},
  "source": "pragma solidity ^0.8.7;\r\n\r\nimport \"./Voters.sol\";\r\nimport \"./VotingToken.sol\";\r\n\r\ncontract Elections {\r\n    //This will be stored eventually in a public mapping, so one can verify if one voted or not, but not know who is that one.\r\n\r\n    Voters private _votersContract;\r\n    VotingToken private _votingToken;\r\n\r\n    struct voter {\r\n        uint256 voterNumber;\r\n        bool exists;\r\n        bool voted;\r\n    }\r\n\r\n    struct VotingDateTime {\r\n        uint256 startDateTicks;\r\n        uint256 endDateTicks;\r\n    }\r\n\r\n    struct Candidate {\r\n        uint256 candidateCount;\r\n        string firstName;\r\n        string lastName;\r\n        uint256 voteCount;\r\n        string politicalView;\r\n    }\r\n\r\n    VotingDateTime public votingDateTime;\r\n    uint256 public totalVoter = 0; //Number of Voters added to the system\r\n    uint256 public totalVotesCount = 0; //Number of voters that actually came to vote\r\n    address public ballotOfficialAddress;\r\n    string public ballotOfficialName;\r\n    uint256 public candidateCount;\r\n    mapping(uint256 => Candidate) public candidates;\r\n    mapping(address => voter) public voterRegister; //Public mapping of voters, with their wallet address only.\r\n\r\n    //creates a new ballot/elections contract\r\n    constructor() public {\r\n        ballotOfficialAddress = msg.sender; //Sets the wallet address of the contract's creator as \"admin\".\r\n        ballotOfficialName = \"Israel Elections 2022\"; //ballotOfficialName - '' for example\r\n        _votersContract = new Voters();\r\n        _votingToken = new VotingToken();\r\n    }\r\n\r\n    modifier onlyOfficial() {\r\n        require(msg.sender == ballotOfficialAddress);\r\n        _;\r\n    }\r\n\r\n    modifier electionTime(uint256 _curentTicksTime) {\r\n        require(\r\n            _curentTicksTime >= votingDateTime.startDateTicks &&\r\n                _curentTicksTime <= votingDateTime.endDateTicks\r\n        );\r\n        _;\r\n    }\r\n\r\n    event voterAdded(address voter);\r\n    event voteStarted();\r\n    event voteEnded(uint256 totalVotesCount);\r\n    event voteDone(address voter);\r\n\r\n    function getIsAllVotersCounted() public view returns (bool allVoted) {\r\n        return totalVotesCount == totalVoter;\r\n    }\r\n\r\n    function getBalanceOf(address _address)\r\n        public\r\n        view\r\n        returns (uint256 balance)\r\n    {\r\n        return _votingToken.balanceOf(_address);\r\n    }\r\n\r\n    function setVotingDate(uint256 _startDateTicks, uint256 _endDateTicks)\r\n        public\r\n        onlyOfficial\r\n    {\r\n        votingDateTime = VotingDateTime(_startDateTicks, _endDateTicks);\r\n    }\r\n\r\n    function getVotingDate() public view returns (VotingDateTime memory) {\r\n        return votingDateTime;\r\n    }\r\n\r\n    //Creates a candidate for the elections. Call addCandidate to add it to the mapping.\r\n    //(id, firstName, lastName, politicalView)\r\n    function createCandidate(\r\n        string memory _firstName,\r\n        string memory _lastName,\r\n        string memory _politicalView\r\n    ) public onlyOfficial {\r\n        addCandidate(_firstName, _lastName, _politicalView);\r\n    }\r\n\r\n    //Adds a candidate to the elections.\r\n    //(CandidateCount, id, firstName, lastName, voteCount, politicalView)\r\n    function addCandidate(\r\n        string memory _firstName,\r\n        string memory _lastName,\r\n        string memory _politicalView\r\n    ) private {\r\n        candidates[candidateCount] = Candidate(\r\n            candidateCount,\r\n            _firstName,\r\n            _lastName,\r\n            0,\r\n            _politicalView\r\n        );\r\n        candidateCount++;\r\n    }\r\n\r\n    //Returns candidate struct by its candidateCount value\r\n    //(CandidateCount, id, firstName, lastName, voteCount, politicalView)\r\n    function getCandidateByCount(uint256 _candidateCount)\r\n        public\r\n        view\r\n        returns (Candidate memory)\r\n    {\r\n        return candidates[_candidateCount];\r\n    }\r\n\r\n    //Returns uint candidate vote count by its candidateCount value.\r\n    function getCandidateVoteCount(uint256 _candidateCount)\r\n        public\r\n        view\r\n        returns (uint256)\r\n    {\r\n        return candidates[_candidateCount].voteCount;\r\n    }\r\n\r\n    //Returns voter struct by voter address\r\n    function getVoterStructByAddress(address _voterAddress)\r\n        public\r\n        view\r\n        returns (voter memory)\r\n    {\r\n        return voterRegister[_voterAddress];\r\n    }\r\n\r\n    //Returns bool if a voter voted or not by voter address\r\n    function getVoterVotedByAddress(address _voterAddress)\r\n        public\r\n        view\r\n        returns (bool)\r\n    {\r\n        return voterRegister[_voterAddress].voted;\r\n    }\r\n\r\n    //Returns uint voter number by voter address\r\n    function getVoterNumberByAddress(address _voterAddress)\r\n        public\r\n        view\r\n        returns (uint256)\r\n    {\r\n        return voterRegister[_voterAddress].voterNumber;\r\n    }\r\n\r\n    function getVoters() public view returns (uint256 supplyCount) {\r\n        return _votersContract.totalSupply();\r\n    }\r\n\r\n    function getOwnerOf(uint256 _id)\r\n        public\r\n        view\r\n        returns (address ownerAddress)\r\n    {\r\n        return _votersContract.ownerOf(_id);\r\n    }\r\n\r\n    //add voter\r\n    function addVoter(\r\n        address _voterAddress /*, string memory _voterName*/\r\n    ) public onlyOfficial {\r\n        _votersContract.mint(_voterAddress);\r\n        voter memory newVoter;\r\n        newVoter.exists = true;\r\n        newVoter.voted = false;\r\n        newVoter.voterNumber = totalVoter++;\r\n        voterRegister[_voterAddress] = newVoter;\r\n        emit voterAdded(_voterAddress);\r\n    }\r\n\r\n    //voters vote by indicating their choice (true/false)\r\n    function voteNow(uint256 _candidateid, uint256 _curentTicksTime)\r\n        public\r\n        electionTime(_curentTicksTime)\r\n        returns (bool voted)\r\n    {\r\n        bool found = false;\r\n        require(!voterRegister[msg.sender].voted);\r\n        voterRegister[msg.sender].voted = true;\r\n        candidates[_candidateid].voteCount++;\r\n        totalVotesCount++; //Number of total voters in the elections\r\n        found = true;\r\n        _votingToken.transferTokens(msg.sender, 100);\r\n\r\n        emit voteDone(msg.sender);\r\n        return found;\r\n    }\r\n}\r\n",
  "sourcePath": "C:\\Users\\Alex\\Desktop\\election\\contracts\\Elections.sol",
  "compiler": {
    "name": "solc",
    "version": "0.8.10+commit.fc410830.Emscripten.clang"
  },
  "schemaVersion": "3.4.4",
  "updatedAt": "2022-07-30T13:35:27.207Z",
  "networkType": "ethereum",
  "devdoc": {
    "kind": "dev",
    "methods": {},
    "version": 1
  },
  "userdoc": {
    "kind": "user",
    "methods": {},
    "version": 1
  }
}