{
  "contractName": "Elections",
  "abi": [
    {
      "inputs": [],
      "stateMutability": "nonpayable",
      "type": "constructor"
    },
    {
      "anonymous": false,
      "inputs": [
        {
          "indexed": false,
          "internalType": "address",
          "name": "voter",
          "type": "address"
        }
      ],
      "name": "voteDone",
      "type": "event"
    },
    {
      "anonymous": false,
      "inputs": [
        {
          "indexed": false,
          "internalType": "uint256",
          "name": "totalVotesCount",
          "type": "uint256"
        }
      ],
      "name": "voteEnded",
      "type": "event"
    },
    {
      "anonymous": false,
      "inputs": [],
      "name": "voteStarted",
      "type": "event"
    },
    {
      "anonymous": false,
      "inputs": [
        {
          "indexed": false,
          "internalType": "address",
          "name": "voter",
          "type": "address"
        }
      ],
      "name": "voterAdded",
      "type": "event"
    },
    {
      "inputs": [],
      "name": "ballotOfficialAddress",
      "outputs": [
        {
          "internalType": "address",
          "name": "",
          "type": "address"
        }
      ],
      "stateMutability": "view",
      "type": "function",
      "constant": true
    },
    {
      "inputs": [],
      "name": "ballotOfficialName",
      "outputs": [
        {
          "internalType": "string",
          "name": "",
          "type": "string"
        }
      ],
      "stateMutability": "view",
      "type": "function",
      "constant": true
    },
    {
      "inputs": [],
      "name": "candidateCount",
      "outputs": [
        {
          "internalType": "uint256",
          "name": "",
          "type": "uint256"
        }
      ],
      "stateMutability": "view",
      "type": "function",
      "constant": true
    },
    {
      "inputs": [
        {
          "internalType": "uint256",
          "name": "",
          "type": "uint256"
        }
      ],
      "name": "candidates",
      "outputs": [
        {
          "internalType": "uint256",
          "name": "candidateCount",
          "type": "uint256"
        },
        {
          "internalType": "string",
          "name": "firstName",
          "type": "string"
        },
        {
          "internalType": "string",
          "name": "lastName",
          "type": "string"
        },
        {
          "internalType": "uint256",
          "name": "voteCount",
          "type": "uint256"
        },
        {
          "internalType": "string",
          "name": "politicalView",
          "type": "string"
        }
      ],
      "stateMutability": "view",
      "type": "function",
      "constant": true
    },
    {
      "inputs": [],
      "name": "totalVoter",
      "outputs": [
        {
          "internalType": "uint256",
          "name": "",
          "type": "uint256"
        }
      ],
      "stateMutability": "view",
      "type": "function",
      "constant": true
    },
    {
      "inputs": [],
      "name": "totalVotesCount",
      "outputs": [
        {
          "internalType": "uint256",
          "name": "",
          "type": "uint256"
        }
      ],
      "stateMutability": "view",
      "type": "function",
      "constant": true
    },
    {
      "inputs": [
        {
          "internalType": "address",
          "name": "",
          "type": "address"
        }
      ],
      "name": "voterRegister",
      "outputs": [
        {
          "internalType": "uint256",
          "name": "voterNumber",
          "type": "uint256"
        },
        {
          "internalType": "bool",
          "name": "exists",
          "type": "bool"
        },
        {
          "internalType": "bool",
          "name": "voted",
          "type": "bool"
        }
      ],
      "stateMutability": "view",
      "type": "function",
      "constant": true
    },
    {
      "inputs": [],
      "name": "votingDateTime",
      "outputs": [
        {
          "internalType": "uint256",
          "name": "startDateTicks",
          "type": "uint256"
        },
        {
          "internalType": "uint256",
          "name": "endDateTicks",
          "type": "uint256"
        }
      ],
      "stateMutability": "view",
      "type": "function",
      "constant": true
    },
    {
      "inputs": [
        {
          "internalType": "uint256",
          "name": "_startDateTicks",
          "type": "uint256"
        },
        {
          "internalType": "uint256",
          "name": "_endDateTicks",
          "type": "uint256"
        }
      ],
      "name": "setVotingDate",
      "outputs": [],
      "stateMutability": "nonpayable",
      "type": "function"
    },
    {
      "inputs": [],
      "name": "getVotingDate",
      "outputs": [
        {
          "components": [
            {
              "internalType": "uint256",
              "name": "startDateTicks",
              "type": "uint256"
            },
            {
              "internalType": "uint256",
              "name": "endDateTicks",
              "type": "uint256"
            }
          ],
          "internalType": "struct Elections.VotingDateTime",
          "name": "",
          "type": "tuple"
        }
      ],
      "stateMutability": "view",
      "type": "function",
      "constant": true
    },
    {
      "inputs": [
        {
          "internalType": "string",
          "name": "_firstName",
          "type": "string"
        },
        {
          "internalType": "string",
          "name": "_lastName",
          "type": "string"
        },
        {
          "internalType": "string",
          "name": "_politicalView",
          "type": "string"
        }
      ],
      "name": "createCandidate",
      "outputs": [],
      "stateMutability": "nonpayable",
      "type": "function"
    },
    {
      "inputs": [
        {
          "internalType": "uint256",
          "name": "_candidateCount",
          "type": "uint256"
        }
      ],
      "name": "getCandidateByCount",
      "outputs": [
        {
          "components": [
            {
              "internalType": "uint256",
              "name": "candidateCount",
              "type": "uint256"
            },
            {
              "internalType": "string",
              "name": "firstName",
              "type": "string"
            },
            {
              "internalType": "string",
              "name": "lastName",
              "type": "string"
            },
            {
              "internalType": "uint256",
              "name": "voteCount",
              "type": "uint256"
            },
            {
              "internalType": "string",
              "name": "politicalView",
              "type": "string"
            }
          ],
          "internalType": "struct Elections.Candidate",
          "name": "",
          "type": "tuple"
        }
      ],
      "stateMutability": "view",
      "type": "function",
      "constant": true
    },
    {
      "inputs": [
        {
          "internalType": "uint256",
          "name": "_candidateCount",
          "type": "uint256"
        }
      ],
      "name": "getCandidateVoteCount",
      "outputs": [
        {
          "internalType": "uint256",
          "name": "",
          "type": "uint256"
        }
      ],
      "stateMutability": "view",
      "type": "function",
      "constant": true
    },
    {
      "inputs": [
        {
          "internalType": "address",
          "name": "_voterAddress",
          "type": "address"
        }
      ],
      "name": "getVoterStructByAddress",
      "outputs": [
        {
          "components": [
            {
              "internalType": "uint256",
              "name": "voterNumber",
              "type": "uint256"
            },
            {
              "internalType": "bool",
              "name": "exists",
              "type": "bool"
            },
            {
              "internalType": "bool",
              "name": "voted",
              "type": "bool"
            }
          ],
          "internalType": "struct Elections.voter",
          "name": "",
          "type": "tuple"
        }
      ],
      "stateMutability": "view",
      "type": "function",
      "constant": true
    },
    {
      "inputs": [
        {
          "internalType": "address",
          "name": "_voterAddress",
          "type": "address"
        }
      ],
      "name": "getVoterVotedByAddress",
      "outputs": [
        {
          "internalType": "bool",
          "name": "",
          "type": "bool"
        }
      ],
      "stateMutability": "view",
      "type": "function",
      "constant": true
    },
    {
      "inputs": [
        {
          "internalType": "address",
          "name": "_voterAddress",
          "type": "address"
        }
      ],
      "name": "getVoterNumberByAddress",
      "outputs": [
        {
          "internalType": "uint256",
          "name": "",
          "type": "uint256"
        }
      ],
      "stateMutability": "view",
      "type": "function",
      "constant": true
    },
    {
      "inputs": [],
      "name": "getVoters",
      "outputs": [
        {
          "internalType": "uint256",
          "name": "supplyCount",
          "type": "uint256"
        }
      ],
      "stateMutability": "view",
      "type": "function",
      "constant": true
    },
    {
      "inputs": [
        {
          "internalType": "uint256",
          "name": "_id",
          "type": "uint256"
        }
      ],
      "name": "getOwnerOf",
      "outputs": [
        {
          "internalType": "address",
          "name": "ownerAddress",
          "type": "address"
        }
      ],
      "stateMutability": "view",
      "type": "function",
      "constant": true
    },
    {
      "inputs": [
        {
          "internalType": "address",
          "name": "_voterAddress",
          "type": "address"
        }
      ],
      "name": "addVoter",
      "outputs": [],
      "stateMutability": "nonpayable",
      "type": "function"
    },
    {
      "inputs": [
        {
          "internalType": "uint256",
          "name": "_candidateid",
          "type": "uint256"
        },
        {
          "internalType": "uint256",
          "name": "_curentTicksTime",
          "type": "uint256"
        }
      ],
      "name": "voteNow",
      "outputs": [
        {
          "internalType": "bool",
          "name": "voted",
          "type": "bool"
        }
      ],
      "stateMutability": "nonpayable",
      "type": "function"
    }
  ],
  "bytecode": "0x6080604052600060035560006004553480156200001b57600080fd5b5033600560006101000a81548173ffffffffffffffffffffffffffffffffffffffff021916908373ffffffffffffffffffffffffffffffffffffffff1602179055506040518060400160405280601581526020017f49737261656c20456c656374696f6e732032303232000000000000000000000081525060069080519060200190620000aa9291906200011c565b50604051620000b990620001ad565b604051809103906000f080158015620000d6573d6000803e3d6000fd5b506000806101000a81548173ffffffffffffffffffffffffffffffffffffffff021916908373ffffffffffffffffffffffffffffffffffffffff1602179055506200023f565b8280546200012a9062000209565b90600052602060002090601f0160209004810192826200014e57600085556200019a565b82601f106200016957805160ff19168380011785556200019a565b828001600101855582156200019a579182015b82811115620001995782518255916020019190600101906200017c565b5b509050620001a99190620001bb565b5090565b612fc88062001d0e83390190565b5b80821115620001d6576000816000905550600101620001bc565b5090565b7f4e487b7100000000000000000000000000000000000000000000000000000000600052602260045260246000fd5b600060028204905060018216806200022257607f821691505b60208210811415620002395762000238620001da565b5b50919050565b611abf806200024f6000396000f3fe608060405234801561001057600080fd5b506004361061012c5760003560e01c806390949747116100ad578063cdd7225311610071578063cdd7225314610398578063dd91cf3f146103b6578063de975d18146103d4578063f396d674146103f2578063f4ab9adf146104105761012c565b806390949747146102ca578063a9a981a3146102e8578063ac092c6b14610306578063af15408714610336578063b315c597146103685761012c565b806344317594116100f457806344317594146102115780636332abc91461022d578063769e93a31461024b5780637a93105f1461026a578063836387101461029a5761012c565b80630b95bea2146101315780631410c93314610161578063150a9884146101915780631d823d32146101c15780633477ee2e146101dd575b600080fd5b61014b600480360381019061014691906112be565b61042c565b6040516101589190611361565b60405180910390f35b61017b600480360381019061017691906112be565b6104c5565b604051610188919061138b565b60405180910390f35b6101ab60048036038101906101a691906113d2565b610511565b6040516101b89190611421565b60405180910390f35b6101db60048036038101906101d69190611582565b6106c1565b005b6101f760048036038101906101f29190611629565b61072b565b6040516102089594939291906116de565b60405180910390f35b61022b600480360381019061022691906113d2565b6108f9565b005b610235610985565b604051610242919061138b565b60405180910390f35b61025361098b565b604051610261929190611746565b60405180910390f35b610284600480360381019061027f91906112be565b61099d565b6040516102919190611421565b60405180910390f35b6102b460048036038101906102af9190611629565b6109f6565b6040516102c1919061177e565b60405180910390f35b6102d2610a9a565b6040516102df919061177e565b60405180910390f35b6102f0610ac0565b6040516102fd919061138b565b60405180910390f35b610320600480360381019061031b9190611629565b610ac6565b60405161032d9190611867565b60405180910390f35b610350600480360381019061034b91906112be565b610cbd565b60405161035f93929190611889565b60405180910390f35b610382600480360381019061037d9190611629565b610d01565b60405161038f919061138b565b60405180910390f35b6103a0610d21565b6040516103ad919061138b565b60405180910390f35b6103be610db8565b6040516103cb91906118ef565b60405180910390f35b6103dc610de6565b6040516103e9919061190a565b60405180910390f35b6103fa610e74565b604051610407919061138b565b60405180910390f35b61042a600480360381019061042591906112be565b610e7a565b005b61043461113b565b600960008373ffffffffffffffffffffffffffffffffffffffff1673ffffffffffffffffffffffffffffffffffffffff168152602001908152602001600020604051806060016040529081600082015481526020016001820160009054906101000a900460ff161515151581526020016001820160019054906101000a900460ff1615151515815250509050919050565b6000600960008373ffffffffffffffffffffffffffffffffffffffff1673ffffffffffffffffffffffffffffffffffffffff168152602001908152602001600020600001549050919050565b600081600160000154811015801561052d575060018001548111155b61053657600080fd5b600080600960003373ffffffffffffffffffffffffffffffffffffffff1673ffffffffffffffffffffffffffffffffffffffff168152602001908152602001600020600001541180156105d65750600960003373ffffffffffffffffffffffffffffffffffffffff1673ffffffffffffffffffffffffffffffffffffffff16815260200190815260200160002060010160019054906101000a900460ff16155b1561067f576001600960003373ffffffffffffffffffffffffffffffffffffffff1673ffffffffffffffffffffffffffffffffffffffff16815260200190815260200160002060010160016101000a81548160ff02191690831515021790555060086000868152602001908152602001600020600301600081548092919061065d9061195b565b9190505550600460008154809291906106759061195b565b9190505550600190505b7f55c65cf9526efdf6c2252fe9757889dbd93e10172cad0f2edb1df619c88dbf7d336040516106ae919061177e565b60405180910390a1809250505092915050565b600560009054906101000a900473ffffffffffffffffffffffffffffffffffffffff1673ffffffffffffffffffffffffffffffffffffffff163373ffffffffffffffffffffffffffffffffffffffff161461071b57600080fd5b610726838383611071565b505050565b6008602052806000526040600020600091509050806000015490806001018054610754906119d3565b80601f0160208091040260200160405190810160405280929190818152602001828054610780906119d3565b80156107cd5780601f106107a2576101008083540402835291602001916107cd565b820191906000526020600020905b8154815290600101906020018083116107b057829003601f168201915b5050505050908060020180546107e2906119d3565b80601f016020809104026020016040519081016040528092919081815260200182805461080e906119d3565b801561085b5780601f106108305761010080835404028352916020019161085b565b820191906000526020600020905b81548152906001019060200180831161083e57829003601f168201915b505050505090806003015490806004018054610876906119d3565b80601f01602080910402602001604051908101604052809291908181526020018280546108a2906119d3565b80156108ef5780601f106108c4576101008083540402835291602001916108ef565b820191906000526020600020905b8154815290600101906020018083116108d257829003601f168201915b5050505050905085565b600560009054906101000a900473ffffffffffffffffffffffffffffffffffffffff1673ffffffffffffffffffffffffffffffffffffffff163373ffffffffffffffffffffffffffffffffffffffff161461095357600080fd5b604051806040016040528083815260200182815250600160008201518160000155602082015181600101559050505050565b60035481565b60018060000154908060010154905082565b6000600960008373ffffffffffffffffffffffffffffffffffffffff1673ffffffffffffffffffffffffffffffffffffffff16815260200190815260200160002060010160019054906101000a900460ff169050919050565b60008060009054906101000a900473ffffffffffffffffffffffffffffffffffffffff1673ffffffffffffffffffffffffffffffffffffffff16636352211e836040518263ffffffff1660e01b8152600401610a52919061138b565b602060405180830381865afa158015610a6f573d6000803e3d6000fd5b505050506040513d601f19601f82011682018060405250810190610a939190611a1a565b9050919050565b600560009054906101000a900473ffffffffffffffffffffffffffffffffffffffff1681565b60075481565b610ace611160565b600860008381526020019081526020016000206040518060a001604052908160008201548152602001600182018054610b06906119d3565b80601f0160208091040260200160405190810160405280929190818152602001828054610b32906119d3565b8015610b7f5780601f10610b5457610100808354040283529160200191610b7f565b820191906000526020600020905b815481529060010190602001808311610b6257829003601f168201915b50505050508152602001600282018054610b98906119d3565b80601f0160208091040260200160405190810160405280929190818152602001828054610bc4906119d3565b8015610c115780601f10610be657610100808354040283529160200191610c11565b820191906000526020600020905b815481529060010190602001808311610bf457829003601f168201915b5050505050815260200160038201548152602001600482018054610c34906119d3565b80601f0160208091040260200160405190810160405280929190818152602001828054610c60906119d3565b8015610cad5780601f10610c8257610100808354040283529160200191610cad565b820191906000526020600020905b815481529060010190602001808311610c9057829003601f168201915b5050505050815250509050919050565b60096020528060005260406000206000915090508060000154908060010160009054906101000a900460ff16908060010160019054906101000a900460ff16905083565b600060086000838152602001908152602001600020600301549050919050565b60008060009054906101000a900473ffffffffffffffffffffffffffffffffffffffff1673ffffffffffffffffffffffffffffffffffffffff166318160ddd6040518163ffffffff1660e01b8152600401602060405180830381865afa158015610d8f573d6000803e3d6000fd5b505050506040513d601f19601f82011682018060405250810190610db39190611a5c565b905090565b610dc061118f565b600160405180604001604052908160008201548152602001600182015481525050905090565b60068054610df3906119d3565b80601f0160208091040260200160405190810160405280929190818152602001828054610e1f906119d3565b8015610e6c5780601f10610e4157610100808354040283529160200191610e6c565b820191906000526020600020905b815481529060010190602001808311610e4f57829003601f168201915b505050505081565b60045481565b600560009054906101000a900473ffffffffffffffffffffffffffffffffffffffff1673ffffffffffffffffffffffffffffffffffffffff163373ffffffffffffffffffffffffffffffffffffffff1614610ed457600080fd5b60008054906101000a900473ffffffffffffffffffffffffffffffffffffffff1673ffffffffffffffffffffffffffffffffffffffff16636a627842826040518263ffffffff1660e01b8152600401610f2d919061177e565b600060405180830381600087803b158015610f4757600080fd5b505af1158015610f5b573d6000803e3d6000fd5b50505050610f6761113b565b6001816020019015159081151581525050600081604001901515908115158152505060036000815480929190610f9c9061195b565b9190505581600001818152505080600960008473ffffffffffffffffffffffffffffffffffffffff1673ffffffffffffffffffffffffffffffffffffffff1681526020019081526020016000206000820151816000015560208201518160010160006101000a81548160ff02191690831515021790555060408201518160010160016101000a81548160ff0219169083151502179055509050507fb9e5f9042e6c6eb94817f660cfa81afea9585e59d72bfc3348a2305cbd33e13382604051611065919061177e565b60405180910390a15050565b6040518060a00160405280600754815260200184815260200183815260200160008152602001828152506008600060075481526020019081526020016000206000820151816000015560208201518160010190805190602001906110d69291906111a9565b5060408201518160020190805190602001906110f39291906111a9565b5060608201518160030155608082015181600401908051906020019061111a9291906111a9565b50905050600760008154809291906111319061195b565b9190505550505050565b6040518060600160405280600081526020016000151581526020016000151581525090565b6040518060a0016040528060008152602001606081526020016060815260200160008152602001606081525090565b604051806040016040528060008152602001600081525090565b8280546111b5906119d3565b90600052602060002090601f0160209004810192826111d7576000855561121e565b82601f106111f057805160ff191683800117855561121e565b8280016001018555821561121e579182015b8281111561121d578251825591602001919060010190611202565b5b50905061122b919061122f565b5090565b5b80821115611248576000816000905550600101611230565b5090565b6000604051905090565b600080fd5b600080fd5b600073ffffffffffffffffffffffffffffffffffffffff82169050919050565b600061128b82611260565b9050919050565b61129b81611280565b81146112a657600080fd5b50565b6000813590506112b881611292565b92915050565b6000602082840312156112d4576112d3611256565b5b60006112e2848285016112a9565b91505092915050565b6000819050919050565b6112fe816112eb565b82525050565b60008115159050919050565b61131981611304565b82525050565b60608201600082015161133560008501826112f5565b5060208201516113486020850182611310565b50604082015161135b6040850182611310565b50505050565b6000606082019050611376600083018461131f565b92915050565b611385816112eb565b82525050565b60006020820190506113a0600083018461137c565b92915050565b6113af816112eb565b81146113ba57600080fd5b50565b6000813590506113cc816113a6565b92915050565b600080604083850312156113e9576113e8611256565b5b60006113f7858286016113bd565b9250506020611408858286016113bd565b9150509250929050565b61141b81611304565b82525050565b60006020820190506114366000830184611412565b92915050565b600080fd5b600080fd5b6000601f19601f8301169050919050565b7f4e487b7100000000000000000000000000000000000000000000000000000000600052604160045260246000fd5b61148f82611446565b810181811067ffffffffffffffff821117156114ae576114ad611457565b5b80604052505050565b60006114c161124c565b90506114cd8282611486565b919050565b600067ffffffffffffffff8211156114ed576114ec611457565b5b6114f682611446565b9050602081019050919050565b82818337600083830152505050565b6000611525611520846114d2565b6114b7565b90508281526020810184848401111561154157611540611441565b5b61154c848285611503565b509392505050565b600082601f8301126115695761156861143c565b5b8135611579848260208601611512565b91505092915050565b60008060006060848603121561159b5761159a611256565b5b600084013567ffffffffffffffff8111156115b9576115b861125b565b5b6115c586828701611554565b935050602084013567ffffffffffffffff8111156115e6576115e561125b565b5b6115f286828701611554565b925050604084013567ffffffffffffffff8111156116135761161261125b565b5b61161f86828701611554565b9150509250925092565b60006020828403121561163f5761163e611256565b5b600061164d848285016113bd565b91505092915050565b600081519050919050565b600082825260208201905092915050565b60005b83811015611690578082015181840152602081019050611675565b8381111561169f576000848401525b50505050565b60006116b082611656565b6116ba8185611661565b93506116ca818560208601611672565b6116d381611446565b840191505092915050565b600060a0820190506116f3600083018861137c565b818103602083015261170581876116a5565b9050818103604083015261171981866116a5565b9050611728606083018561137c565b818103608083015261173a81846116a5565b90509695505050505050565b600060408201905061175b600083018561137c565b611768602083018461137c565b9392505050565b61177881611280565b82525050565b6000602082019050611793600083018461176f565b92915050565b600082825260208201905092915050565b60006117b582611656565b6117bf8185611799565b93506117cf818560208601611672565b6117d881611446565b840191505092915050565b600060a0830160008301516117fb60008601826112f5565b506020830151848203602086015261181382826117aa565b9150506040830151848203604086015261182d82826117aa565b915050606083015161184260608601826112f5565b506080830151848203608086015261185a82826117aa565b9150508091505092915050565b6000602082019050818103600083015261188181846117e3565b905092915050565b600060608201905061189e600083018661137c565b6118ab6020830185611412565b6118b86040830184611412565b949350505050565b6040820160008201516118d660008501826112f5565b5060208201516118e960208501826112f5565b50505050565b600060408201905061190460008301846118c0565b92915050565b6000602082019050818103600083015261192481846116a5565b905092915050565b7f4e487b7100000000000000000000000000000000000000000000000000000000600052601160045260246000fd5b6000611966826112eb565b91507fffffffffffffffffffffffffffffffffffffffffffffffffffffffffffffffff8214156119995761199861192c565b5b600182019050919050565b7f4e487b7100000000000000000000000000000000000000000000000000000000600052602260045260246000fd5b600060028204905060018216806119eb57607f821691505b602082108114156119ff576119fe6119a4565b5b50919050565b600081519050611a1481611292565b92915050565b600060208284031215611a3057611a2f611256565b5b6000611a3e84828501611a05565b91505092915050565b600081519050611a56816113a6565b92915050565b600060208284031215611a7257611a71611256565b5b6000611a8084828501611a47565b9150509291505056fea2646970667358221220c446ba86631886ff2184b7512e808a3a4d00421254461fa203673fa7e5111f6864736f6c634300080a003360806040523480156200001157600080fd5b506040518060400160405280600681526020017f566f7465727300000000000000000000000000000000000000000000000000008152506040518060400160405280600481526020017f564f544500000000000000000000000000000000000000000000000000000000815250816000908051906020019062000096929190620000b8565b508060019080519060200190620000af929190620000b8565b505050620001cd565b828054620000c69062000197565b90600052602060002090601f016020900481019282620000ea576000855562000136565b82601f106200010557805160ff191683800117855562000136565b8280016001018555821562000136579182015b828111156200013557825182559160200191906001019062000118565b5b50905062000145919062000149565b5090565b5b80821115620001645760008160009055506001016200014a565b5090565b7f4e487b7100000000000000000000000000000000000000000000000000000000600052602260045260246000fd5b60006002820490506001821680620001b057607f821691505b60208210811415620001c757620001c662000168565b5b50919050565b612deb80620001dd6000396000f3fe608060405234801561001057600080fd5b50600436106101165760003560e01c80636352211e116100a2578063a22cb46511610071578063a22cb46514610305578063b88d4fde14610321578063c87b56dd1461033d578063da58c7d91461036d578063e985e9c51461039d57610116565b80636352211e1461026b5780636a6278421461029b57806370a08231146102b757806395d89b41146102e757610116565b806318160ddd116100e957806318160ddd146101b557806323b872dd146101d35780632f745c59146101ef57806342842e0e1461021f5780634f6ccce71461023b57610116565b806301ffc9a71461011b57806306fdde031461014b578063081812fc14610169578063095ea7b314610199575b600080fd5b61013560048036038101906101309190611df7565b6103cd565b6040516101429190611e3f565b60405180910390f35b6101536103df565b6040516101609190611ef3565b60405180910390f35b610183600480360381019061017e9190611f4b565b610471565b6040516101909190611fb9565b60405180910390f35b6101b360048036038101906101ae9190612000565b6104b7565b005b6101bd6105cf565b6040516101ca919061204f565b60405180910390f35b6101ed60048036038101906101e8919061206a565b6105dc565b005b61020960048036038101906102049190612000565b61063c565b604051610216919061204f565b60405180910390f35b6102396004803603810190610234919061206a565b6106e1565b005b61025560048036038101906102509190611f4b565b610701565b604051610262919061204f565b60405180910390f35b61028560048036038101906102809190611f4b565b610772565b6040516102929190611fb9565b60405180910390f35b6102b560048036038101906102b091906120bd565b610824565b005b6102d160048036038101906102cc91906120bd565b61095a565b6040516102de919061204f565b60405180910390f35b6102ef610a12565b6040516102fc9190611ef3565b60405180910390f35b61031f600480360381019061031a9190612116565b610aa4565b005b61033b6004803603810190610336919061228b565b610aba565b005b61035760048036038101906103529190611f4b565b610b1c565b6040516103649190611ef3565b60405180910390f35b61038760048036038101906103829190611f4b565b610b84565b6040516103949190611fb9565b60405180910390f35b6103b760048036038101906103b2919061230e565b610bc3565b6040516103c49190611e3f565b60405180910390f35b60006103d882610c57565b9050919050565b6060600080546103ee9061237d565b80601f016020809104026020016040519081016040528092919081815260200182805461041a9061237d565b80156104675780601f1061043c57610100808354040283529160200191610467565b820191906000526020600020905b81548152906001019060200180831161044a57829003601f168201915b5050505050905090565b600061047c82610cd1565b6004600083815260200190815260200160002060009054906101000a900473ffffffffffffffffffffffffffffffffffffffff169050919050565b60006104c282610772565b90508073ffffffffffffffffffffffffffffffffffffffff168373ffffffffffffffffffffffffffffffffffffffff161415610533576040517f08c379a000000000000000000000000000000000000000000000000000000000815260040161052a90612421565b60405180910390fd5b8073ffffffffffffffffffffffffffffffffffffffff16610552610d1c565b73ffffffffffffffffffffffffffffffffffffffff16148061058157506105808161057b610d1c565b610bc3565b5b6105c0576040517f08c379a00000000000000000000000000000000000000000000000000000000081526004016105b7906124b3565b60405180910390fd5b6105ca8383610d24565b505050565b6000600880549050905090565b6105ed6105e7610d1c565b82610ddd565b61062c576040517f08c379a000000000000000000000000000000000000000000000000000000000815260040161062390612545565b60405180910390fd5b610637838383610e72565b505050565b60006106478361095a565b8210610688576040517f08c379a000000000000000000000000000000000000000000000000000000000815260040161067f906125d7565b60405180910390fd5b600660008473ffffffffffffffffffffffffffffffffffffffff1673ffffffffffffffffffffffffffffffffffffffff168152602001908152602001600020600083815260200190815260200160002054905092915050565b6106fc83838360405180602001604052806000815250610aba565b505050565b600061070b6105cf565b821061074c576040517f08c379a000000000000000000000000000000000000000000000000000000000815260040161074390612669565b60405180910390fd5b600882815481106107605761075f612689565b5b90600052602060002001549050919050565b6000806002600084815260200190815260200160002060009054906101000a900473ffffffffffffffffffffffffffffffffffffffff169050600073ffffffffffffffffffffffffffffffffffffffff168173ffffffffffffffffffffffffffffffffffffffff16141561081b576040517f08c379a000000000000000000000000000000000000000000000000000000000815260040161081290612704565b60405180910390fd5b80915050919050565b600b60008273ffffffffffffffffffffffffffffffffffffffff1673ffffffffffffffffffffffffffffffffffffffff16815260200190815260200160002060009054906101000a900460ff161561087b57600080fd5b600a819080600181540180825580915050600190039060005260206000200160009091909190916101000a81548173ffffffffffffffffffffffffffffffffffffffff021916908373ffffffffffffffffffffffffffffffffffffffff1602179055506001600b60008373ffffffffffffffffffffffffffffffffffffffff1673ffffffffffffffffffffffffffffffffffffffff16815260200190815260200160002060006101000a81548160ff02191690831515021790555060006001600a8054905061094a9190612753565b905061095682826110d9565b5050565b60008073ffffffffffffffffffffffffffffffffffffffff168273ffffffffffffffffffffffffffffffffffffffff1614156109cb576040517f08c379a00000000000000000000000000000000000000000000000000000000081526004016109c2906127f9565b60405180910390fd5b600360008373ffffffffffffffffffffffffffffffffffffffff1673ffffffffffffffffffffffffffffffffffffffff168152602001908152602001600020549050919050565b606060018054610a219061237d565b80601f0160208091040260200160405190810160405280929190818152602001828054610a4d9061237d565b8015610a9a5780601f10610a6f57610100808354040283529160200191610a9a565b820191906000526020600020905b815481529060010190602001808311610a7d57829003601f168201915b5050505050905090565b610ab6610aaf610d1c565b83836112b3565b5050565b610acb610ac5610d1c565b83610ddd565b610b0a576040517f08c379a0000000000000000000000000000000000000000000000000000000008152600401610b0190612545565b60405180910390fd5b610b1684848484611420565b50505050565b6060610b2782610cd1565b6000610b3161147c565b90506000815111610b515760405180602001604052806000815250610b7c565b80610b5b84611493565b604051602001610b6c929190612855565b6040516020818303038152906040525b915050919050565b600a8181548110610b9457600080fd5b906000526020600020016000915054906101000a900473ffffffffffffffffffffffffffffffffffffffff1681565b6000600560008473ffffffffffffffffffffffffffffffffffffffff1673ffffffffffffffffffffffffffffffffffffffff16815260200190815260200160002060008373ffffffffffffffffffffffffffffffffffffffff1673ffffffffffffffffffffffffffffffffffffffff16815260200190815260200160002060009054906101000a900460ff16905092915050565b60007f780e9d63000000000000000000000000000000000000000000000000000000007bffffffffffffffffffffffffffffffffffffffffffffffffffffffff1916827bffffffffffffffffffffffffffffffffffffffffffffffffffffffff19161480610cca5750610cc9826115f4565b5b9050919050565b610cda816116d6565b610d19576040517f08c379a0000000000000000000000000000000000000000000000000000000008152600401610d1090612704565b60405180910390fd5b50565b600033905090565b816004600083815260200190815260200160002060006101000a81548173ffffffffffffffffffffffffffffffffffffffff021916908373ffffffffffffffffffffffffffffffffffffffff160217905550808273ffffffffffffffffffffffffffffffffffffffff16610d9783610772565b73ffffffffffffffffffffffffffffffffffffffff167f8c5be1e5ebec7d5bd14f71427d1e84f3dd0314c0f7b2291e5b200ac8c7c3b92560405160405180910390a45050565b600080610de983610772565b90508073ffffffffffffffffffffffffffffffffffffffff168473ffffffffffffffffffffffffffffffffffffffff161480610e2b5750610e2a8185610bc3565b5b80610e6957508373ffffffffffffffffffffffffffffffffffffffff16610e5184610471565b73ffffffffffffffffffffffffffffffffffffffff16145b91505092915050565b8273ffffffffffffffffffffffffffffffffffffffff16610e9282610772565b73ffffffffffffffffffffffffffffffffffffffff1614610ee8576040517f08c379a0000000000000000000000000000000000000000000000000000000008152600401610edf906128eb565b60405180910390fd5b600073ffffffffffffffffffffffffffffffffffffffff168273ffffffffffffffffffffffffffffffffffffffff161415610f58576040517f08c379a0000000000000000000000000000000000000000000000000000000008152600401610f4f9061297d565b60405180910390fd5b610f63838383611742565b610f6e600082610d24565b6001600360008573ffffffffffffffffffffffffffffffffffffffff1673ffffffffffffffffffffffffffffffffffffffff1681526020019081526020016000206000828254610fbe9190612753565b925050819055506001600360008473ffffffffffffffffffffffffffffffffffffffff1673ffffffffffffffffffffffffffffffffffffffff1681526020019081526020016000206000828254611015919061299d565b92505081905550816002600083815260200190815260200160002060006101000a81548173ffffffffffffffffffffffffffffffffffffffff021916908373ffffffffffffffffffffffffffffffffffffffff160217905550808273ffffffffffffffffffffffffffffffffffffffff168473ffffffffffffffffffffffffffffffffffffffff167fddf252ad1be2c89b69c2b068fc378daa952ba7f163c4a11628f55a4df523b3ef60405160405180910390a46110d4838383611752565b505050565b600073ffffffffffffffffffffffffffffffffffffffff168273ffffffffffffffffffffffffffffffffffffffff161415611149576040517f08c379a000000000000000000000000000000000000000000000000000000000815260040161114090612a3f565b60405180910390fd5b611152816116d6565b15611192576040517f08c379a000000000000000000000000000000000000000000000000000000000815260040161118990612aab565b60405180910390fd5b61119e60008383611742565b6001600360008473ffffffffffffffffffffffffffffffffffffffff1673ffffffffffffffffffffffffffffffffffffffff16815260200190815260200160002060008282546111ee919061299d565b92505081905550816002600083815260200190815260200160002060006101000a81548173ffffffffffffffffffffffffffffffffffffffff021916908373ffffffffffffffffffffffffffffffffffffffff160217905550808273ffffffffffffffffffffffffffffffffffffffff16600073ffffffffffffffffffffffffffffffffffffffff167fddf252ad1be2c89b69c2b068fc378daa952ba7f163c4a11628f55a4df523b3ef60405160405180910390a46112af60008383611752565b5050565b8173ffffffffffffffffffffffffffffffffffffffff168373ffffffffffffffffffffffffffffffffffffffff161415611322576040517f08c379a000000000000000000000000000000000000000000000000000000000815260040161131990612b17565b60405180910390fd5b80600560008573ffffffffffffffffffffffffffffffffffffffff1673ffffffffffffffffffffffffffffffffffffffff16815260200190815260200160002060008473ffffffffffffffffffffffffffffffffffffffff1673ffffffffffffffffffffffffffffffffffffffff16815260200190815260200160002060006101000a81548160ff0219169083151502179055508173ffffffffffffffffffffffffffffffffffffffff168373ffffffffffffffffffffffffffffffffffffffff167f17307eab39ab6107e8899845ad3d59bd9653f200f220920489ca2b5937696c31836040516114139190611e3f565b60405180910390a3505050565b61142b848484610e72565b61143784848484611757565b611476576040517f08c379a000000000000000000000000000000000000000000000000000000000815260040161146d90612ba9565b60405180910390fd5b50505050565b606060405180602001604052806000815250905090565b606060008214156114db576040518060400160405280600181526020017f300000000000000000000000000000000000000000000000000000000000000081525090506115ef565b600082905060005b6000821461150d5780806114f690612bc9565b915050600a826115069190612c41565b91506114e3565b60008167ffffffffffffffff81111561152957611528612160565b5b6040519080825280601f01601f19166020018201604052801561155b5781602001600182028036833780820191505090505b5090505b600085146115e8576001826115749190612753565b9150600a856115839190612c72565b603061158f919061299d565b60f81b8183815181106115a5576115a4612689565b5b60200101907effffffffffffffffffffffffffffffffffffffffffffffffffffffffffffff1916908160001a905350600a856115e19190612c41565b945061155f565b8093505050505b919050565b60007f80ac58cd000000000000000000000000000000000000000000000000000000007bffffffffffffffffffffffffffffffffffffffffffffffffffffffff1916827bffffffffffffffffffffffffffffffffffffffffffffffffffffffff191614806116bf57507f5b5e139f000000000000000000000000000000000000000000000000000000007bffffffffffffffffffffffffffffffffffffffffffffffffffffffff1916827bffffffffffffffffffffffffffffffffffffffffffffffffffffffff1916145b806116cf57506116ce826118df565b5b9050919050565b60008073ffffffffffffffffffffffffffffffffffffffff166002600084815260200190815260200160002060009054906101000a900473ffffffffffffffffffffffffffffffffffffffff1673ffffffffffffffffffffffffffffffffffffffff1614159050919050565b61174d838383611949565b505050565b505050565b60006117788473ffffffffffffffffffffffffffffffffffffffff16611a5d565b156118d2578373ffffffffffffffffffffffffffffffffffffffff1663150b7a026117a1610d1c565b8786866040518563ffffffff1660e01b81526004016117c39493929190612cf8565b6020604051808303816000875af19250505080156117ff57506040513d601f19601f820116820180604052508101906117fc9190612d59565b60015b611882573d806000811461182f576040519150601f19603f3d011682016040523d82523d6000602084013e611834565b606091505b5060008151141561187a576040517f08c379a000000000000000000000000000000000000000000000000000000000815260040161187190612ba9565b60405180910390fd5b805181602001fd5b63150b7a0260e01b7bffffffffffffffffffffffffffffffffffffffffffffffffffffffff1916817bffffffffffffffffffffffffffffffffffffffffffffffffffffffff1916149150506118d7565b600190505b949350505050565b60007f01ffc9a7000000000000000000000000000000000000000000000000000000007bffffffffffffffffffffffffffffffffffffffffffffffffffffffff1916827bffffffffffffffffffffffffffffffffffffffffffffffffffffffff1916149050919050565b611954838383611a80565b600073ffffffffffffffffffffffffffffffffffffffff168373ffffffffffffffffffffffffffffffffffffffff1614156119975761199281611a85565b6119d6565b8173ffffffffffffffffffffffffffffffffffffffff168373ffffffffffffffffffffffffffffffffffffffff16146119d5576119d48382611ace565b5b5b600073ffffffffffffffffffffffffffffffffffffffff168273ffffffffffffffffffffffffffffffffffffffff161415611a1957611a1481611c3b565b611a58565b8273ffffffffffffffffffffffffffffffffffffffff168273ffffffffffffffffffffffffffffffffffffffff1614611a5757611a568282611d0c565b5b5b505050565b6000808273ffffffffffffffffffffffffffffffffffffffff163b119050919050565b505050565b6008805490506009600083815260200190815260200160002081905550600881908060018154018082558091505060019003906000526020600020016000909190919091505550565b60006001611adb8461095a565b611ae59190612753565b9050600060076000848152602001908152602001600020549050818114611bca576000600660008673ffffffffffffffffffffffffffffffffffffffff1673ffffffffffffffffffffffffffffffffffffffff168152602001908152602001600020600084815260200190815260200160002054905080600660008773ffffffffffffffffffffffffffffffffffffffff1673ffffffffffffffffffffffffffffffffffffffff168152602001908152602001600020600084815260200190815260200160002081905550816007600083815260200190815260200160002081905550505b6007600084815260200190815260200160002060009055600660008573ffffffffffffffffffffffffffffffffffffffff1673ffffffffffffffffffffffffffffffffffffffff16815260200190815260200160002060008381526020019081526020016000206000905550505050565b60006001600880549050611c4f9190612753565b9050600060096000848152602001908152602001600020549050600060088381548110611c7f57611c7e612689565b5b906000526020600020015490508060088381548110611ca157611ca0612689565b5b906000526020600020018190555081600960008381526020019081526020016000208190555060096000858152602001908152602001600020600090556008805480611cf057611cef612d86565b5b6001900381819060005260206000200160009055905550505050565b6000611d178361095a565b905081600660008573ffffffffffffffffffffffffffffffffffffffff1673ffffffffffffffffffffffffffffffffffffffff168152602001908152602001600020600083815260200190815260200160002081905550806007600084815260200190815260200160002081905550505050565b6000604051905090565b600080fd5b600080fd5b60007fffffffff0000000000000000000000000000000000000000000000000000000082169050919050565b611dd481611d9f565b8114611ddf57600080fd5b50565b600081359050611df181611dcb565b92915050565b600060208284031215611e0d57611e0c611d95565b5b6000611e1b84828501611de2565b91505092915050565b60008115159050919050565b611e3981611e24565b82525050565b6000602082019050611e546000830184611e30565b92915050565b600081519050919050565b600082825260208201905092915050565b60005b83811015611e94578082015181840152602081019050611e79565b83811115611ea3576000848401525b50505050565b6000601f19601f8301169050919050565b6000611ec582611e5a565b611ecf8185611e65565b9350611edf818560208601611e76565b611ee881611ea9565b840191505092915050565b60006020820190508181036000830152611f0d8184611eba565b905092915050565b6000819050919050565b611f2881611f15565b8114611f3357600080fd5b50565b600081359050611f4581611f1f565b92915050565b600060208284031215611f6157611f60611d95565b5b6000611f6f84828501611f36565b91505092915050565b600073ffffffffffffffffffffffffffffffffffffffff82169050919050565b6000611fa382611f78565b9050919050565b611fb381611f98565b82525050565b6000602082019050611fce6000830184611faa565b92915050565b611fdd81611f98565b8114611fe857600080fd5b50565b600081359050611ffa81611fd4565b92915050565b6000806040838503121561201757612016611d95565b5b600061202585828601611feb565b925050602061203685828601611f36565b9150509250929050565b61204981611f15565b82525050565b60006020820190506120646000830184612040565b92915050565b60008060006060848603121561208357612082611d95565b5b600061209186828701611feb565b93505060206120a286828701611feb565b92505060406120b386828701611f36565b9150509250925092565b6000602082840312156120d3576120d2611d95565b5b60006120e184828501611feb565b91505092915050565b6120f381611e24565b81146120fe57600080fd5b50565b600081359050612110816120ea565b92915050565b6000806040838503121561212d5761212c611d95565b5b600061213b85828601611feb565b925050602061214c85828601612101565b9150509250929050565b600080fd5b600080fd5b7f4e487b7100000000000000000000000000000000000000000000000000000000600052604160045260246000fd5b61219882611ea9565b810181811067ffffffffffffffff821117156121b7576121b6612160565b5b80604052505050565b60006121ca611d8b565b90506121d6828261218f565b919050565b600067ffffffffffffffff8211156121f6576121f5612160565b5b6121ff82611ea9565b9050602081019050919050565b82818337600083830152505050565b600061222e612229846121db565b6121c0565b90508281526020810184848401111561224a5761224961215b565b5b61225584828561220c565b509392505050565b600082601f83011261227257612271612156565b5b813561228284826020860161221b565b91505092915050565b600080600080608085870312156122a5576122a4611d95565b5b60006122b387828801611feb565b94505060206122c487828801611feb565b93505060406122d587828801611f36565b925050606085013567ffffffffffffffff8111156122f6576122f5611d9a565b5b6123028782880161225d565b91505092959194509250565b6000806040838503121561232557612324611d95565b5b600061233385828601611feb565b925050602061234485828601611feb565b9150509250929050565b7f4e487b7100000000000000000000000000000000000000000000000000000000600052602260045260246000fd5b6000600282049050600182168061239557607f821691505b602082108114156123a9576123a861234e565b5b50919050565b7f4552433732313a20617070726f76616c20746f2063757272656e74206f776e6560008201527f7200000000000000000000000000000000000000000000000000000000000000602082015250565b600061240b602183611e65565b9150612416826123af565b604082019050919050565b6000602082019050818103600083015261243a816123fe565b9050919050565b7f4552433732313a20617070726f76652063616c6c6572206973206e6f7420746f60008201527f6b656e206f776e6572206e6f7220617070726f76656420666f7220616c6c0000602082015250565b600061249d603e83611e65565b91506124a882612441565b604082019050919050565b600060208201905081810360008301526124cc81612490565b9050919050565b7f4552433732313a2063616c6c6572206973206e6f7420746f6b656e206f776e6560008201527f72206e6f7220617070726f766564000000000000000000000000000000000000602082015250565b600061252f602e83611e65565b915061253a826124d3565b604082019050919050565b6000602082019050818103600083015261255e81612522565b9050919050565b7f455243373231456e756d657261626c653a206f776e657220696e646578206f7560008201527f74206f6620626f756e6473000000000000000000000000000000000000000000602082015250565b60006125c1602b83611e65565b91506125cc82612565565b604082019050919050565b600060208201905081810360008301526125f0816125b4565b9050919050565b7f455243373231456e756d657261626c653a20676c6f62616c20696e646578206f60008201527f7574206f6620626f756e64730000000000000000000000000000000000000000602082015250565b6000612653602c83611e65565b915061265e826125f7565b604082019050919050565b6000602082019050818103600083015261268281612646565b9050919050565b7f4e487b7100000000000000000000000000000000000000000000000000000000600052603260045260246000fd5b7f4552433732313a20696e76616c696420746f6b656e2049440000000000000000600082015250565b60006126ee601883611e65565b91506126f9826126b8565b602082019050919050565b6000602082019050818103600083015261271d816126e1565b9050919050565b7f4e487b7100000000000000000000000000000000000000000000000000000000600052601160045260246000fd5b600061275e82611f15565b915061276983611f15565b92508282101561277c5761277b612724565b5b828203905092915050565b7f4552433732313a2061646472657373207a65726f206973206e6f74206120766160008201527f6c6964206f776e65720000000000000000000000000000000000000000000000602082015250565b60006127e3602983611e65565b91506127ee82612787565b604082019050919050565b60006020820190508181036000830152612812816127d6565b9050919050565b600081905092915050565b600061282f82611e5a565b6128398185612819565b9350612849818560208601611e76565b80840191505092915050565b60006128618285612824565b915061286d8284612824565b91508190509392505050565b7f4552433732313a207472616e736665722066726f6d20696e636f72726563742060008201527f6f776e6572000000000000000000000000000000000000000000000000000000602082015250565b60006128d5602583611e65565b91506128e082612879565b604082019050919050565b60006020820190508181036000830152612904816128c8565b9050919050565b7f4552433732313a207472616e7366657220746f20746865207a65726f2061646460008201527f7265737300000000000000000000000000000000000000000000000000000000602082015250565b6000612967602483611e65565b91506129728261290b565b604082019050919050565b600060208201905081810360008301526129968161295a565b9050919050565b60006129a882611f15565b91506129b383611f15565b9250827fffffffffffffffffffffffffffffffffffffffffffffffffffffffffffffffff038211156129e8576129e7612724565b5b828201905092915050565b7f4552433732313a206d696e7420746f20746865207a65726f2061646472657373600082015250565b6000612a29602083611e65565b9150612a34826129f3565b602082019050919050565b60006020820190508181036000830152612a5881612a1c565b9050919050565b7f4552433732313a20746f6b656e20616c7265616479206d696e74656400000000600082015250565b6000612a95601c83611e65565b9150612aa082612a5f565b602082019050919050565b60006020820190508181036000830152612ac481612a88565b9050919050565b7f4552433732313a20617070726f766520746f2063616c6c657200000000000000600082015250565b6000612b01601983611e65565b9150612b0c82612acb565b602082019050919050565b60006020820190508181036000830152612b3081612af4565b9050919050565b7f4552433732313a207472616e7366657220746f206e6f6e20455243373231526560008201527f63656976657220696d706c656d656e7465720000000000000000000000000000602082015250565b6000612b93603283611e65565b9150612b9e82612b37565b604082019050919050565b60006020820190508181036000830152612bc281612b86565b9050919050565b6000612bd482611f15565b91507fffffffffffffffffffffffffffffffffffffffffffffffffffffffffffffffff821415612c0757612c06612724565b5b600182019050919050565b7f4e487b7100000000000000000000000000000000000000000000000000000000600052601260045260246000fd5b6000612c4c82611f15565b9150612c5783611f15565b925082612c6757612c66612c12565b5b828204905092915050565b6000612c7d82611f15565b9150612c8883611f15565b925082612c9857612c97612c12565b5b828206905092915050565b600081519050919050565b600082825260208201905092915050565b6000612cca82612ca3565b612cd48185612cae565b9350612ce4818560208601611e76565b612ced81611ea9565b840191505092915050565b6000608082019050612d0d6000830187611faa565b612d1a6020830186611faa565b612d276040830185612040565b8181036060830152612d398184612cbf565b905095945050505050565b600081519050612d5381611dcb565b92915050565b600060208284031215612d6f57612d6e611d95565b5b6000612d7d84828501612d44565b91505092915050565b7f4e487b7100000000000000000000000000000000000000000000000000000000600052603160045260246000fdfea26469706673582212203832fca8ef95e67b3fe2971fa3c26bf1e484c411b1e0f339d075b3bd94cfe79464736f6c634300080a0033",
  "immutableReferences": {},
  "source": "pragma solidity ^0.8.7;\r\n\r\nimport \"./Voters.sol\";\r\n\r\ncontract Elections {\r\n    //This will be stored eventually in a public mapping, so one can verify if one voted or not, but not know who is that one.\r\n\r\n    Voters private _votersContract;\r\n\r\n    struct voter {\r\n        uint256 voterNumber;\r\n        bool exists;\r\n        bool voted;\r\n    }\r\n\r\n    struct VotingDateTime {\r\n        uint256 startDateTicks;\r\n        uint256 endDateTicks;\r\n    }\r\n\r\n    struct Candidate {\r\n        uint256 candidateCount;\r\n        string firstName;\r\n        string lastName;\r\n        uint256 voteCount;\r\n        string politicalView;\r\n    }\r\n\r\n    VotingDateTime public votingDateTime;\r\n    uint256 public totalVoter = 0; //Number of Voters added to the system\r\n    uint256 public totalVotesCount = 0; //Number of voters that actually came to vote\r\n    address public ballotOfficialAddress;\r\n    string public ballotOfficialName;\r\n    uint256 public candidateCount;\r\n    mapping(uint256 => Candidate) public candidates;\r\n    mapping(address => voter) public voterRegister; //Public mapping of voters, with their wallet address only.\r\n\r\n    //creates a new ballot/elections contract\r\n    constructor() public {\r\n        ballotOfficialAddress = msg.sender; //Sets the wallet address of the contract's creator as \"admin\".\r\n        ballotOfficialName = \"Israel Elections 2022\"; //ballotOfficialName - '' for example\r\n        _votersContract = new Voters();\r\n    }\r\n\r\n    modifier onlyOfficial() {\r\n        require(msg.sender == ballotOfficialAddress);\r\n        _;\r\n    }\r\n\r\n    modifier electionTime(uint256 _curentTicksTime) {\r\n        require(\r\n            _curentTicksTime >= votingDateTime.startDateTicks &&\r\n                _curentTicksTime <= votingDateTime.endDateTicks\r\n        );\r\n        _;\r\n    }\r\n\r\n    event voterAdded(address voter);\r\n    event voteStarted();\r\n    event voteEnded(uint256 totalVotesCount);\r\n    event voteDone(address voter);\r\n\r\n    function setVotingDate(uint256 _startDateTicks, uint256 _endDateTicks)\r\n        public\r\n        onlyOfficial\r\n    {\r\n        votingDateTime = VotingDateTime(_startDateTicks, _endDateTicks);\r\n    }\r\n\r\n    function getVotingDate() public view returns (VotingDateTime memory) {\r\n        return votingDateTime;\r\n    }\r\n\r\n    //Creates a candidate for the elections. Call addCandidate to add it to the mapping.\r\n    //(id, firstName, lastName, politicalView)\r\n    function createCandidate(\r\n        string memory _firstName,\r\n        string memory _lastName,\r\n        string memory _politicalView\r\n    ) public onlyOfficial {\r\n        addCandidate(_firstName, _lastName, _politicalView);\r\n    }\r\n\r\n    //Adds a candidate to the elections.\r\n    //(CandidateCount, id, firstName, lastName, voteCount, politicalView)\r\n    function addCandidate(\r\n        string memory _firstName,\r\n        string memory _lastName,\r\n        string memory _politicalView\r\n    ) private {\r\n        candidates[candidateCount] = Candidate(\r\n            candidateCount,\r\n            _firstName,\r\n            _lastName,\r\n            0,\r\n            _politicalView\r\n        );\r\n        candidateCount++;\r\n    }\r\n\r\n    //Returns candidate struct by its candidateCount value\r\n    //(CandidateCount, id, firstName, lastName, voteCount, politicalView)\r\n    function getCandidateByCount(uint256 _candidateCount)\r\n        public\r\n        view\r\n        returns (Candidate memory)\r\n    {\r\n        return candidates[_candidateCount];\r\n    }\r\n\r\n    //Returns uint candidate vote count by its candidateCount value.\r\n    function getCandidateVoteCount(uint256 _candidateCount)\r\n        public\r\n        view\r\n        returns (uint256)\r\n    {\r\n        return candidates[_candidateCount].voteCount;\r\n    }\r\n\r\n    //Returns voter struct by voter address\r\n    function getVoterStructByAddress(address _voterAddress)\r\n        public\r\n        view\r\n        returns (voter memory)\r\n    {\r\n        return voterRegister[_voterAddress];\r\n    }\r\n\r\n    //Returns bool if a voter voted or not by voter address\r\n    function getVoterVotedByAddress(address _voterAddress)\r\n        public\r\n        view\r\n        returns (bool)\r\n    {\r\n        return voterRegister[_voterAddress].voted;\r\n    }\r\n\r\n    //Returns uint voter number by voter address\r\n    function getVoterNumberByAddress(address _voterAddress)\r\n        public\r\n        view\r\n        returns (uint256)\r\n    {\r\n        return voterRegister[_voterAddress].voterNumber;\r\n    }\r\n\r\n    function getVoters() public view returns (uint256 supplyCount) {\r\n        return _votersContract.totalSupply();\r\n    }\r\n\r\n    function getOwnerOf(uint256 _id)\r\n        public\r\n        view\r\n        returns (address ownerAddress)\r\n    {\r\n        return _votersContract.ownerOf(_id);\r\n    }\r\n\r\n    //add voter\r\n    function addVoter(\r\n        address _voterAddress /*, string memory _voterName*/\r\n    ) public onlyOfficial {\r\n        _votersContract.mint(_voterAddress);\r\n        voter memory newVoter;\r\n        newVoter.exists = true;\r\n        newVoter.voted = false;\r\n        newVoter.voterNumber = totalVoter++;\r\n        voterRegister[_voterAddress] = newVoter;\r\n        emit voterAdded(_voterAddress);\r\n    }\r\n\r\n    //voters vote by indicating their choice (true/false)\r\n    function voteNow(uint256 _candidateid, uint256 _curentTicksTime)\r\n        public\r\n        electionTime(_curentTicksTime)\r\n        returns (bool voted)\r\n    {\r\n        bool found = false;\r\n        if (\r\n            voterRegister[msg.sender].voterNumber > 0 &&\r\n            !voterRegister[msg.sender].voted\r\n        ) {\r\n            voterRegister[msg.sender].voted = true;\r\n            candidates[_candidateid].voteCount++;\r\n            totalVotesCount++; //Number of total voters in the elections\r\n            found = true;\r\n        }\r\n        emit voteDone(msg.sender);\r\n        return found;\r\n    }\r\n}\r\n",
  "sourcePath": "C:\\Users\\Alex\\Desktop\\election\\contracts\\Elections.sol",
  "compiler": {
    "name": "solc",
    "version": "0.8.10+commit.fc410830.Emscripten.clang"
  },
  "schemaVersion": "3.4.4",
  "updatedAt": "2022-07-30T09:14:02.958Z",
  "networkType": "ethereum",
  "devdoc": {
    "kind": "dev",
    "methods": {},
    "version": 1
  },
  "userdoc": {
    "kind": "user",
    "methods": {},
    "version": 1
  }
}