{
  "contractName": "Voters",
  "abi": [
    {
      "inputs": [],
      "stateMutability": "nonpayable",
      "type": "constructor"
    },
    {
      "anonymous": false,
      "inputs": [
        {
          "indexed": true,
          "internalType": "address",
          "name": "owner",
          "type": "address"
        },
        {
          "indexed": true,
          "internalType": "address",
          "name": "approved",
          "type": "address"
        },
        {
          "indexed": true,
          "internalType": "uint256",
          "name": "tokenId",
          "type": "uint256"
        }
      ],
      "name": "Approval",
      "type": "event"
    },
    {
      "anonymous": false,
      "inputs": [
        {
          "indexed": true,
          "internalType": "address",
          "name": "owner",
          "type": "address"
        },
        {
          "indexed": true,
          "internalType": "address",
          "name": "operator",
          "type": "address"
        },
        {
          "indexed": false,
          "internalType": "bool",
          "name": "approved",
          "type": "bool"
        }
      ],
      "name": "ApprovalForAll",
      "type": "event"
    },
    {
      "anonymous": false,
      "inputs": [
        {
          "indexed": true,
          "internalType": "address",
          "name": "from",
          "type": "address"
        },
        {
          "indexed": true,
          "internalType": "address",
          "name": "to",
          "type": "address"
        },
        {
          "indexed": true,
          "internalType": "uint256",
          "name": "tokenId",
          "type": "uint256"
        }
      ],
      "name": "Transfer",
      "type": "event"
    },
    {
      "inputs": [
        {
          "internalType": "address",
          "name": "to",
          "type": "address"
        },
        {
          "internalType": "uint256",
          "name": "tokenId",
          "type": "uint256"
        }
      ],
      "name": "approve",
      "outputs": [],
      "stateMutability": "nonpayable",
      "type": "function"
    },
    {
      "inputs": [
        {
          "internalType": "address",
          "name": "owner",
          "type": "address"
        }
      ],
      "name": "balanceOf",
      "outputs": [
        {
          "internalType": "uint256",
          "name": "",
          "type": "uint256"
        }
      ],
      "stateMutability": "view",
      "type": "function",
      "constant": true
    },
    {
      "inputs": [
        {
          "internalType": "uint256",
          "name": "tokenId",
          "type": "uint256"
        }
      ],
      "name": "getApproved",
      "outputs": [
        {
          "internalType": "address",
          "name": "",
          "type": "address"
        }
      ],
      "stateMutability": "view",
      "type": "function",
      "constant": true
    },
    {
      "inputs": [
        {
          "internalType": "address",
          "name": "owner",
          "type": "address"
        },
        {
          "internalType": "address",
          "name": "operator",
          "type": "address"
        }
      ],
      "name": "isApprovedForAll",
      "outputs": [
        {
          "internalType": "bool",
          "name": "",
          "type": "bool"
        }
      ],
      "stateMutability": "view",
      "type": "function",
      "constant": true
    },
    {
      "inputs": [],
      "name": "name",
      "outputs": [
        {
          "internalType": "string",
          "name": "",
          "type": "string"
        }
      ],
      "stateMutability": "view",
      "type": "function",
      "constant": true
    },
    {
      "inputs": [
        {
          "internalType": "uint256",
          "name": "tokenId",
          "type": "uint256"
        }
      ],
      "name": "ownerOf",
      "outputs": [
        {
          "internalType": "address",
          "name": "",
          "type": "address"
        }
      ],
      "stateMutability": "view",
      "type": "function",
      "constant": true
    },
    {
      "inputs": [
        {
          "internalType": "address",
          "name": "from",
          "type": "address"
        },
        {
          "internalType": "address",
          "name": "to",
          "type": "address"
        },
        {
          "internalType": "uint256",
          "name": "tokenId",
          "type": "uint256"
        }
      ],
      "name": "safeTransferFrom",
      "outputs": [],
      "stateMutability": "nonpayable",
      "type": "function"
    },
    {
      "inputs": [
        {
          "internalType": "address",
          "name": "from",
          "type": "address"
        },
        {
          "internalType": "address",
          "name": "to",
          "type": "address"
        },
        {
          "internalType": "uint256",
          "name": "tokenId",
          "type": "uint256"
        },
        {
          "internalType": "bytes",
          "name": "data",
          "type": "bytes"
        }
      ],
      "name": "safeTransferFrom",
      "outputs": [],
      "stateMutability": "nonpayable",
      "type": "function"
    },
    {
      "inputs": [
        {
          "internalType": "address",
          "name": "operator",
          "type": "address"
        },
        {
          "internalType": "bool",
          "name": "approved",
          "type": "bool"
        }
      ],
      "name": "setApprovalForAll",
      "outputs": [],
      "stateMutability": "nonpayable",
      "type": "function"
    },
    {
      "inputs": [],
      "name": "symbol",
      "outputs": [
        {
          "internalType": "string",
          "name": "",
          "type": "string"
        }
      ],
      "stateMutability": "view",
      "type": "function",
      "constant": true
    },
    {
      "inputs": [
        {
          "internalType": "uint256",
          "name": "index",
          "type": "uint256"
        }
      ],
      "name": "tokenByIndex",
      "outputs": [
        {
          "internalType": "uint256",
          "name": "",
          "type": "uint256"
        }
      ],
      "stateMutability": "view",
      "type": "function",
      "constant": true
    },
    {
      "inputs": [
        {
          "internalType": "address",
          "name": "owner",
          "type": "address"
        },
        {
          "internalType": "uint256",
          "name": "index",
          "type": "uint256"
        }
      ],
      "name": "tokenOfOwnerByIndex",
      "outputs": [
        {
          "internalType": "uint256",
          "name": "",
          "type": "uint256"
        }
      ],
      "stateMutability": "view",
      "type": "function",
      "constant": true
    },
    {
      "inputs": [
        {
          "internalType": "uint256",
          "name": "tokenId",
          "type": "uint256"
        }
      ],
      "name": "tokenURI",
      "outputs": [
        {
          "internalType": "string",
          "name": "",
          "type": "string"
        }
      ],
      "stateMutability": "view",
      "type": "function",
      "constant": true
    },
    {
      "inputs": [],
      "name": "totalSupply",
      "outputs": [
        {
          "internalType": "uint256",
          "name": "",
          "type": "uint256"
        }
      ],
      "stateMutability": "view",
      "type": "function",
      "constant": true
    },
    {
      "inputs": [
        {
          "internalType": "address",
          "name": "from",
          "type": "address"
        },
        {
          "internalType": "address",
          "name": "to",
          "type": "address"
        },
        {
          "internalType": "uint256",
          "name": "tokenId",
          "type": "uint256"
        }
      ],
      "name": "transferFrom",
      "outputs": [],
      "stateMutability": "nonpayable",
      "type": "function"
    },
    {
      "inputs": [
        {
          "internalType": "uint256",
          "name": "",
          "type": "uint256"
        }
      ],
      "name": "voters",
      "outputs": [
        {
          "internalType": "address",
          "name": "",
          "type": "address"
        }
      ],
      "stateMutability": "view",
      "type": "function",
      "constant": true
    },
    {
      "inputs": [
        {
          "internalType": "address",
          "name": "voter",
          "type": "address"
        }
      ],
      "name": "mint",
      "outputs": [],
      "stateMutability": "nonpayable",
      "type": "function"
    },
    {
      "inputs": [
        {
          "internalType": "bytes4",
          "name": "interfaceId",
          "type": "bytes4"
        }
      ],
      "name": "supportsInterface",
      "outputs": [
        {
          "internalType": "bool",
          "name": "",
          "type": "bool"
        }
      ],
      "stateMutability": "view",
      "type": "function",
      "constant": true
    }
  ],
  "bytecode": "0x60806040523480156200001157600080fd5b506040518060400160405280600681526020017f566f7465727300000000000000000000000000000000000000000000000000008152506040518060400160405280600481526020017f564f544500000000000000000000000000000000000000000000000000000000815250816000908051906020019062000096929190620000b8565b508060019080519060200190620000af929190620000b8565b505050620001cd565b828054620000c69062000197565b90600052602060002090601f016020900481019282620000ea576000855562000136565b82601f106200010557805160ff191683800117855562000136565b8280016001018555821562000136579182015b828111156200013557825182559160200191906001019062000118565b5b50905062000145919062000149565b5090565b5b80821115620001645760008160009055506001016200014a565b5090565b7f4e487b7100000000000000000000000000000000000000000000000000000000600052602260045260246000fd5b60006002820490506001821680620001b057607f821691505b60208210811415620001c757620001c662000168565b5b50919050565b612deb80620001dd6000396000f3fe608060405234801561001057600080fd5b50600436106101165760003560e01c80636352211e116100a2578063a22cb46511610071578063a22cb46514610305578063b88d4fde14610321578063c87b56dd1461033d578063da58c7d91461036d578063e985e9c51461039d57610116565b80636352211e1461026b5780636a6278421461029b57806370a08231146102b757806395d89b41146102e757610116565b806318160ddd116100e957806318160ddd146101b557806323b872dd146101d35780632f745c59146101ef57806342842e0e1461021f5780634f6ccce71461023b57610116565b806301ffc9a71461011b57806306fdde031461014b578063081812fc14610169578063095ea7b314610199575b600080fd5b61013560048036038101906101309190611df7565b6103cd565b6040516101429190611e3f565b60405180910390f35b6101536103df565b6040516101609190611ef3565b60405180910390f35b610183600480360381019061017e9190611f4b565b610471565b6040516101909190611fb9565b60405180910390f35b6101b360048036038101906101ae9190612000565b6104b7565b005b6101bd6105cf565b6040516101ca919061204f565b60405180910390f35b6101ed60048036038101906101e8919061206a565b6105dc565b005b61020960048036038101906102049190612000565b61063c565b604051610216919061204f565b60405180910390f35b6102396004803603810190610234919061206a565b6106e1565b005b61025560048036038101906102509190611f4b565b610701565b604051610262919061204f565b60405180910390f35b61028560048036038101906102809190611f4b565b610772565b6040516102929190611fb9565b60405180910390f35b6102b560048036038101906102b091906120bd565b610824565b005b6102d160048036038101906102cc91906120bd565b61095a565b6040516102de919061204f565b60405180910390f35b6102ef610a12565b6040516102fc9190611ef3565b60405180910390f35b61031f600480360381019061031a9190612116565b610aa4565b005b61033b6004803603810190610336919061228b565b610aba565b005b61035760048036038101906103529190611f4b565b610b1c565b6040516103649190611ef3565b60405180910390f35b61038760048036038101906103829190611f4b565b610b84565b6040516103949190611fb9565b60405180910390f35b6103b760048036038101906103b2919061230e565b610bc3565b6040516103c49190611e3f565b60405180910390f35b60006103d882610c57565b9050919050565b6060600080546103ee9061237d565b80601f016020809104026020016040519081016040528092919081815260200182805461041a9061237d565b80156104675780601f1061043c57610100808354040283529160200191610467565b820191906000526020600020905b81548152906001019060200180831161044a57829003601f168201915b5050505050905090565b600061047c82610cd1565b6004600083815260200190815260200160002060009054906101000a900473ffffffffffffffffffffffffffffffffffffffff169050919050565b60006104c282610772565b90508073ffffffffffffffffffffffffffffffffffffffff168373ffffffffffffffffffffffffffffffffffffffff161415610533576040517f08c379a000000000000000000000000000000000000000000000000000000000815260040161052a90612421565b60405180910390fd5b8073ffffffffffffffffffffffffffffffffffffffff16610552610d1c565b73ffffffffffffffffffffffffffffffffffffffff16148061058157506105808161057b610d1c565b610bc3565b5b6105c0576040517f08c379a00000000000000000000000000000000000000000000000000000000081526004016105b7906124b3565b60405180910390fd5b6105ca8383610d24565b505050565b6000600880549050905090565b6105ed6105e7610d1c565b82610ddd565b61062c576040517f08c379a000000000000000000000000000000000000000000000000000000000815260040161062390612545565b60405180910390fd5b610637838383610e72565b505050565b60006106478361095a565b8210610688576040517f08c379a000000000000000000000000000000000000000000000000000000000815260040161067f906125d7565b60405180910390fd5b600660008473ffffffffffffffffffffffffffffffffffffffff1673ffffffffffffffffffffffffffffffffffffffff168152602001908152602001600020600083815260200190815260200160002054905092915050565b6106fc83838360405180602001604052806000815250610aba565b505050565b600061070b6105cf565b821061074c576040517f08c379a000000000000000000000000000000000000000000000000000000000815260040161074390612669565b60405180910390fd5b600882815481106107605761075f612689565b5b90600052602060002001549050919050565b6000806002600084815260200190815260200160002060009054906101000a900473ffffffffffffffffffffffffffffffffffffffff169050600073ffffffffffffffffffffffffffffffffffffffff168173ffffffffffffffffffffffffffffffffffffffff16141561081b576040517f08c379a000000000000000000000000000000000000000000000000000000000815260040161081290612704565b60405180910390fd5b80915050919050565b600b60008273ffffffffffffffffffffffffffffffffffffffff1673ffffffffffffffffffffffffffffffffffffffff16815260200190815260200160002060009054906101000a900460ff161561087b57600080fd5b600a819080600181540180825580915050600190039060005260206000200160009091909190916101000a81548173ffffffffffffffffffffffffffffffffffffffff021916908373ffffffffffffffffffffffffffffffffffffffff1602179055506001600b60008373ffffffffffffffffffffffffffffffffffffffff1673ffffffffffffffffffffffffffffffffffffffff16815260200190815260200160002060006101000a81548160ff02191690831515021790555060006001600a8054905061094a9190612753565b905061095682826110d9565b5050565b60008073ffffffffffffffffffffffffffffffffffffffff168273ffffffffffffffffffffffffffffffffffffffff1614156109cb576040517f08c379a00000000000000000000000000000000000000000000000000000000081526004016109c2906127f9565b60405180910390fd5b600360008373ffffffffffffffffffffffffffffffffffffffff1673ffffffffffffffffffffffffffffffffffffffff168152602001908152602001600020549050919050565b606060018054610a219061237d565b80601f0160208091040260200160405190810160405280929190818152602001828054610a4d9061237d565b8015610a9a5780601f10610a6f57610100808354040283529160200191610a9a565b820191906000526020600020905b815481529060010190602001808311610a7d57829003601f168201915b5050505050905090565b610ab6610aaf610d1c565b83836112b3565b5050565b610acb610ac5610d1c565b83610ddd565b610b0a576040517f08c379a0000000000000000000000000000000000000000000000000000000008152600401610b0190612545565b60405180910390fd5b610b1684848484611420565b50505050565b6060610b2782610cd1565b6000610b3161147c565b90506000815111610b515760405180602001604052806000815250610b7c565b80610b5b84611493565b604051602001610b6c929190612855565b6040516020818303038152906040525b915050919050565b600a8181548110610b9457600080fd5b906000526020600020016000915054906101000a900473ffffffffffffffffffffffffffffffffffffffff1681565b6000600560008473ffffffffffffffffffffffffffffffffffffffff1673ffffffffffffffffffffffffffffffffffffffff16815260200190815260200160002060008373ffffffffffffffffffffffffffffffffffffffff1673ffffffffffffffffffffffffffffffffffffffff16815260200190815260200160002060009054906101000a900460ff16905092915050565b60007f780e9d63000000000000000000000000000000000000000000000000000000007bffffffffffffffffffffffffffffffffffffffffffffffffffffffff1916827bffffffffffffffffffffffffffffffffffffffffffffffffffffffff19161480610cca5750610cc9826115f4565b5b9050919050565b610cda816116d6565b610d19576040517f08c379a0000000000000000000000000000000000000000000000000000000008152600401610d1090612704565b60405180910390fd5b50565b600033905090565b816004600083815260200190815260200160002060006101000a81548173ffffffffffffffffffffffffffffffffffffffff021916908373ffffffffffffffffffffffffffffffffffffffff160217905550808273ffffffffffffffffffffffffffffffffffffffff16610d9783610772565b73ffffffffffffffffffffffffffffffffffffffff167f8c5be1e5ebec7d5bd14f71427d1e84f3dd0314c0f7b2291e5b200ac8c7c3b92560405160405180910390a45050565b600080610de983610772565b90508073ffffffffffffffffffffffffffffffffffffffff168473ffffffffffffffffffffffffffffffffffffffff161480610e2b5750610e2a8185610bc3565b5b80610e6957508373ffffffffffffffffffffffffffffffffffffffff16610e5184610471565b73ffffffffffffffffffffffffffffffffffffffff16145b91505092915050565b8273ffffffffffffffffffffffffffffffffffffffff16610e9282610772565b73ffffffffffffffffffffffffffffffffffffffff1614610ee8576040517f08c379a0000000000000000000000000000000000000000000000000000000008152600401610edf906128eb565b60405180910390fd5b600073ffffffffffffffffffffffffffffffffffffffff168273ffffffffffffffffffffffffffffffffffffffff161415610f58576040517f08c379a0000000000000000000000000000000000000000000000000000000008152600401610f4f9061297d565b60405180910390fd5b610f63838383611742565b610f6e600082610d24565b6001600360008573ffffffffffffffffffffffffffffffffffffffff1673ffffffffffffffffffffffffffffffffffffffff1681526020019081526020016000206000828254610fbe9190612753565b925050819055506001600360008473ffffffffffffffffffffffffffffffffffffffff1673ffffffffffffffffffffffffffffffffffffffff1681526020019081526020016000206000828254611015919061299d565b92505081905550816002600083815260200190815260200160002060006101000a81548173ffffffffffffffffffffffffffffffffffffffff021916908373ffffffffffffffffffffffffffffffffffffffff160217905550808273ffffffffffffffffffffffffffffffffffffffff168473ffffffffffffffffffffffffffffffffffffffff167fddf252ad1be2c89b69c2b068fc378daa952ba7f163c4a11628f55a4df523b3ef60405160405180910390a46110d4838383611752565b505050565b600073ffffffffffffffffffffffffffffffffffffffff168273ffffffffffffffffffffffffffffffffffffffff161415611149576040517f08c379a000000000000000000000000000000000000000000000000000000000815260040161114090612a3f565b60405180910390fd5b611152816116d6565b15611192576040517f08c379a000000000000000000000000000000000000000000000000000000000815260040161118990612aab565b60405180910390fd5b61119e60008383611742565b6001600360008473ffffffffffffffffffffffffffffffffffffffff1673ffffffffffffffffffffffffffffffffffffffff16815260200190815260200160002060008282546111ee919061299d565b92505081905550816002600083815260200190815260200160002060006101000a81548173ffffffffffffffffffffffffffffffffffffffff021916908373ffffffffffffffffffffffffffffffffffffffff160217905550808273ffffffffffffffffffffffffffffffffffffffff16600073ffffffffffffffffffffffffffffffffffffffff167fddf252ad1be2c89b69c2b068fc378daa952ba7f163c4a11628f55a4df523b3ef60405160405180910390a46112af60008383611752565b5050565b8173ffffffffffffffffffffffffffffffffffffffff168373ffffffffffffffffffffffffffffffffffffffff161415611322576040517f08c379a000000000000000000000000000000000000000000000000000000000815260040161131990612b17565b60405180910390fd5b80600560008573ffffffffffffffffffffffffffffffffffffffff1673ffffffffffffffffffffffffffffffffffffffff16815260200190815260200160002060008473ffffffffffffffffffffffffffffffffffffffff1673ffffffffffffffffffffffffffffffffffffffff16815260200190815260200160002060006101000a81548160ff0219169083151502179055508173ffffffffffffffffffffffffffffffffffffffff168373ffffffffffffffffffffffffffffffffffffffff167f17307eab39ab6107e8899845ad3d59bd9653f200f220920489ca2b5937696c31836040516114139190611e3f565b60405180910390a3505050565b61142b848484610e72565b61143784848484611757565b611476576040517f08c379a000000000000000000000000000000000000000000000000000000000815260040161146d90612ba9565b60405180910390fd5b50505050565b606060405180602001604052806000815250905090565b606060008214156114db576040518060400160405280600181526020017f300000000000000000000000000000000000000000000000000000000000000081525090506115ef565b600082905060005b6000821461150d5780806114f690612bc9565b915050600a826115069190612c41565b91506114e3565b60008167ffffffffffffffff81111561152957611528612160565b5b6040519080825280601f01601f19166020018201604052801561155b5781602001600182028036833780820191505090505b5090505b600085146115e8576001826115749190612753565b9150600a856115839190612c72565b603061158f919061299d565b60f81b8183815181106115a5576115a4612689565b5b60200101907effffffffffffffffffffffffffffffffffffffffffffffffffffffffffffff1916908160001a905350600a856115e19190612c41565b945061155f565b8093505050505b919050565b60007f80ac58cd000000000000000000000000000000000000000000000000000000007bffffffffffffffffffffffffffffffffffffffffffffffffffffffff1916827bffffffffffffffffffffffffffffffffffffffffffffffffffffffff191614806116bf57507f5b5e139f000000000000000000000000000000000000000000000000000000007bffffffffffffffffffffffffffffffffffffffffffffffffffffffff1916827bffffffffffffffffffffffffffffffffffffffffffffffffffffffff1916145b806116cf57506116ce826118df565b5b9050919050565b60008073ffffffffffffffffffffffffffffffffffffffff166002600084815260200190815260200160002060009054906101000a900473ffffffffffffffffffffffffffffffffffffffff1673ffffffffffffffffffffffffffffffffffffffff1614159050919050565b61174d838383611949565b505050565b505050565b60006117788473ffffffffffffffffffffffffffffffffffffffff16611a5d565b156118d2578373ffffffffffffffffffffffffffffffffffffffff1663150b7a026117a1610d1c565b8786866040518563ffffffff1660e01b81526004016117c39493929190612cf8565b6020604051808303816000875af19250505080156117ff57506040513d601f19601f820116820180604052508101906117fc9190612d59565b60015b611882573d806000811461182f576040519150601f19603f3d011682016040523d82523d6000602084013e611834565b606091505b5060008151141561187a576040517f08c379a000000000000000000000000000000000000000000000000000000000815260040161187190612ba9565b60405180910390fd5b805181602001fd5b63150b7a0260e01b7bffffffffffffffffffffffffffffffffffffffffffffffffffffffff1916817bffffffffffffffffffffffffffffffffffffffffffffffffffffffff1916149150506118d7565b600190505b949350505050565b60007f01ffc9a7000000000000000000000000000000000000000000000000000000007bffffffffffffffffffffffffffffffffffffffffffffffffffffffff1916827bffffffffffffffffffffffffffffffffffffffffffffffffffffffff1916149050919050565b611954838383611a80565b600073ffffffffffffffffffffffffffffffffffffffff168373ffffffffffffffffffffffffffffffffffffffff1614156119975761199281611a85565b6119d6565b8173ffffffffffffffffffffffffffffffffffffffff168373ffffffffffffffffffffffffffffffffffffffff16146119d5576119d48382611ace565b5b5b600073ffffffffffffffffffffffffffffffffffffffff168273ffffffffffffffffffffffffffffffffffffffff161415611a1957611a1481611c3b565b611a58565b8273ffffffffffffffffffffffffffffffffffffffff168273ffffffffffffffffffffffffffffffffffffffff1614611a5757611a568282611d0c565b5b5b505050565b6000808273ffffffffffffffffffffffffffffffffffffffff163b119050919050565b505050565b6008805490506009600083815260200190815260200160002081905550600881908060018154018082558091505060019003906000526020600020016000909190919091505550565b60006001611adb8461095a565b611ae59190612753565b9050600060076000848152602001908152602001600020549050818114611bca576000600660008673ffffffffffffffffffffffffffffffffffffffff1673ffffffffffffffffffffffffffffffffffffffff168152602001908152602001600020600084815260200190815260200160002054905080600660008773ffffffffffffffffffffffffffffffffffffffff1673ffffffffffffffffffffffffffffffffffffffff168152602001908152602001600020600084815260200190815260200160002081905550816007600083815260200190815260200160002081905550505b6007600084815260200190815260200160002060009055600660008573ffffffffffffffffffffffffffffffffffffffff1673ffffffffffffffffffffffffffffffffffffffff16815260200190815260200160002060008381526020019081526020016000206000905550505050565b60006001600880549050611c4f9190612753565b9050600060096000848152602001908152602001600020549050600060088381548110611c7f57611c7e612689565b5b906000526020600020015490508060088381548110611ca157611ca0612689565b5b906000526020600020018190555081600960008381526020019081526020016000208190555060096000858152602001908152602001600020600090556008805480611cf057611cef612d86565b5b6001900381819060005260206000200160009055905550505050565b6000611d178361095a565b905081600660008573ffffffffffffffffffffffffffffffffffffffff1673ffffffffffffffffffffffffffffffffffffffff168152602001908152602001600020600083815260200190815260200160002081905550806007600084815260200190815260200160002081905550505050565b6000604051905090565b600080fd5b600080fd5b60007fffffffff0000000000000000000000000000000000000000000000000000000082169050919050565b611dd481611d9f565b8114611ddf57600080fd5b50565b600081359050611df181611dcb565b92915050565b600060208284031215611e0d57611e0c611d95565b5b6000611e1b84828501611de2565b91505092915050565b60008115159050919050565b611e3981611e24565b82525050565b6000602082019050611e546000830184611e30565b92915050565b600081519050919050565b600082825260208201905092915050565b60005b83811015611e94578082015181840152602081019050611e79565b83811115611ea3576000848401525b50505050565b6000601f19601f8301169050919050565b6000611ec582611e5a565b611ecf8185611e65565b9350611edf818560208601611e76565b611ee881611ea9565b840191505092915050565b60006020820190508181036000830152611f0d8184611eba565b905092915050565b6000819050919050565b611f2881611f15565b8114611f3357600080fd5b50565b600081359050611f4581611f1f565b92915050565b600060208284031215611f6157611f60611d95565b5b6000611f6f84828501611f36565b91505092915050565b600073ffffffffffffffffffffffffffffffffffffffff82169050919050565b6000611fa382611f78565b9050919050565b611fb381611f98565b82525050565b6000602082019050611fce6000830184611faa565b92915050565b611fdd81611f98565b8114611fe857600080fd5b50565b600081359050611ffa81611fd4565b92915050565b6000806040838503121561201757612016611d95565b5b600061202585828601611feb565b925050602061203685828601611f36565b9150509250929050565b61204981611f15565b82525050565b60006020820190506120646000830184612040565b92915050565b60008060006060848603121561208357612082611d95565b5b600061209186828701611feb565b93505060206120a286828701611feb565b92505060406120b386828701611f36565b9150509250925092565b6000602082840312156120d3576120d2611d95565b5b60006120e184828501611feb565b91505092915050565b6120f381611e24565b81146120fe57600080fd5b50565b600081359050612110816120ea565b92915050565b6000806040838503121561212d5761212c611d95565b5b600061213b85828601611feb565b925050602061214c85828601612101565b9150509250929050565b600080fd5b600080fd5b7f4e487b7100000000000000000000000000000000000000000000000000000000600052604160045260246000fd5b61219882611ea9565b810181811067ffffffffffffffff821117156121b7576121b6612160565b5b80604052505050565b60006121ca611d8b565b90506121d6828261218f565b919050565b600067ffffffffffffffff8211156121f6576121f5612160565b5b6121ff82611ea9565b9050602081019050919050565b82818337600083830152505050565b600061222e612229846121db565b6121c0565b90508281526020810184848401111561224a5761224961215b565b5b61225584828561220c565b509392505050565b600082601f83011261227257612271612156565b5b813561228284826020860161221b565b91505092915050565b600080600080608085870312156122a5576122a4611d95565b5b60006122b387828801611feb565b94505060206122c487828801611feb565b93505060406122d587828801611f36565b925050606085013567ffffffffffffffff8111156122f6576122f5611d9a565b5b6123028782880161225d565b91505092959194509250565b6000806040838503121561232557612324611d95565b5b600061233385828601611feb565b925050602061234485828601611feb565b9150509250929050565b7f4e487b7100000000000000000000000000000000000000000000000000000000600052602260045260246000fd5b6000600282049050600182168061239557607f821691505b602082108114156123a9576123a861234e565b5b50919050565b7f4552433732313a20617070726f76616c20746f2063757272656e74206f776e6560008201527f7200000000000000000000000000000000000000000000000000000000000000602082015250565b600061240b602183611e65565b9150612416826123af565b604082019050919050565b6000602082019050818103600083015261243a816123fe565b9050919050565b7f4552433732313a20617070726f76652063616c6c6572206973206e6f7420746f60008201527f6b656e206f776e6572206e6f7220617070726f76656420666f7220616c6c0000602082015250565b600061249d603e83611e65565b91506124a882612441565b604082019050919050565b600060208201905081810360008301526124cc81612490565b9050919050565b7f4552433732313a2063616c6c6572206973206e6f7420746f6b656e206f776e6560008201527f72206e6f7220617070726f766564000000000000000000000000000000000000602082015250565b600061252f602e83611e65565b915061253a826124d3565b604082019050919050565b6000602082019050818103600083015261255e81612522565b9050919050565b7f455243373231456e756d657261626c653a206f776e657220696e646578206f7560008201527f74206f6620626f756e6473000000000000000000000000000000000000000000602082015250565b60006125c1602b83611e65565b91506125cc82612565565b604082019050919050565b600060208201905081810360008301526125f0816125b4565b9050919050565b7f455243373231456e756d657261626c653a20676c6f62616c20696e646578206f60008201527f7574206f6620626f756e64730000000000000000000000000000000000000000602082015250565b6000612653602c83611e65565b915061265e826125f7565b604082019050919050565b6000602082019050818103600083015261268281612646565b9050919050565b7f4e487b7100000000000000000000000000000000000000000000000000000000600052603260045260246000fd5b7f4552433732313a20696e76616c696420746f6b656e2049440000000000000000600082015250565b60006126ee601883611e65565b91506126f9826126b8565b602082019050919050565b6000602082019050818103600083015261271d816126e1565b9050919050565b7f4e487b7100000000000000000000000000000000000000000000000000000000600052601160045260246000fd5b600061275e82611f15565b915061276983611f15565b92508282101561277c5761277b612724565b5b828203905092915050565b7f4552433732313a2061646472657373207a65726f206973206e6f74206120766160008201527f6c6964206f776e65720000000000000000000000000000000000000000000000602082015250565b60006127e3602983611e65565b91506127ee82612787565b604082019050919050565b60006020820190508181036000830152612812816127d6565b9050919050565b600081905092915050565b600061282f82611e5a565b6128398185612819565b9350612849818560208601611e76565b80840191505092915050565b60006128618285612824565b915061286d8284612824565b91508190509392505050565b7f4552433732313a207472616e736665722066726f6d20696e636f72726563742060008201527f6f776e6572000000000000000000000000000000000000000000000000000000602082015250565b60006128d5602583611e65565b91506128e082612879565b604082019050919050565b60006020820190508181036000830152612904816128c8565b9050919050565b7f4552433732313a207472616e7366657220746f20746865207a65726f2061646460008201527f7265737300000000000000000000000000000000000000000000000000000000602082015250565b6000612967602483611e65565b91506129728261290b565b604082019050919050565b600060208201905081810360008301526129968161295a565b9050919050565b60006129a882611f15565b91506129b383611f15565b9250827fffffffffffffffffffffffffffffffffffffffffffffffffffffffffffffffff038211156129e8576129e7612724565b5b828201905092915050565b7f4552433732313a206d696e7420746f20746865207a65726f2061646472657373600082015250565b6000612a29602083611e65565b9150612a34826129f3565b602082019050919050565b60006020820190508181036000830152612a5881612a1c565b9050919050565b7f4552433732313a20746f6b656e20616c7265616479206d696e74656400000000600082015250565b6000612a95601c83611e65565b9150612aa082612a5f565b602082019050919050565b60006020820190508181036000830152612ac481612a88565b9050919050565b7f4552433732313a20617070726f766520746f2063616c6c657200000000000000600082015250565b6000612b01601983611e65565b9150612b0c82612acb565b602082019050919050565b60006020820190508181036000830152612b3081612af4565b9050919050565b7f4552433732313a207472616e7366657220746f206e6f6e20455243373231526560008201527f63656976657220696d706c656d656e7465720000000000000000000000000000602082015250565b6000612b93603283611e65565b9150612b9e82612b37565b604082019050919050565b60006020820190508181036000830152612bc281612b86565b9050919050565b6000612bd482611f15565b91507fffffffffffffffffffffffffffffffffffffffffffffffffffffffffffffffff821415612c0757612c06612724565b5b600182019050919050565b7f4e487b7100000000000000000000000000000000000000000000000000000000600052601260045260246000fd5b6000612c4c82611f15565b9150612c5783611f15565b925082612c6757612c66612c12565b5b828204905092915050565b6000612c7d82611f15565b9150612c8883611f15565b925082612c9857612c97612c12565b5b828206905092915050565b600081519050919050565b600082825260208201905092915050565b6000612cca82612ca3565b612cd48185612cae565b9350612ce4818560208601611e76565b612ced81611ea9565b840191505092915050565b6000608082019050612d0d6000830187611faa565b612d1a6020830186611faa565b612d276040830185612040565b8181036060830152612d398184612cbf565b905095945050505050565b600081519050612d5381611dcb565b92915050565b600060208284031215612d6f57612d6e611d95565b5b6000612d7d84828501612d44565b91505092915050565b7f4e487b7100000000000000000000000000000000000000000000000000000000600052603160045260246000fdfea26469706673582212203832fca8ef95e67b3fe2971fa3c26bf1e484c411b1e0f339d075b3bd94cfe79464736f6c634300080a0033",
  "immutableReferences": {},
  "source": "pragma solidity ^0.8.10;\r\n\r\nimport \"@openzeppelin/contracts/token/ERC721/ERC721.sol\";\r\nimport \"@openzeppelin/contracts/token/ERC721/extensions/ERC721Enumerable.sol\";\r\n\r\ncontract Voters is ERC721, ERC721Enumerable {\r\n    address[] public voters;\r\n\r\n    mapping(address => bool) _voterExists;\r\n\r\n    constructor() ERC721(\"Voters\", \"VOTE\") {}\r\n\r\n    function mint(address voter) public {\r\n        require(!_voterExists[voter]);\r\n        voters.push(voter);\r\n        _voterExists[voter] = true;\r\n        uint256 _id = voters.length - 1;\r\n        _mint(voter, _id);\r\n    }\r\n\r\n    function _beforeTokenTransfer(\r\n        address from,\r\n        address to,\r\n        uint256 tokenId\r\n    ) internal override(ERC721, ERC721Enumerable) {\r\n        super._beforeTokenTransfer(from, to, tokenId);\r\n    }\r\n\r\n    function supportsInterface(bytes4 interfaceId)\r\n        public\r\n        view\r\n        override(ERC721, ERC721Enumerable)\r\n        returns (bool)\r\n    {\r\n        return super.supportsInterface(interfaceId);\r\n    }\r\n}\r\n",
  "sourcePath": "C:\\Users\\Alex\\Desktop\\election\\contracts\\Voters.sol",
  "compiler": {
    "name": "solc",
    "version": "0.8.10+commit.fc410830.Emscripten.clang"
  },
  "schemaVersion": "3.4.4",
  "updatedAt": "2022-07-24T04:58:13.715Z",
  "networkType": "ethereum",
  "devdoc": {
    "kind": "dev",
    "methods": {
      "approve(address,uint256)": {
        "details": "See {IERC721-approve}."
      },
      "balanceOf(address)": {
        "details": "See {IERC721-balanceOf}."
      },
      "getApproved(uint256)": {
        "details": "See {IERC721-getApproved}."
      },
      "isApprovedForAll(address,address)": {
        "details": "See {IERC721-isApprovedForAll}."
      },
      "name()": {
        "details": "See {IERC721Metadata-name}."
      },
      "ownerOf(uint256)": {
        "details": "See {IERC721-ownerOf}."
      },
      "safeTransferFrom(address,address,uint256)": {
        "details": "See {IERC721-safeTransferFrom}."
      },
      "safeTransferFrom(address,address,uint256,bytes)": {
        "details": "See {IERC721-safeTransferFrom}."
      },
      "setApprovalForAll(address,bool)": {
        "details": "See {IERC721-setApprovalForAll}."
      },
      "symbol()": {
        "details": "See {IERC721Metadata-symbol}."
      },
      "tokenByIndex(uint256)": {
        "details": "See {IERC721Enumerable-tokenByIndex}."
      },
      "tokenOfOwnerByIndex(address,uint256)": {
        "details": "See {IERC721Enumerable-tokenOfOwnerByIndex}."
      },
      "tokenURI(uint256)": {
        "details": "See {IERC721Metadata-tokenURI}."
      },
      "totalSupply()": {
        "details": "See {IERC721Enumerable-totalSupply}."
      },
      "transferFrom(address,address,uint256)": {
        "details": "See {IERC721-transferFrom}."
      }
    },
    "version": 1
  },
  "userdoc": {
    "kind": "user",
    "methods": {},
    "version": 1
  }
}